{
	"contracts/CallTest.sol": {
		"LowCallee": {
			"abi": [
				{
					"inputs": [],
					"name": "fetchNum",
					"outputs": [
						{
							"internalType": "uint256",
							"name": "",
							"type": "uint256"
						}
					],
					"stateMutability": "nonpayable",
					"type": "function"
				},
				{
					"inputs": [],
					"name": "num",
					"outputs": [
						{
							"internalType": "uint256",
							"name": "",
							"type": "uint256"
						}
					],
					"stateMutability": "view",
					"type": "function"
				},
				{
					"inputs": [
						{
							"internalType": "uint256",
							"name": "val",
							"type": "uint256"
						}
					],
					"name": "setNum",
					"outputs": [],
					"stateMutability": "nonpayable",
					"type": "function"
				}
			],
			"devdoc": {
				"kind": "dev",
				"methods": {},
				"version": 1
			},
			"evm": {
				"assembly": "    /* \"contracts/CallTest.sol\":2919:3112  contract LowCallee {\r... */\n  mstore(0x40, 0x80)\n  callvalue\n  dup1\n  iszero\n  tag_1\n  jumpi\n  0x00\n  dup1\n  revert\ntag_1:\n  pop\n  dataSize(sub_0)\n  dup1\n  dataOffset(sub_0)\n  0x00\n  codecopy\n  0x00\n  return\nstop\n\nsub_0: assembly {\n        /* \"contracts/CallTest.sol\":2919:3112  contract LowCallee {\r... */\n      mstore(0x40, 0x80)\n      callvalue\n      dup1\n      iszero\n      tag_1\n      jumpi\n      0x00\n      dup1\n      revert\n    tag_1:\n      pop\n      jumpi(tag_2, lt(calldatasize, 0x04))\n      shr(0xe0, calldataload(0x00))\n      dup1\n      0x4e70b1dc\n      eq\n      tag_3\n      jumpi\n      dup1\n      0x9308c91a\n      eq\n      tag_4\n      jumpi\n      dup1\n      0xcd16ecbf\n      eq\n      tag_5\n      jumpi\n    tag_2:\n      0x00\n      dup1\n      revert\n        /* \"contracts/CallTest.sol\":2945:2960  uint public num */\n    tag_3:\n      tag_6\n      tag_7\n      jump\t// in\n    tag_6:\n      mload(0x40)\n      dup1\n      dup3\n      dup2\n      mstore\n      0x20\n      add\n      swap2\n      pop\n      pop\n      mload(0x40)\n      dup1\n      swap2\n      sub\n      swap1\n      return\n        /* \"contracts/CallTest.sol\":2969:3040  function fetchNum() public returns (uint) {\r... */\n    tag_4:\n      tag_8\n      tag_9\n      jump\t// in\n    tag_8:\n      mload(0x40)\n      dup1\n      dup3\n      dup2\n      mstore\n      0x20\n      add\n      swap2\n      pop\n      pop\n      mload(0x40)\n      dup1\n      swap2\n      sub\n      swap1\n      return\n        /* \"contracts/CallTest.sol\":3048:3109  function setNum(uint val) public {\r... */\n    tag_5:\n      tag_10\n      0x04\n      dup1\n      calldatasize\n      sub\n      0x20\n      dup2\n      lt\n      iszero\n      tag_11\n      jumpi\n      0x00\n      dup1\n      revert\n    tag_11:\n      dup2\n      add\n      swap1\n      dup1\n      dup1\n      calldataload\n      swap1\n      0x20\n      add\n      swap1\n      swap3\n      swap2\n      swap1\n      pop\n      pop\n      pop\n      tag_12\n      jump\t// in\n    tag_10:\n      stop\n        /* \"contracts/CallTest.sol\":2945:2960  uint public num */\n    tag_7:\n      sload(0x00)\n      dup2\n      jump\t// out\n        /* \"contracts/CallTest.sol\":2969:3040  function fetchNum() public returns (uint) {\r... */\n    tag_9:\n        /* \"contracts/CallTest.sol\":3005:3009  uint */\n      0x00\n        /* \"contracts/CallTest.sol\":3029:3032  num */\n      dup1\n      sload\n        /* \"contracts/CallTest.sol\":3022:3032  return num */\n      swap1\n      pop\n        /* \"contracts/CallTest.sol\":2969:3040  function fetchNum() public returns (uint) {\r... */\n      swap1\n      jump\t// out\n        /* \"contracts/CallTest.sol\":3048:3109  function setNum(uint val) public {\r... */\n    tag_12:\n        /* \"contracts/CallTest.sol\":3098:3101  val */\n      dup1\n        /* \"contracts/CallTest.sol\":3092:3095  num */\n      0x00\n        /* \"contracts/CallTest.sol\":3092:3101  num = val */\n      dup2\n      swap1\n      sstore\n      pop\n        /* \"contracts/CallTest.sol\":3048:3109  function setNum(uint val) public {\r... */\n      pop\n      jump\t// out\n\n    auxdata: 0xa264697066735822122001ad1266d6a9cf5a6fadc2fa40cb539e3a0733099a9a701d6ee1a526b598382164736f6c634300060c0033\n}\n",
				"bytecode": {
					"linkReferences": {},
					"object": "608060405234801561001057600080fd5b5060f38061001f6000396000f3fe6080604052348015600f57600080fd5b5060043610603c5760003560e01c80634e70b1dc1460415780639308c91a14605d578063cd16ecbf146079575b600080fd5b604760a4565b6040518082815260200191505060405180910390f35b606360aa565b6040518082815260200191505060405180910390f35b60a260048036036020811015608d57600080fd5b810190808035906020019092919050505060b3565b005b60005481565b60008054905090565b806000819055505056fea264697066735822122001ad1266d6a9cf5a6fadc2fa40cb539e3a0733099a9a701d6ee1a526b598382164736f6c634300060c0033",
					"opcodes": "PUSH1 0x80 PUSH1 0x40 MSTORE CALLVALUE DUP1 ISZERO PUSH2 0x10 JUMPI PUSH1 0x0 DUP1 REVERT JUMPDEST POP PUSH1 0xF3 DUP1 PUSH2 0x1F PUSH1 0x0 CODECOPY PUSH1 0x0 RETURN INVALID PUSH1 0x80 PUSH1 0x40 MSTORE CALLVALUE DUP1 ISZERO PUSH1 0xF JUMPI PUSH1 0x0 DUP1 REVERT JUMPDEST POP PUSH1 0x4 CALLDATASIZE LT PUSH1 0x3C JUMPI PUSH1 0x0 CALLDATALOAD PUSH1 0xE0 SHR DUP1 PUSH4 0x4E70B1DC EQ PUSH1 0x41 JUMPI DUP1 PUSH4 0x9308C91A EQ PUSH1 0x5D JUMPI DUP1 PUSH4 0xCD16ECBF EQ PUSH1 0x79 JUMPI JUMPDEST PUSH1 0x0 DUP1 REVERT JUMPDEST PUSH1 0x47 PUSH1 0xA4 JUMP JUMPDEST PUSH1 0x40 MLOAD DUP1 DUP3 DUP2 MSTORE PUSH1 0x20 ADD SWAP2 POP POP PUSH1 0x40 MLOAD DUP1 SWAP2 SUB SWAP1 RETURN JUMPDEST PUSH1 0x63 PUSH1 0xAA JUMP JUMPDEST PUSH1 0x40 MLOAD DUP1 DUP3 DUP2 MSTORE PUSH1 0x20 ADD SWAP2 POP POP PUSH1 0x40 MLOAD DUP1 SWAP2 SUB SWAP1 RETURN JUMPDEST PUSH1 0xA2 PUSH1 0x4 DUP1 CALLDATASIZE SUB PUSH1 0x20 DUP2 LT ISZERO PUSH1 0x8D JUMPI PUSH1 0x0 DUP1 REVERT JUMPDEST DUP2 ADD SWAP1 DUP1 DUP1 CALLDATALOAD SWAP1 PUSH1 0x20 ADD SWAP1 SWAP3 SWAP2 SWAP1 POP POP POP PUSH1 0xB3 JUMP JUMPDEST STOP JUMPDEST PUSH1 0x0 SLOAD DUP2 JUMP JUMPDEST PUSH1 0x0 DUP1 SLOAD SWAP1 POP SWAP1 JUMP JUMPDEST DUP1 PUSH1 0x0 DUP2 SWAP1 SSTORE POP POP JUMP INVALID LOG2 PUSH5 0x6970667358 0x22 SLT KECCAK256 ADD 0xAD SLT PUSH7 0xD6A9CF5A6FADC2 STATICCALL BLOCKHASH 0xCB MSTORE8 SWAP15 GASPRICE SMOD CALLER MULMOD SWAP11 SWAP11 PUSH17 0x1D6EE1A526B598382164736F6C63430006 0xC STOP CALLER "
				},
				"gasEstimates": {
					"creation": {
						"codeDepositCost": "48600",
						"executionCost": "99",
						"totalCost": "48699"
					},
					"external": {
						"fetchNum()": "1013",
						"num()": "983",
						"setNum(uint256)": "20264"
					}
				},
				"methodIdentifiers": {
					"fetchNum()": "9308c91a",
					"num()": "4e70b1dc",
					"setNum(uint256)": "cd16ecbf"
				}
			},
			"storageLayout": {
				"storage": [
					{
						"astId": 219,
						"contract": "contracts/CallTest.sol:LowCallee",
						"label": "num",
						"offset": 0,
						"slot": "0",
						"type": "t_uint256"
					}
				],
				"types": {
					"t_uint256": {
						"encoding": "inplace",
						"label": "uint256",
						"numberOfBytes": "32"
					}
				}
			},
			"userdoc": {
				"kind": "user",
				"methods": {},
				"version": 1
			}
		}
	}
}