{
	"contracts/Faucet.sol": {
		"Faucet": {
			"abi": [
				{
					"inputs": [
						{
							"internalType": "uint256",
							"name": "withdraw_amount",
							"type": "uint256"
						}
					],
					"name": "withdraw",
					"outputs": [],
					"stateMutability": "nonpayable",
					"type": "function"
				},
				{
					"stateMutability": "payable",
					"type": "receive"
				}
			],
			"devdoc": {
				"methods": {}
			},
			"evm": {
				"assembly": "    /* \"contracts/Faucet.sol\":62:460  contract Faucet {\r... */\n  mstore(0x40, 0x80)\n  callvalue\n    /* \"--CODEGEN--\":5:14   */\n  dup1\n    /* \"--CODEGEN--\":2:4   */\n  iszero\n  tag_1\n  jumpi\n    /* \"--CODEGEN--\":27:28   */\n  0x00\n    /* \"--CODEGEN--\":24:25   */\n  dup1\n    /* \"--CODEGEN--\":17:29   */\n  revert\n    /* \"--CODEGEN--\":2:4   */\ntag_1:\n    /* \"contracts/Faucet.sol\":62:460  contract Faucet {\r... */\n  pop\n  dataSize(sub_0)\n  dup1\n  dataOffset(sub_0)\n  0x00\n  codecopy\n  0x00\n  return\nstop\n\nsub_0: assembly {\n        /* \"contracts/Faucet.sol\":62:460  contract Faucet {\r... */\n      mstore(0x40, 0x80)\n      jumpi(tag_1, lt(calldatasize, 0x04))\n      shr(0xe0, calldataload(0x00))\n      dup1\n      0x2e1a7d4d\n      eq\n      tag_3\n      jumpi\n      jump(tag_2)\n    tag_1:\n      jumpi(tag_2, calldatasize)\n      stop\n    tag_2:\n        /* \"--CODEGEN--\":12:13   */\n      0x00\n        /* \"--CODEGEN--\":9:10   */\n      dup1\n        /* \"--CODEGEN--\":2:14   */\n      revert\n        /* \"contracts/Faucet.sol\":199:457  function withdraw(uint withdraw_amount) public {\r... */\n    tag_3:\n      callvalue\n        /* \"--CODEGEN--\":5:14   */\n      dup1\n        /* \"--CODEGEN--\":2:4   */\n      iszero\n      tag_6\n      jumpi\n        /* \"--CODEGEN--\":27:28   */\n      0x00\n        /* \"--CODEGEN--\":24:25   */\n      dup1\n        /* \"--CODEGEN--\":17:29   */\n      revert\n        /* \"--CODEGEN--\":2:4   */\n    tag_6:\n        /* \"contracts/Faucet.sol\":199:457  function withdraw(uint withdraw_amount) public {\r... */\n      pop\n      tag_7\n      0x04\n      dup1\n      calldatasize\n      sub\n        /* \"--CODEGEN--\":15:17   */\n      0x20\n        /* \"--CODEGEN--\":10:13   */\n      dup2\n        /* \"--CODEGEN--\":7:18   */\n      lt\n        /* \"--CODEGEN--\":4:6   */\n      iszero\n      tag_8\n      jumpi\n        /* \"--CODEGEN--\":31:32   */\n      0x00\n        /* \"--CODEGEN--\":28:29   */\n      dup1\n        /* \"--CODEGEN--\":21:33   */\n      revert\n        /* \"--CODEGEN--\":4:6   */\n    tag_8:\n        /* \"contracts/Faucet.sol\":199:457  function withdraw(uint withdraw_amount) public {\r... */\n      dup2\n      add\n      swap1\n      dup1\n      dup1\n      calldataload\n      swap1\n      0x20\n      add\n      swap1\n      swap3\n      swap2\n      swap1\n      pop\n      pop\n      pop\n      tag_9\n      jump\t// in\n    tag_7:\n      stop\n    tag_9:\n        /* \"contracts/Faucet.sol\":320:338  100000000000000000 */\n      0x016345785d8a0000\n        /* \"contracts/Faucet.sol\":301:316  withdraw_amount */\n      dup2\n        /* \"contracts/Faucet.sol\":301:338  withdraw_amount <= 100000000000000000 */\n      gt\n      iszero\n        /* \"contracts/Faucet.sol\":293:339  require(withdraw_amount <= 100000000000000000) */\n      tag_11\n      jumpi\n        /* \"--CODEGEN--\":12:13   */\n      0x00\n        /* \"--CODEGEN--\":9:10   */\n      dup1\n        /* \"--CODEGEN--\":2:14   */\n      revert\n        /* \"contracts/Faucet.sol\":293:339  require(withdraw_amount <= 100000000000000000) */\n    tag_11:\n        /* \"contracts/Faucet.sol\":413:423  msg.sender */\n      caller\n        /* \"contracts/Faucet.sol\":413:432  msg.sender.transfer */\n      0xffffffffffffffffffffffffffffffffffffffff\n      and\n        /* \"contracts/Faucet.sol\":413:449  msg.sender.transfer(withdraw_amount) */\n      0x08fc\n        /* \"contracts/Faucet.sol\":433:448  withdraw_amount */\n      dup3\n        /* \"contracts/Faucet.sol\":413:449  msg.sender.transfer(withdraw_amount) */\n      swap1\n      dup2\n      iszero\n      mul\n      swap1\n      mload(0x40)\n      0x00\n      mload(0x40)\n      dup1\n      dup4\n      sub\n      dup2\n      dup6\n      dup9\n      dup9\n      call\n      swap4\n      pop\n      pop\n      pop\n      pop\n      iszero\n        /* \"--CODEGEN--\":8:17   */\n      dup1\n        /* \"--CODEGEN--\":5:7   */\n      iszero\n      tag_13\n      jumpi\n        /* \"--CODEGEN--\":45:61   */\n      returndatasize\n        /* \"--CODEGEN--\":42:43   */\n      0x00\n        /* \"--CODEGEN--\":39:40   */\n      dup1\n        /* \"--CODEGEN--\":24:62   */\n      returndatacopy\n        /* \"--CODEGEN--\":77:93   */\n      returndatasize\n        /* \"--CODEGEN--\":74:75   */\n      0x00\n        /* \"--CODEGEN--\":67:94   */\n      revert\n        /* \"--CODEGEN--\":5:7   */\n    tag_13:\n        /* \"contracts/Faucet.sol\":413:449  msg.sender.transfer(withdraw_amount) */\n      pop\n        /* \"contracts/Faucet.sol\":199:457  function withdraw(uint withdraw_amount) public {\r... */\n      pop\n      jump\t// out\n\n    auxdata: 0xa2646970667358221220ca1919b16992d306ecfa91b233b9e3559fca19d88c5a57b2e24f4d730dbf150064736f6c63430006040033\n}\n",
				"bytecode": {
					"linkReferences": {},
					"object": "608060405234801561001057600080fd5b5060f48061001f6000396000f3fe608060405260043610601f5760003560e01c80632e1a7d4d14602a576025565b36602557005b600080fd5b348015603557600080fd5b50605f60048036036020811015604a57600080fd5b81019080803590602001909291905050506061565b005b67016345785d8a0000811115607557600080fd5b3373ffffffffffffffffffffffffffffffffffffffff166108fc829081150290604051600060405180830381858888f1935050505015801560ba573d6000803e3d6000fd5b505056fea2646970667358221220ca1919b16992d306ecfa91b233b9e3559fca19d88c5a57b2e24f4d730dbf150064736f6c63430006040033",
					"opcodes": "PUSH1 0x80 PUSH1 0x40 MSTORE CALLVALUE DUP1 ISZERO PUSH2 0x10 JUMPI PUSH1 0x0 DUP1 REVERT JUMPDEST POP PUSH1 0xF4 DUP1 PUSH2 0x1F PUSH1 0x0 CODECOPY PUSH1 0x0 RETURN INVALID PUSH1 0x80 PUSH1 0x40 MSTORE PUSH1 0x4 CALLDATASIZE LT PUSH1 0x1F JUMPI PUSH1 0x0 CALLDATALOAD PUSH1 0xE0 SHR DUP1 PUSH4 0x2E1A7D4D EQ PUSH1 0x2A JUMPI PUSH1 0x25 JUMP JUMPDEST CALLDATASIZE PUSH1 0x25 JUMPI STOP JUMPDEST PUSH1 0x0 DUP1 REVERT JUMPDEST CALLVALUE DUP1 ISZERO PUSH1 0x35 JUMPI PUSH1 0x0 DUP1 REVERT JUMPDEST POP PUSH1 0x5F PUSH1 0x4 DUP1 CALLDATASIZE SUB PUSH1 0x20 DUP2 LT ISZERO PUSH1 0x4A JUMPI PUSH1 0x0 DUP1 REVERT JUMPDEST DUP2 ADD SWAP1 DUP1 DUP1 CALLDATALOAD SWAP1 PUSH1 0x20 ADD SWAP1 SWAP3 SWAP2 SWAP1 POP POP POP PUSH1 0x61 JUMP JUMPDEST STOP JUMPDEST PUSH8 0x16345785D8A0000 DUP2 GT ISZERO PUSH1 0x75 JUMPI PUSH1 0x0 DUP1 REVERT JUMPDEST CALLER PUSH20 0xFFFFFFFFFFFFFFFFFFFFFFFFFFFFFFFFFFFFFFFF AND PUSH2 0x8FC DUP3 SWAP1 DUP2 ISZERO MUL SWAP1 PUSH1 0x40 MLOAD PUSH1 0x0 PUSH1 0x40 MLOAD DUP1 DUP4 SUB DUP2 DUP6 DUP9 DUP9 CALL SWAP4 POP POP POP POP ISZERO DUP1 ISZERO PUSH1 0xBA JUMPI RETURNDATASIZE PUSH1 0x0 DUP1 RETURNDATACOPY RETURNDATASIZE PUSH1 0x0 REVERT JUMPDEST POP POP JUMP INVALID LOG2 PUSH5 0x6970667358 0x22 SLT KECCAK256 0xCA NOT NOT 0xB1 PUSH10 0x92D306ECFA91B233B9E3 SSTORE SWAP16 0xCA NOT 0xD8 DUP13 GAS JUMPI 0xB2 0xE2 0x4F 0x4D PUSH20 0xDBF150064736F6C634300060400330000000000 "
				},
				"gasEstimates": {
					"creation": {
						"codeDepositCost": "48800",
						"executionCost": "99",
						"totalCost": "48899"
					},
					"external": {
						"withdraw(uint256)": "infinite"
					}
				},
				"methodIdentifiers": {
					"withdraw(uint256)": "2e1a7d4d"
				}
			},
			"storageLayout": {
				"storage": [],
				"types": null
			},
			"userdoc": {
				"methods": {}
			}
		}
	}
}