{
	"contracts/CallTest.sol": {
		"Caller": {
			"abi": [
				{
					"inputs": [
						{
							"internalType": "address",
							"name": "lowCalleeAddr",
							"type": "address"
						}
					],
					"name": "delegateFetch",
					"outputs": [
						{
							"internalType": "uint256",
							"name": "",
							"type": "uint256"
						}
					],
					"stateMutability": "nonpayable",
					"type": "function"
				},
				{
					"inputs": [
						{
							"internalType": "address",
							"name": "lowCalleeAddr",
							"type": "address"
						}
					],
					"name": "delegateNum",
					"outputs": [
						{
							"internalType": "uint256",
							"name": "",
							"type": "uint256"
						}
					],
					"stateMutability": "nonpayable",
					"type": "function"
				},
				{
					"inputs": [
						{
							"internalType": "address",
							"name": "lowCalleeAddr",
							"type": "address"
						},
						{
							"internalType": "uint256",
							"name": "num",
							"type": "uint256"
						}
					],
					"name": "delegateSet",
					"outputs": [],
					"stateMutability": "nonpayable",
					"type": "function"
				}
			],
			"devdoc": {
				"kind": "dev",
				"methods": {},
				"version": 1
			},
			"evm": {
				"assembly": "    /* \"contracts/CallTest.sol\":2335:3412  contract Caller {... */\n  mstore(0x40, 0x80)\n  callvalue\n  dup1\n  iszero\n  tag_1\n  jumpi\n  0x00\n  dup1\n  revert\ntag_1:\n  pop\n  dataSize(sub_0)\n  dup1\n  dataOffset(sub_0)\n  0x00\n  codecopy\n  0x00\n  return\nstop\n\nsub_0: assembly {\n        /* \"contracts/CallTest.sol\":2335:3412  contract Caller {... */\n      mstore(0x40, 0x80)\n      callvalue\n      dup1\n      iszero\n      tag_1\n      jumpi\n      0x00\n      dup1\n      revert\n    tag_1:\n      pop\n      jumpi(tag_2, lt(calldatasize, 0x04))\n      shr(0xe0, calldataload(0x00))\n      dup1\n      0x0c5dae31\n      eq\n      tag_3\n      jumpi\n      dup1\n      0x47f1cb79\n      eq\n      tag_4\n      jumpi\n      dup1\n      0x8b39d48d\n      eq\n      tag_5\n      jumpi\n    tag_2:\n      0x00\n      dup1\n      revert\n        /* \"contracts/CallTest.sol\":2839:3115  function delegateNum(address lowCalleeAddr) public returns (uint) {... */\n    tag_3:\n      tag_6\n      0x04\n      dup1\n      calldatasize\n      sub\n      dup2\n      add\n      swap1\n      tag_7\n      swap2\n      swap1\n      tag_8\n      jump\t// in\n    tag_7:\n      tag_9\n      jump\t// in\n    tag_6:\n      mload(0x40)\n      tag_10\n      swap2\n      swap1\n      tag_11\n      jump\t// in\n    tag_10:\n      mload(0x40)\n      dup1\n      swap2\n      sub\n      swap1\n      return\n        /* \"contracts/CallTest.sol\":3123:3409  function delegateSet(address lowCalleeAddr, uint num) public {... */\n    tag_4:\n      tag_12\n      0x04\n      dup1\n      calldatasize\n      sub\n      dup2\n      add\n      swap1\n      tag_13\n      swap2\n      swap1\n      tag_14\n      jump\t// in\n    tag_13:\n      tag_15\n      jump\t// in\n    tag_12:\n      stop\n        /* \"contracts/CallTest.sol\":2551:2831  function delegateFetch(address lowCalleeAddr) public returns (uint) {... */\n    tag_5:\n      tag_16\n      0x04\n      dup1\n      calldatasize\n      sub\n      dup2\n      add\n      swap1\n      tag_17\n      swap2\n      swap1\n      tag_8\n      jump\t// in\n    tag_17:\n      tag_18\n      jump\t// in\n    tag_16:\n      mload(0x40)\n      tag_19\n      swap2\n      swap1\n      tag_11\n      jump\t// in\n    tag_19:\n      mload(0x40)\n      dup1\n      swap2\n      sub\n      swap1\n      return\n        /* \"contracts/CallTest.sol\":2839:3115  function delegateNum(address lowCalleeAddr) public returns (uint) {... */\n    tag_9:\n        /* \"contracts/CallTest.sol\":2899:2903  uint */\n      0x00\n        /* \"contracts/CallTest.sol\":2917:2929  bool success */\n      dup1\n        /* \"contracts/CallTest.sol\":2931:2956  bytes memory returnedData */\n      0x00\n        /* \"contracts/CallTest.sol\":2960:2973  lowCalleeAddr */\n      dup4\n        /* \"contracts/CallTest.sol\":2960:2978  lowCalleeAddr.call */\n      0xffffffffffffffffffffffffffffffffffffffff\n      and\n        /* \"contracts/CallTest.sol\":2455:2473  keccak256(\"num()\") */\n      0x4e70b1dc6685af0fec33c1c343f3a20a0102cbd0e07252e6d35e7425fa34c9a3\n        /* \"contracts/CallTest.sol\":2979:3003  abi.encodePacked(numSig) */\n      add(0x20, mload(0x40))\n      tag_21\n      swap2\n      swap1\n      tag_22\n      jump\t// in\n    tag_21:\n      mload(0x40)\n      0x20\n      dup2\n      dup4\n      sub\n      sub\n      dup2\n      mstore\n      swap1\n      0x40\n      mstore\n        /* \"contracts/CallTest.sol\":2960:3004  lowCalleeAddr.call(abi.encodePacked(numSig)) */\n      mload(0x40)\n      tag_23\n      swap2\n      swap1\n      tag_24\n      jump\t// in\n    tag_23:\n      0x00\n      mload(0x40)\n      dup1\n      dup4\n      sub\n      dup2\n      0x00\n      dup7\n      gas\n      call\n      swap2\n      pop\n      pop\n      returndatasize\n      dup1\n      0x00\n      dup2\n      eq\n      tag_27\n      jumpi\n      mload(0x40)\n      swap2\n      pop\n      and(add(returndatasize, 0x3f), not(0x1f))\n      dup3\n      add\n      0x40\n      mstore\n      returndatasize\n      dup3\n      mstore\n      returndatasize\n      0x00\n      0x20\n      dup5\n      add\n      returndatacopy\n      jump(tag_26)\n    tag_27:\n      0x60\n      swap2\n      pop\n    tag_26:\n      pop\n        /* \"contracts/CallTest.sol\":2916:3004  (bool success, bytes memory returnedData) = lowCalleeAddr.call(abi.encodePacked(numSig)) */\n      swap2\n      pop\n      swap2\n      pop\n        /* \"contracts/CallTest.sol\":3023:3030  success */\n      dup2\n        /* \"contracts/CallTest.sol\":3015:3046  require(success, \"call failed\") */\n      tag_28\n      jumpi\n      mload(0x40)\n      0x08c379a000000000000000000000000000000000000000000000000000000000\n      dup2\n      mstore\n      0x04\n      add\n      tag_29\n      swap1\n      tag_30\n      jump\t// in\n    tag_29:\n      mload(0x40)\n      dup1\n      swap2\n      sub\n      swap1\n      revert\n    tag_28:\n        /* \"contracts/CallTest.sol\":3069:3076  Library */\n      linkerSymbol(\"8f1551ddb6659c4f61d022a243d43a4098fccafa0012ec14b444917ef01088d2\")\n        /* \"contracts/CallTest.sol\":3069:3092  Library.getFirst32Bytes */\n      0xaa35bf9b\n        /* \"contracts/CallTest.sol\":3093:3105  returnedData */\n      dup3\n        /* \"contracts/CallTest.sol\":3069:3106  Library.getFirst32Bytes(returnedData) */\n      mload(0x40)\n      dup3\n      0xffffffff\n      and\n      0xe0\n      shl\n      dup2\n      mstore\n      0x04\n      add\n      tag_31\n      swap2\n      swap1\n      tag_32\n      jump\t// in\n    tag_31:\n      0x20\n      mload(0x40)\n      dup1\n      dup4\n      sub\n      dup2\n      dup7\n      gas\n      delegatecall\n      iszero\n      dup1\n      iszero\n      tag_34\n      jumpi\n      returndatasize\n      0x00\n      dup1\n      returndatacopy\n      revert(0x00, returndatasize)\n    tag_34:\n      pop\n      pop\n      pop\n      pop\n      mload(0x40)\n      returndatasize\n      not(0x1f)\n      0x1f\n      dup3\n      add\n      and\n      dup3\n      add\n      dup1\n      0x40\n      mstore\n      pop\n      dup2\n      add\n      swap1\n      tag_35\n      swap2\n      swap1\n      tag_36\n      jump\t// in\n    tag_35:\n        /* \"contracts/CallTest.sol\":3064:3107  uint(Library.getFirst32Bytes(returnedData)) */\n      0x00\n      shr\n        /* \"contracts/CallTest.sol\":3057:3107  return uint(Library.getFirst32Bytes(returnedData)) */\n      swap3\n      pop\n      pop\n      pop\n        /* \"contracts/CallTest.sol\":2839:3115  function delegateNum(address lowCalleeAddr) public returns (uint) {... */\n      swap2\n      swap1\n      pop\n      jump\t// out\n        /* \"contracts/CallTest.sol\":3123:3409  function delegateSet(address lowCalleeAddr, uint num) public {... */\n    tag_15:\n        /* \"contracts/CallTest.sol\":3196:3208  bool success */\n      0x00\n        /* \"contracts/CallTest.sol\":3210:3235  bytes memory returnedData */\n      dup1\n        /* \"contracts/CallTest.sol\":3239:3252  lowCalleeAddr */\n      dup4\n        /* \"contracts/CallTest.sol\":3239:3257  lowCalleeAddr.call */\n      0xffffffffffffffffffffffffffffffffffffffff\n      and\n        /* \"contracts/CallTest.sol\":2513:2541  keccak256(\"setNum(uint256)\") */\n      0xcd16ecbfcf1435b249a186b2cbd679514aa2bde5676468ad7b34c927ded34142\n        /* \"contracts/CallTest.sol\":3283:3286  num */\n      dup5\n        /* \"contracts/CallTest.sol\":3258:3287  abi.encodePacked(setSig, num) */\n      add(0x20, mload(0x40))\n      tag_38\n      swap3\n      swap2\n      swap1\n      tag_39\n      jump\t// in\n    tag_38:\n      mload(0x40)\n      0x20\n      dup2\n      dup4\n      sub\n      sub\n      dup2\n      mstore\n      swap1\n      0x40\n      mstore\n        /* \"contracts/CallTest.sol\":3239:3288  lowCalleeAddr.call(abi.encodePacked(setSig, num)) */\n      mload(0x40)\n      tag_40\n      swap2\n      swap1\n      tag_24\n      jump\t// in\n    tag_40:\n      0x00\n      mload(0x40)\n      dup1\n      dup4\n      sub\n      dup2\n      0x00\n      dup7\n      gas\n      call\n      swap2\n      pop\n      pop\n      returndatasize\n      dup1\n      0x00\n      dup2\n      eq\n      tag_43\n      jumpi\n      mload(0x40)\n      swap2\n      pop\n      and(add(returndatasize, 0x3f), not(0x1f))\n      dup3\n      add\n      0x40\n      mstore\n      returndatasize\n      dup3\n      mstore\n      returndatasize\n      0x00\n      0x20\n      dup5\n      add\n      returndatacopy\n      jump(tag_42)\n    tag_43:\n      0x60\n      swap2\n      pop\n    tag_42:\n      pop\n        /* \"contracts/CallTest.sol\":3195:3288  (bool success, bytes memory returnedData) = lowCalleeAddr.call(abi.encodePacked(setSig, num)) */\n      swap2\n      pop\n      swap2\n      pop\n        /* \"contracts/CallTest.sol\":3303:3310  success */\n      dup2\n        /* \"contracts/CallTest.sol\":3299:3392  if(!success) {... */\n      tag_44\n      jumpi\n        /* \"contracts/CallTest.sol\":3335:3342  success */\n      dup2\n        /* \"contracts/CallTest.sol\":3344:3379  Library._getRevertMsg(returnedData) */\n      tag_45\n        /* \"contracts/CallTest.sol\":3366:3378  returnedData */\n      dup3\n        /* \"contracts/CallTest.sol\":3344:3365  Library._getRevertMsg */\n      tag_46\n        /* \"contracts/CallTest.sol\":3344:3379  Library._getRevertMsg(returnedData) */\n      jump\t// in\n    tag_45:\n        /* \"contracts/CallTest.sol\":3327:3380  require(success, Library._getRevertMsg(returnedData)) */\n      swap1\n      tag_47\n      jumpi\n      mload(0x40)\n      0x08c379a000000000000000000000000000000000000000000000000000000000\n      dup2\n      mstore\n      0x04\n      add\n      tag_48\n      swap2\n      swap1\n      tag_49\n      jump\t// in\n    tag_48:\n      mload(0x40)\n      dup1\n      swap2\n      sub\n      swap1\n      revert\n    tag_47:\n      pop\n        /* \"contracts/CallTest.sol\":3299:3392  if(!success) {... */\n    tag_44:\n        /* \"contracts/CallTest.sol\":3184:3409  {... */\n      pop\n      pop\n        /* \"contracts/CallTest.sol\":3123:3409  function delegateSet(address lowCalleeAddr, uint num) public {... */\n      pop\n      pop\n      jump\t// out\n        /* \"contracts/CallTest.sol\":2551:2831  function delegateFetch(address lowCalleeAddr) public returns (uint) {... */\n    tag_18:\n        /* \"contracts/CallTest.sol\":2613:2617  uint */\n      0x00\n        /* \"contracts/CallTest.sol\":2631:2643  bool success */\n      dup1\n        /* \"contracts/CallTest.sol\":2645:2670  bytes memory returnedData */\n      0x00\n        /* \"contracts/CallTest.sol\":2674:2687  lowCalleeAddr */\n      dup4\n        /* \"contracts/CallTest.sol\":2674:2692  lowCalleeAddr.call */\n      0xffffffffffffffffffffffffffffffffffffffff\n      and\n        /* \"contracts/CallTest.sol\":2392:2415  keccak256(\"fetchNum()\") */\n      0x9308c91a90468cf113554d22487fa4ace2cff032576c557134f2f713e541e9e7\n        /* \"contracts/CallTest.sol\":2693:2719  abi.encodePacked(fetchSig) */\n      add(0x20, mload(0x40))\n      tag_51\n      swap2\n      swap1\n      tag_22\n      jump\t// in\n    tag_51:\n      mload(0x40)\n      0x20\n      dup2\n      dup4\n      sub\n      sub\n      dup2\n      mstore\n      swap1\n      0x40\n      mstore\n        /* \"contracts/CallTest.sol\":2674:2720  lowCalleeAddr.call(abi.encodePacked(fetchSig)) */\n      mload(0x40)\n      tag_52\n      swap2\n      swap1\n      tag_24\n      jump\t// in\n    tag_52:\n      0x00\n      mload(0x40)\n      dup1\n      dup4\n      sub\n      dup2\n      0x00\n      dup7\n      gas\n      call\n      swap2\n      pop\n      pop\n      returndatasize\n      dup1\n      0x00\n      dup2\n      eq\n      tag_55\n      jumpi\n      mload(0x40)\n      swap2\n      pop\n      and(add(returndatasize, 0x3f), not(0x1f))\n      dup3\n      add\n      0x40\n      mstore\n      returndatasize\n      dup3\n      mstore\n      returndatasize\n      0x00\n      0x20\n      dup5\n      add\n      returndatacopy\n      jump(tag_54)\n    tag_55:\n      0x60\n      swap2\n      pop\n    tag_54:\n      pop\n        /* \"contracts/CallTest.sol\":2630:2720  (bool success, bytes memory returnedData) = lowCalleeAddr.call(abi.encodePacked(fetchSig)) */\n      swap2\n      pop\n      swap2\n      pop\n        /* \"contracts/CallTest.sol\":2739:2746  success */\n      dup2\n        /* \"contracts/CallTest.sol\":2731:2762  require(success, \"call failed\") */\n      tag_56\n      jumpi\n      mload(0x40)\n      0x08c379a000000000000000000000000000000000000000000000000000000000\n      dup2\n      mstore\n      0x04\n      add\n      tag_57\n      swap1\n      tag_30\n      jump\t// in\n    tag_57:\n      mload(0x40)\n      dup1\n      swap2\n      sub\n      swap1\n      revert\n    tag_56:\n        /* \"contracts/CallTest.sol\":2785:2792  Library */\n      linkerSymbol(\"8f1551ddb6659c4f61d022a243d43a4098fccafa0012ec14b444917ef01088d2\")\n        /* \"contracts/CallTest.sol\":2785:2808  Library.getFirst32Bytes */\n      0xaa35bf9b\n        /* \"contracts/CallTest.sol\":2809:2821  returnedData */\n      dup3\n        /* \"contracts/CallTest.sol\":2785:2822  Library.getFirst32Bytes(returnedData) */\n      mload(0x40)\n      dup3\n      0xffffffff\n      and\n      0xe0\n      shl\n      dup2\n      mstore\n      0x04\n      add\n      tag_58\n      swap2\n      swap1\n      tag_32\n      jump\t// in\n    tag_58:\n      0x20\n      mload(0x40)\n      dup1\n      dup4\n      sub\n      dup2\n      dup7\n      gas\n      delegatecall\n      iszero\n      dup1\n      iszero\n      tag_60\n      jumpi\n      returndatasize\n      0x00\n      dup1\n      returndatacopy\n      revert(0x00, returndatasize)\n    tag_60:\n      pop\n      pop\n      pop\n      pop\n      mload(0x40)\n      returndatasize\n      not(0x1f)\n      0x1f\n      dup3\n      add\n      and\n      dup3\n      add\n      dup1\n      0x40\n      mstore\n      pop\n      dup2\n      add\n      swap1\n      tag_61\n      swap2\n      swap1\n      tag_36\n      jump\t// in\n    tag_61:\n        /* \"contracts/CallTest.sol\":2780:2823  uint(Library.getFirst32Bytes(returnedData)) */\n      0x00\n      shr\n        /* \"contracts/CallTest.sol\":2773:2823  return uint(Library.getFirst32Bytes(returnedData)) */\n      swap3\n      pop\n      pop\n      pop\n        /* \"contracts/CallTest.sol\":2551:2831  function delegateFetch(address lowCalleeAddr) public returns (uint) {... */\n      swap2\n      swap1\n      pop\n      jump\t// out\n        /* \"contracts/Library.sol\":83:579  function _getRevertMsg(bytes memory _returnData) internal pure returns (string memory) {... */\n    tag_46:\n        /* \"contracts/Library.sol\":155:168  string memory */\n      0x60\n        /* \"contracts/Library.sol\":318:320  68 */\n      0x44\n        /* \"contracts/Library.sol\":297:308  _returnData */\n      dup3\n        /* \"contracts/Library.sol\":297:315  _returnData.length */\n      mload\n        /* \"contracts/Library.sol\":297:320  _returnData.length < 68 */\n      lt\n        /* \"contracts/Library.sol\":293:360  if (_returnData.length < 68) return 'Transaction reverted silently' */\n      iszero\n      tag_63\n      jumpi\n        /* \"contracts/Library.sol\":322:360  return 'Transaction reverted silently' */\n      mload(0x40)\n      dup1\n      0x40\n      add\n      0x40\n      mstore\n      dup1\n      0x1d\n      dup2\n      mstore\n      0x20\n      add\n      0x5472616e73616374696f6e2072657665727465642073696c656e746c79000000\n      dup2\n      mstore\n      pop\n      swap1\n      pop\n      jump(tag_62)\n        /* \"contracts/Library.sol\":293:360  if (_returnData.length < 68) return 'Transaction reverted silently' */\n    tag_63:\n        /* \"contracts/Library.sol\":464:468  0x04 */\n      0x04\n        /* \"contracts/Library.sol\":451:462  _returnData */\n      dup3\n        /* \"contracts/Library.sol\":447:469  add(_returnData, 0x04) */\n      add\n        /* \"contracts/Library.sol\":432:469  _returnData := add(_returnData, 0x04) */\n      swap2\n      pop\n        /* \"contracts/Library.sol\":508:519  _returnData */\n      dup2\n        /* \"contracts/Library.sol\":497:530  abi.decode(_returnData, (string)) */\n      dup1\n      0x20\n      add\n      swap1\n      mload\n      dup2\n      add\n      swap1\n      tag_64\n      swap2\n      swap1\n      tag_65\n      jump\t// in\n    tag_64:\n        /* \"contracts/Library.sol\":490:530  return abi.decode(_returnData, (string)) */\n      swap1\n      pop\n        /* \"contracts/Library.sol\":83:579  function _getRevertMsg(bytes memory _returnData) internal pure returns (string memory) {... */\n    tag_62:\n      swap2\n      swap1\n      pop\n      jump\t// out\n        /* \"#utility.yul\":7:82   */\n    tag_66:\n        /* \"#utility.yul\":40:46   */\n      0x00\n        /* \"#utility.yul\":73:75   */\n      0x40\n        /* \"#utility.yul\":67:76   */\n      mload\n        /* \"#utility.yul\":57:76   */\n      swap1\n      pop\n        /* \"#utility.yul\":7:82   */\n      swap1\n      jump\t// out\n        /* \"#utility.yul\":88:205   */\n    tag_67:\n        /* \"#utility.yul\":197:198   */\n      0x00\n        /* \"#utility.yul\":194:195   */\n      dup1\n        /* \"#utility.yul\":187:199   */\n      revert\n        /* \"#utility.yul\":211:328   */\n    tag_68:\n        /* \"#utility.yul\":320:321   */\n      0x00\n        /* \"#utility.yul\":317:318   */\n      dup1\n        /* \"#utility.yul\":310:322   */\n      revert\n        /* \"#utility.yul\":334:460   */\n    tag_69:\n        /* \"#utility.yul\":371:378   */\n      0x00\n        /* \"#utility.yul\":411:453   */\n      0xffffffffffffffffffffffffffffffffffffffff\n        /* \"#utility.yul\":404:409   */\n      dup3\n        /* \"#utility.yul\":400:454   */\n      and\n        /* \"#utility.yul\":389:454   */\n      swap1\n      pop\n        /* \"#utility.yul\":334:460   */\n      swap2\n      swap1\n      pop\n      jump\t// out\n        /* \"#utility.yul\":466:562   */\n    tag_70:\n        /* \"#utility.yul\":503:510   */\n      0x00\n        /* \"#utility.yul\":532:556   */\n      tag_111\n        /* \"#utility.yul\":550:555   */\n      dup3\n        /* \"#utility.yul\":532:556   */\n      tag_69\n      jump\t// in\n    tag_111:\n        /* \"#utility.yul\":521:556   */\n      swap1\n      pop\n        /* \"#utility.yul\":466:562   */\n      swap2\n      swap1\n      pop\n      jump\t// out\n        /* \"#utility.yul\":568:690   */\n    tag_71:\n        /* \"#utility.yul\":641:665   */\n      tag_113\n        /* \"#utility.yul\":659:664   */\n      dup2\n        /* \"#utility.yul\":641:665   */\n      tag_70\n      jump\t// in\n    tag_113:\n        /* \"#utility.yul\":634:639   */\n      dup2\n        /* \"#utility.yul\":631:666   */\n      eq\n        /* \"#utility.yul\":621:684   */\n      tag_114\n      jumpi\n        /* \"#utility.yul\":680:681   */\n      0x00\n        /* \"#utility.yul\":677:678   */\n      dup1\n        /* \"#utility.yul\":670:682   */\n      revert\n        /* \"#utility.yul\":621:684   */\n    tag_114:\n        /* \"#utility.yul\":568:690   */\n      pop\n      jump\t// out\n        /* \"#utility.yul\":696:835   */\n    tag_72:\n        /* \"#utility.yul\":742:747   */\n      0x00\n        /* \"#utility.yul\":780:786   */\n      dup2\n        /* \"#utility.yul\":767:787   */\n      calldataload\n        /* \"#utility.yul\":758:787   */\n      swap1\n      pop\n        /* \"#utility.yul\":796:829   */\n      tag_116\n        /* \"#utility.yul\":823:828   */\n      dup2\n        /* \"#utility.yul\":796:829   */\n      tag_71\n      jump\t// in\n    tag_116:\n        /* \"#utility.yul\":696:835   */\n      swap3\n      swap2\n      pop\n      pop\n      jump\t// out\n        /* \"#utility.yul\":841:1170   */\n    tag_8:\n        /* \"#utility.yul\":900:906   */\n      0x00\n        /* \"#utility.yul\":949:951   */\n      0x20\n        /* \"#utility.yul\":937:946   */\n      dup3\n        /* \"#utility.yul\":928:935   */\n      dup5\n        /* \"#utility.yul\":924:947   */\n      sub\n        /* \"#utility.yul\":920:952   */\n      slt\n        /* \"#utility.yul\":917:1036   */\n      iszero\n      tag_118\n      jumpi\n        /* \"#utility.yul\":955:1034   */\n      tag_119\n      tag_67\n      jump\t// in\n    tag_119:\n        /* \"#utility.yul\":917:1036   */\n    tag_118:\n        /* \"#utility.yul\":1075:1076   */\n      0x00\n        /* \"#utility.yul\":1100:1153   */\n      tag_120\n        /* \"#utility.yul\":1145:1152   */\n      dup5\n        /* \"#utility.yul\":1136:1142   */\n      dup3\n        /* \"#utility.yul\":1125:1134   */\n      dup6\n        /* \"#utility.yul\":1121:1143   */\n      add\n        /* \"#utility.yul\":1100:1153   */\n      tag_72\n      jump\t// in\n    tag_120:\n        /* \"#utility.yul\":1090:1153   */\n      swap2\n      pop\n        /* \"#utility.yul\":1046:1163   */\n      pop\n        /* \"#utility.yul\":841:1170   */\n      swap3\n      swap2\n      pop\n      pop\n      jump\t// out\n        /* \"#utility.yul\":1176:1253   */\n    tag_73:\n        /* \"#utility.yul\":1213:1220   */\n      0x00\n        /* \"#utility.yul\":1242:1247   */\n      dup2\n        /* \"#utility.yul\":1231:1247   */\n      swap1\n      pop\n        /* \"#utility.yul\":1176:1253   */\n      swap2\n      swap1\n      pop\n      jump\t// out\n        /* \"#utility.yul\":1259:1377   */\n    tag_74:\n        /* \"#utility.yul\":1346:1370   */\n      tag_123\n        /* \"#utility.yul\":1364:1369   */\n      dup2\n        /* \"#utility.yul\":1346:1370   */\n      tag_73\n      jump\t// in\n    tag_123:\n        /* \"#utility.yul\":1341:1344   */\n      dup3\n        /* \"#utility.yul\":1334:1371   */\n      mstore\n        /* \"#utility.yul\":1259:1377   */\n      pop\n      pop\n      jump\t// out\n        /* \"#utility.yul\":1383:1605   */\n    tag_11:\n        /* \"#utility.yul\":1476:1480   */\n      0x00\n        /* \"#utility.yul\":1514:1516   */\n      0x20\n        /* \"#utility.yul\":1503:1512   */\n      dup3\n        /* \"#utility.yul\":1499:1517   */\n      add\n        /* \"#utility.yul\":1491:1517   */\n      swap1\n      pop\n        /* \"#utility.yul\":1527:1598   */\n      tag_125\n        /* \"#utility.yul\":1595:1596   */\n      0x00\n        /* \"#utility.yul\":1584:1593   */\n      dup4\n        /* \"#utility.yul\":1580:1597   */\n      add\n        /* \"#utility.yul\":1571:1577   */\n      dup5\n        /* \"#utility.yul\":1527:1598   */\n      tag_74\n      jump\t// in\n    tag_125:\n        /* \"#utility.yul\":1383:1605   */\n      swap3\n      swap2\n      pop\n      pop\n      jump\t// out\n        /* \"#utility.yul\":1611:1733   */\n    tag_75:\n        /* \"#utility.yul\":1684:1708   */\n      tag_127\n        /* \"#utility.yul\":1702:1707   */\n      dup2\n        /* \"#utility.yul\":1684:1708   */\n      tag_73\n      jump\t// in\n    tag_127:\n        /* \"#utility.yul\":1677:1682   */\n      dup2\n        /* \"#utility.yul\":1674:1709   */\n      eq\n        /* \"#utility.yul\":1664:1727   */\n      tag_128\n      jumpi\n        /* \"#utility.yul\":1723:1724   */\n      0x00\n        /* \"#utility.yul\":1720:1721   */\n      dup1\n        /* \"#utility.yul\":1713:1725   */\n      revert\n        /* \"#utility.yul\":1664:1727   */\n    tag_128:\n        /* \"#utility.yul\":1611:1733   */\n      pop\n      jump\t// out\n        /* \"#utility.yul\":1739:1878   */\n    tag_76:\n        /* \"#utility.yul\":1785:1790   */\n      0x00\n        /* \"#utility.yul\":1823:1829   */\n      dup2\n        /* \"#utility.yul\":1810:1830   */\n      calldataload\n        /* \"#utility.yul\":1801:1830   */\n      swap1\n      pop\n        /* \"#utility.yul\":1839:1872   */\n      tag_130\n        /* \"#utility.yul\":1866:1871   */\n      dup2\n        /* \"#utility.yul\":1839:1872   */\n      tag_75\n      jump\t// in\n    tag_130:\n        /* \"#utility.yul\":1739:1878   */\n      swap3\n      swap2\n      pop\n      pop\n      jump\t// out\n        /* \"#utility.yul\":1884:2358   */\n    tag_14:\n        /* \"#utility.yul\":1952:1958   */\n      0x00\n        /* \"#utility.yul\":1960:1966   */\n      dup1\n        /* \"#utility.yul\":2009:2011   */\n      0x40\n        /* \"#utility.yul\":1997:2006   */\n      dup4\n        /* \"#utility.yul\":1988:1995   */\n      dup6\n        /* \"#utility.yul\":1984:2007   */\n      sub\n        /* \"#utility.yul\":1980:2012   */\n      slt\n        /* \"#utility.yul\":1977:2096   */\n      iszero\n      tag_132\n      jumpi\n        /* \"#utility.yul\":2015:2094   */\n      tag_133\n      tag_67\n      jump\t// in\n    tag_133:\n        /* \"#utility.yul\":1977:2096   */\n    tag_132:\n        /* \"#utility.yul\":2135:2136   */\n      0x00\n        /* \"#utility.yul\":2160:2213   */\n      tag_134\n        /* \"#utility.yul\":2205:2212   */\n      dup6\n        /* \"#utility.yul\":2196:2202   */\n      dup3\n        /* \"#utility.yul\":2185:2194   */\n      dup7\n        /* \"#utility.yul\":2181:2203   */\n      add\n        /* \"#utility.yul\":2160:2213   */\n      tag_72\n      jump\t// in\n    tag_134:\n        /* \"#utility.yul\":2150:2213   */\n      swap3\n      pop\n        /* \"#utility.yul\":2106:2223   */\n      pop\n        /* \"#utility.yul\":2262:2264   */\n      0x20\n        /* \"#utility.yul\":2288:2341   */\n      tag_135\n        /* \"#utility.yul\":2333:2340   */\n      dup6\n        /* \"#utility.yul\":2324:2330   */\n      dup3\n        /* \"#utility.yul\":2313:2322   */\n      dup7\n        /* \"#utility.yul\":2309:2331   */\n      add\n        /* \"#utility.yul\":2288:2341   */\n      tag_76\n      jump\t// in\n    tag_135:\n        /* \"#utility.yul\":2278:2341   */\n      swap2\n      pop\n        /* \"#utility.yul\":2233:2351   */\n      pop\n        /* \"#utility.yul\":1884:2358   */\n      swap3\n      pop\n      swap3\n      swap1\n      pop\n      jump\t// out\n        /* \"#utility.yul\":2364:2513   */\n    tag_77:\n        /* \"#utility.yul\":2400:2407   */\n      0x00\n        /* \"#utility.yul\":2440:2506   */\n      0xffffffff00000000000000000000000000000000000000000000000000000000\n        /* \"#utility.yul\":2433:2438   */\n      dup3\n        /* \"#utility.yul\":2429:2507   */\n      and\n        /* \"#utility.yul\":2418:2507   */\n      swap1\n      pop\n        /* \"#utility.yul\":2364:2513   */\n      swap2\n      swap1\n      pop\n      jump\t// out\n        /* \"#utility.yul\":2519:2597   */\n    tag_78:\n        /* \"#utility.yul\":2557:2564   */\n      0x00\n        /* \"#utility.yul\":2586:2591   */\n      dup2\n        /* \"#utility.yul\":2575:2591   */\n      swap1\n      pop\n        /* \"#utility.yul\":2519:2597   */\n      swap2\n      swap1\n      pop\n      jump\t// out\n        /* \"#utility.yul\":2603:2756   */\n    tag_79:\n        /* \"#utility.yul\":2706:2749   */\n      tag_139\n        /* \"#utility.yul\":2725:2748   */\n      tag_140\n        /* \"#utility.yul\":2742:2747   */\n      dup3\n        /* \"#utility.yul\":2725:2748   */\n      tag_77\n      jump\t// in\n    tag_140:\n        /* \"#utility.yul\":2706:2749   */\n      tag_78\n      jump\t// in\n    tag_139:\n        /* \"#utility.yul\":2701:2704   */\n      dup3\n        /* \"#utility.yul\":2694:2750   */\n      mstore\n        /* \"#utility.yul\":2603:2756   */\n      pop\n      pop\n      jump\t// out\n        /* \"#utility.yul\":2762:3013   */\n    tag_22:\n        /* \"#utility.yul\":2872:2875   */\n      0x00\n        /* \"#utility.yul\":2887:2960   */\n      tag_142\n        /* \"#utility.yul\":2956:2959   */\n      dup3\n        /* \"#utility.yul\":2947:2953   */\n      dup5\n        /* \"#utility.yul\":2887:2960   */\n      tag_79\n      jump\t// in\n    tag_142:\n        /* \"#utility.yul\":2985:2986   */\n      0x04\n        /* \"#utility.yul\":2980:2983   */\n      dup3\n        /* \"#utility.yul\":2976:2987   */\n      add\n        /* \"#utility.yul\":2969:2987   */\n      swap2\n      pop\n        /* \"#utility.yul\":3004:3007   */\n      dup2\n        /* \"#utility.yul\":2997:3007   */\n      swap1\n      pop\n        /* \"#utility.yul\":2762:3013   */\n      swap3\n      swap2\n      pop\n      pop\n      jump\t// out\n        /* \"#utility.yul\":3019:3117   */\n    tag_80:\n        /* \"#utility.yul\":3070:3076   */\n      0x00\n        /* \"#utility.yul\":3104:3109   */\n      dup2\n        /* \"#utility.yul\":3098:3110   */\n      mload\n        /* \"#utility.yul\":3088:3110   */\n      swap1\n      pop\n        /* \"#utility.yul\":3019:3117   */\n      swap2\n      swap1\n      pop\n      jump\t// out\n        /* \"#utility.yul\":3123:3270   */\n    tag_81:\n        /* \"#utility.yul\":3224:3235   */\n      0x00\n        /* \"#utility.yul\":3261:3264   */\n      dup2\n        /* \"#utility.yul\":3246:3264   */\n      swap1\n      pop\n        /* \"#utility.yul\":3123:3270   */\n      swap3\n      swap2\n      pop\n      pop\n      jump\t// out\n        /* \"#utility.yul\":3276:3583   */\n    tag_82:\n        /* \"#utility.yul\":3344:3345   */\n      0x00\n        /* \"#utility.yul\":3354:3467   */\n    tag_146:\n        /* \"#utility.yul\":3368:3374   */\n      dup4\n        /* \"#utility.yul\":3365:3366   */\n      dup2\n        /* \"#utility.yul\":3362:3375   */\n      lt\n        /* \"#utility.yul\":3354:3467   */\n      iszero\n      tag_148\n      jumpi\n        /* \"#utility.yul\":3453:3454   */\n      dup1\n        /* \"#utility.yul\":3448:3451   */\n      dup3\n        /* \"#utility.yul\":3444:3455   */\n      add\n        /* \"#utility.yul\":3438:3456   */\n      mload\n        /* \"#utility.yul\":3434:3435   */\n      dup2\n        /* \"#utility.yul\":3429:3432   */\n      dup5\n        /* \"#utility.yul\":3425:3436   */\n      add\n        /* \"#utility.yul\":3418:3457   */\n      mstore\n        /* \"#utility.yul\":3390:3392   */\n      0x20\n        /* \"#utility.yul\":3387:3388   */\n      dup2\n        /* \"#utility.yul\":3383:3393   */\n      add\n        /* \"#utility.yul\":3378:3393   */\n      swap1\n      pop\n        /* \"#utility.yul\":3354:3467   */\n      jump(tag_146)\n    tag_148:\n        /* \"#utility.yul\":3485:3491   */\n      dup4\n        /* \"#utility.yul\":3482:3483   */\n      dup2\n        /* \"#utility.yul\":3479:3492   */\n      gt\n        /* \"#utility.yul\":3476:3577   */\n      iszero\n      tag_149\n      jumpi\n        /* \"#utility.yul\":3565:3566   */\n      0x00\n        /* \"#utility.yul\":3556:3562   */\n      dup5\n        /* \"#utility.yul\":3551:3554   */\n      dup5\n        /* \"#utility.yul\":3547:3563   */\n      add\n        /* \"#utility.yul\":3540:3567   */\n      mstore\n        /* \"#utility.yul\":3476:3577   */\n    tag_149:\n        /* \"#utility.yul\":3325:3583   */\n      pop\n        /* \"#utility.yul\":3276:3583   */\n      pop\n      pop\n      pop\n      jump\t// out\n        /* \"#utility.yul\":3589:3962   */\n    tag_83:\n        /* \"#utility.yul\":3693:3696   */\n      0x00\n        /* \"#utility.yul\":3721:3759   */\n      tag_151\n        /* \"#utility.yul\":3753:3758   */\n      dup3\n        /* \"#utility.yul\":3721:3759   */\n      tag_80\n      jump\t// in\n    tag_151:\n        /* \"#utility.yul\":3775:3863   */\n      tag_152\n        /* \"#utility.yul\":3856:3862   */\n      dup2\n        /* \"#utility.yul\":3851:3854   */\n      dup6\n        /* \"#utility.yul\":3775:3863   */\n      tag_81\n      jump\t// in\n    tag_152:\n        /* \"#utility.yul\":3768:3863   */\n      swap4\n      pop\n        /* \"#utility.yul\":3872:3924   */\n      tag_153\n        /* \"#utility.yul\":3917:3923   */\n      dup2\n        /* \"#utility.yul\":3912:3915   */\n      dup6\n        /* \"#utility.yul\":3905:3909   */\n      0x20\n        /* \"#utility.yul\":3898:3903   */\n      dup7\n        /* \"#utility.yul\":3894:3910   */\n      add\n        /* \"#utility.yul\":3872:3924   */\n      tag_82\n      jump\t// in\n    tag_153:\n        /* \"#utility.yul\":3949:3955   */\n      dup1\n        /* \"#utility.yul\":3944:3947   */\n      dup5\n        /* \"#utility.yul\":3940:3956   */\n      add\n        /* \"#utility.yul\":3933:3956   */\n      swap2\n      pop\n        /* \"#utility.yul\":3697:3962   */\n      pop\n        /* \"#utility.yul\":3589:3962   */\n      swap3\n      swap2\n      pop\n      pop\n      jump\t// out\n        /* \"#utility.yul\":3968:4239   */\n    tag_24:\n        /* \"#utility.yul\":4098:4101   */\n      0x00\n        /* \"#utility.yul\":4120:4213   */\n      tag_155\n        /* \"#utility.yul\":4209:4212   */\n      dup3\n        /* \"#utility.yul\":4200:4206   */\n      dup5\n        /* \"#utility.yul\":4120:4213   */\n      tag_83\n      jump\t// in\n    tag_155:\n        /* \"#utility.yul\":4113:4213   */\n      swap2\n      pop\n        /* \"#utility.yul\":4230:4233   */\n      dup2\n        /* \"#utility.yul\":4223:4233   */\n      swap1\n      pop\n        /* \"#utility.yul\":3968:4239   */\n      swap3\n      swap2\n      pop\n      pop\n      jump\t// out\n        /* \"#utility.yul\":4245:4414   */\n    tag_84:\n        /* \"#utility.yul\":4329:4340   */\n      0x00\n        /* \"#utility.yul\":4363:4369   */\n      dup3\n        /* \"#utility.yul\":4358:4361   */\n      dup3\n        /* \"#utility.yul\":4351:4370   */\n      mstore\n        /* \"#utility.yul\":4403:4407   */\n      0x20\n        /* \"#utility.yul\":4398:4401   */\n      dup3\n        /* \"#utility.yul\":4394:4408   */\n      add\n        /* \"#utility.yul\":4379:4408   */\n      swap1\n      pop\n        /* \"#utility.yul\":4245:4414   */\n      swap3\n      swap2\n      pop\n      pop\n      jump\t// out\n        /* \"#utility.yul\":4420:4581   */\n    tag_85:\n        /* \"#utility.yul\":4560:4573   */\n      0x63616c6c206661696c6564000000000000000000000000000000000000000000\n        /* \"#utility.yul\":4556:4557   */\n      0x00\n        /* \"#utility.yul\":4548:4554   */\n      dup3\n        /* \"#utility.yul\":4544:4558   */\n      add\n        /* \"#utility.yul\":4537:4574   */\n      mstore\n        /* \"#utility.yul\":4420:4581   */\n      pop\n      jump\t// out\n        /* \"#utility.yul\":4587:4953   */\n    tag_86:\n        /* \"#utility.yul\":4729:4732   */\n      0x00\n        /* \"#utility.yul\":4750:4817   */\n      tag_159\n        /* \"#utility.yul\":4814:4816   */\n      0x0b\n        /* \"#utility.yul\":4809:4812   */\n      dup4\n        /* \"#utility.yul\":4750:4817   */\n      tag_84\n      jump\t// in\n    tag_159:\n        /* \"#utility.yul\":4743:4817   */\n      swap2\n      pop\n        /* \"#utility.yul\":4826:4919   */\n      tag_160\n        /* \"#utility.yul\":4915:4918   */\n      dup3\n        /* \"#utility.yul\":4826:4919   */\n      tag_85\n      jump\t// in\n    tag_160:\n        /* \"#utility.yul\":4944:4946   */\n      0x20\n        /* \"#utility.yul\":4939:4942   */\n      dup3\n        /* \"#utility.yul\":4935:4947   */\n      add\n        /* \"#utility.yul\":4928:4947   */\n      swap1\n      pop\n        /* \"#utility.yul\":4587:4953   */\n      swap2\n      swap1\n      pop\n      jump\t// out\n        /* \"#utility.yul\":4959:5378   */\n    tag_30:\n        /* \"#utility.yul\":5125:5129   */\n      0x00\n        /* \"#utility.yul\":5163:5165   */\n      0x20\n        /* \"#utility.yul\":5152:5161   */\n      dup3\n        /* \"#utility.yul\":5148:5166   */\n      add\n        /* \"#utility.yul\":5140:5166   */\n      swap1\n      pop\n        /* \"#utility.yul\":5212:5221   */\n      dup2\n        /* \"#utility.yul\":5206:5210   */\n      dup2\n        /* \"#utility.yul\":5202:5222   */\n      sub\n        /* \"#utility.yul\":5198:5199   */\n      0x00\n        /* \"#utility.yul\":5187:5196   */\n      dup4\n        /* \"#utility.yul\":5183:5200   */\n      add\n        /* \"#utility.yul\":5176:5223   */\n      mstore\n        /* \"#utility.yul\":5240:5371   */\n      tag_162\n        /* \"#utility.yul\":5366:5370   */\n      dup2\n        /* \"#utility.yul\":5240:5371   */\n      tag_86\n      jump\t// in\n    tag_162:\n        /* \"#utility.yul\":5232:5371   */\n      swap1\n      pop\n        /* \"#utility.yul\":4959:5378   */\n      swap2\n      swap1\n      pop\n      jump\t// out\n        /* \"#utility.yul\":5384:5560   */\n    tag_87:\n        /* \"#utility.yul\":5475:5486   */\n      0x00\n        /* \"#utility.yul\":5509:5515   */\n      dup3\n        /* \"#utility.yul\":5504:5507   */\n      dup3\n        /* \"#utility.yul\":5497:5516   */\n      mstore\n        /* \"#utility.yul\":5549:5553   */\n      0x20\n        /* \"#utility.yul\":5544:5547   */\n      dup3\n        /* \"#utility.yul\":5540:5554   */\n      add\n        /* \"#utility.yul\":5525:5554   */\n      swap1\n      pop\n        /* \"#utility.yul\":5384:5560   */\n      swap3\n      swap2\n      pop\n      pop\n      jump\t// out\n        /* \"#utility.yul\":5566:5668   */\n    tag_88:\n        /* \"#utility.yul\":5607:5613   */\n      0x00\n        /* \"#utility.yul\":5658:5660   */\n      0x1f\n        /* \"#utility.yul\":5654:5661   */\n      not\n        /* \"#utility.yul\":5649:5651   */\n      0x1f\n        /* \"#utility.yul\":5642:5647   */\n      dup4\n        /* \"#utility.yul\":5638:5652   */\n      add\n        /* \"#utility.yul\":5634:5662   */\n      and\n        /* \"#utility.yul\":5624:5662   */\n      swap1\n      pop\n        /* \"#utility.yul\":5566:5668   */\n      swap2\n      swap1\n      pop\n      jump\t// out\n        /* \"#utility.yul\":5674:6050   */\n    tag_89:\n        /* \"#utility.yul\":5768:5771   */\n      0x00\n        /* \"#utility.yul\":5796:5834   */\n      tag_166\n        /* \"#utility.yul\":5828:5833   */\n      dup3\n        /* \"#utility.yul\":5796:5834   */\n      tag_80\n      jump\t// in\n    tag_166:\n        /* \"#utility.yul\":5850:5928   */\n      tag_167\n        /* \"#utility.yul\":5921:5927   */\n      dup2\n        /* \"#utility.yul\":5916:5919   */\n      dup6\n        /* \"#utility.yul\":5850:5928   */\n      tag_87\n      jump\t// in\n    tag_167:\n        /* \"#utility.yul\":5843:5928   */\n      swap4\n      pop\n        /* \"#utility.yul\":5937:5989   */\n      tag_168\n        /* \"#utility.yul\":5982:5988   */\n      dup2\n        /* \"#utility.yul\":5977:5980   */\n      dup6\n        /* \"#utility.yul\":5970:5974   */\n      0x20\n        /* \"#utility.yul\":5963:5968   */\n      dup7\n        /* \"#utility.yul\":5959:5975   */\n      add\n        /* \"#utility.yul\":5937:5989   */\n      tag_82\n      jump\t// in\n    tag_168:\n        /* \"#utility.yul\":6014:6043   */\n      tag_169\n        /* \"#utility.yul\":6036:6042   */\n      dup2\n        /* \"#utility.yul\":6014:6043   */\n      tag_88\n      jump\t// in\n    tag_169:\n        /* \"#utility.yul\":6009:6012   */\n      dup5\n        /* \"#utility.yul\":6005:6044   */\n      add\n        /* \"#utility.yul\":5998:6044   */\n      swap2\n      pop\n        /* \"#utility.yul\":5772:6050   */\n      pop\n        /* \"#utility.yul\":5674:6050   */\n      swap3\n      swap2\n      pop\n      pop\n      jump\t// out\n        /* \"#utility.yul\":6056:6381   */\n    tag_32:\n        /* \"#utility.yul\":6175:6179   */\n      0x00\n        /* \"#utility.yul\":6213:6215   */\n      0x20\n        /* \"#utility.yul\":6202:6211   */\n      dup3\n        /* \"#utility.yul\":6198:6216   */\n      add\n        /* \"#utility.yul\":6190:6216   */\n      swap1\n      pop\n        /* \"#utility.yul\":6262:6271   */\n      dup2\n        /* \"#utility.yul\":6256:6260   */\n      dup2\n        /* \"#utility.yul\":6252:6272   */\n      sub\n        /* \"#utility.yul\":6248:6249   */\n      0x00\n        /* \"#utility.yul\":6237:6246   */\n      dup4\n        /* \"#utility.yul\":6233:6250   */\n      add\n        /* \"#utility.yul\":6226:6273   */\n      mstore\n        /* \"#utility.yul\":6290:6374   */\n      tag_171\n        /* \"#utility.yul\":6369:6373   */\n      dup2\n        /* \"#utility.yul\":6360:6366   */\n      dup5\n        /* \"#utility.yul\":6290:6374   */\n      tag_89\n      jump\t// in\n    tag_171:\n        /* \"#utility.yul\":6282:6374   */\n      swap1\n      pop\n        /* \"#utility.yul\":6056:6381   */\n      swap3\n      swap2\n      pop\n      pop\n      jump\t// out\n        /* \"#utility.yul\":6387:6464   */\n    tag_90:\n        /* \"#utility.yul\":6424:6431   */\n      0x00\n        /* \"#utility.yul\":6453:6458   */\n      dup2\n        /* \"#utility.yul\":6442:6458   */\n      swap1\n      pop\n        /* \"#utility.yul\":6387:6464   */\n      swap2\n      swap1\n      pop\n      jump\t// out\n        /* \"#utility.yul\":6470:6592   */\n    tag_91:\n        /* \"#utility.yul\":6543:6567   */\n      tag_174\n        /* \"#utility.yul\":6561:6566   */\n      dup2\n        /* \"#utility.yul\":6543:6567   */\n      tag_90\n      jump\t// in\n    tag_174:\n        /* \"#utility.yul\":6536:6541   */\n      dup2\n        /* \"#utility.yul\":6533:6568   */\n      eq\n        /* \"#utility.yul\":6523:6586   */\n      tag_175\n      jumpi\n        /* \"#utility.yul\":6582:6583   */\n      0x00\n        /* \"#utility.yul\":6579:6580   */\n      dup1\n        /* \"#utility.yul\":6572:6584   */\n      revert\n        /* \"#utility.yul\":6523:6586   */\n    tag_175:\n        /* \"#utility.yul\":6470:6592   */\n      pop\n      jump\t// out\n        /* \"#utility.yul\":6598:6741   */\n    tag_92:\n        /* \"#utility.yul\":6655:6660   */\n      0x00\n        /* \"#utility.yul\":6686:6692   */\n      dup2\n        /* \"#utility.yul\":6680:6693   */\n      mload\n        /* \"#utility.yul\":6671:6693   */\n      swap1\n      pop\n        /* \"#utility.yul\":6702:6735   */\n      tag_177\n        /* \"#utility.yul\":6729:6734   */\n      dup2\n        /* \"#utility.yul\":6702:6735   */\n      tag_91\n      jump\t// in\n    tag_177:\n        /* \"#utility.yul\":6598:6741   */\n      swap3\n      swap2\n      pop\n      pop\n      jump\t// out\n        /* \"#utility.yul\":6747:7098   */\n    tag_36:\n        /* \"#utility.yul\":6817:6823   */\n      0x00\n        /* \"#utility.yul\":6866:6868   */\n      0x20\n        /* \"#utility.yul\":6854:6863   */\n      dup3\n        /* \"#utility.yul\":6845:6852   */\n      dup5\n        /* \"#utility.yul\":6841:6864   */\n      sub\n        /* \"#utility.yul\":6837:6869   */\n      slt\n        /* \"#utility.yul\":6834:6953   */\n      iszero\n      tag_179\n      jumpi\n        /* \"#utility.yul\":6872:6951   */\n      tag_180\n      tag_67\n      jump\t// in\n    tag_180:\n        /* \"#utility.yul\":6834:6953   */\n    tag_179:\n        /* \"#utility.yul\":6992:6993   */\n      0x00\n        /* \"#utility.yul\":7017:7081   */\n      tag_181\n        /* \"#utility.yul\":7073:7080   */\n      dup5\n        /* \"#utility.yul\":7064:7070   */\n      dup3\n        /* \"#utility.yul\":7053:7062   */\n      dup6\n        /* \"#utility.yul\":7049:7071   */\n      add\n        /* \"#utility.yul\":7017:7081   */\n      tag_92\n      jump\t// in\n    tag_181:\n        /* \"#utility.yul\":7007:7081   */\n      swap2\n      pop\n        /* \"#utility.yul\":6963:7091   */\n      pop\n        /* \"#utility.yul\":6747:7098   */\n      swap3\n      swap2\n      pop\n      pop\n      jump\t// out\n        /* \"#utility.yul\":7104:7183   */\n    tag_93:\n        /* \"#utility.yul\":7143:7150   */\n      0x00\n        /* \"#utility.yul\":7172:7177   */\n      dup2\n        /* \"#utility.yul\":7161:7177   */\n      swap1\n      pop\n        /* \"#utility.yul\":7104:7183   */\n      swap2\n      swap1\n      pop\n      jump\t// out\n        /* \"#utility.yul\":7189:7346   */\n    tag_94:\n        /* \"#utility.yul\":7294:7339   */\n      tag_184\n        /* \"#utility.yul\":7314:7338   */\n      tag_185\n        /* \"#utility.yul\":7332:7337   */\n      dup3\n        /* \"#utility.yul\":7314:7338   */\n      tag_73\n      jump\t// in\n    tag_185:\n        /* \"#utility.yul\":7294:7339   */\n      tag_93\n      jump\t// in\n    tag_184:\n        /* \"#utility.yul\":7289:7292   */\n      dup3\n        /* \"#utility.yul\":7282:7340   */\n      mstore\n        /* \"#utility.yul\":7189:7346   */\n      pop\n      pop\n      jump\t// out\n        /* \"#utility.yul\":7352:7744   */\n    tag_39:\n        /* \"#utility.yul\":7490:7493   */\n      0x00\n        /* \"#utility.yul\":7505:7578   */\n      tag_187\n        /* \"#utility.yul\":7574:7577   */\n      dup3\n        /* \"#utility.yul\":7565:7571   */\n      dup6\n        /* \"#utility.yul\":7505:7578   */\n      tag_79\n      jump\t// in\n    tag_187:\n        /* \"#utility.yul\":7603:7604   */\n      0x04\n        /* \"#utility.yul\":7598:7601   */\n      dup3\n        /* \"#utility.yul\":7594:7605   */\n      add\n        /* \"#utility.yul\":7587:7605   */\n      swap2\n      pop\n        /* \"#utility.yul\":7615:7690   */\n      tag_188\n        /* \"#utility.yul\":7686:7689   */\n      dup3\n        /* \"#utility.yul\":7677:7683   */\n      dup5\n        /* \"#utility.yul\":7615:7690   */\n      tag_94\n      jump\t// in\n    tag_188:\n        /* \"#utility.yul\":7715:7717   */\n      0x20\n        /* \"#utility.yul\":7710:7713   */\n      dup3\n        /* \"#utility.yul\":7706:7718   */\n      add\n        /* \"#utility.yul\":7699:7718   */\n      swap2\n      pop\n        /* \"#utility.yul\":7735:7738   */\n      dup2\n        /* \"#utility.yul\":7728:7738   */\n      swap1\n      pop\n        /* \"#utility.yul\":7352:7744   */\n      swap4\n      swap3\n      pop\n      pop\n      pop\n      jump\t// out\n        /* \"#utility.yul\":7750:7849   */\n    tag_95:\n        /* \"#utility.yul\":7802:7808   */\n      0x00\n        /* \"#utility.yul\":7836:7841   */\n      dup2\n        /* \"#utility.yul\":7830:7842   */\n      mload\n        /* \"#utility.yul\":7820:7842   */\n      swap1\n      pop\n        /* \"#utility.yul\":7750:7849   */\n      swap2\n      swap1\n      pop\n      jump\t// out\n        /* \"#utility.yul\":7855:8219   */\n    tag_96:\n        /* \"#utility.yul\":7943:7946   */\n      0x00\n        /* \"#utility.yul\":7971:8010   */\n      tag_191\n        /* \"#utility.yul\":8004:8009   */\n      dup3\n        /* \"#utility.yul\":7971:8010   */\n      tag_95\n      jump\t// in\n    tag_191:\n        /* \"#utility.yul\":8026:8097   */\n      tag_192\n        /* \"#utility.yul\":8090:8096   */\n      dup2\n        /* \"#utility.yul\":8085:8088   */\n      dup6\n        /* \"#utility.yul\":8026:8097   */\n      tag_84\n      jump\t// in\n    tag_192:\n        /* \"#utility.yul\":8019:8097   */\n      swap4\n      pop\n        /* \"#utility.yul\":8106:8158   */\n      tag_193\n        /* \"#utility.yul\":8151:8157   */\n      dup2\n        /* \"#utility.yul\":8146:8149   */\n      dup6\n        /* \"#utility.yul\":8139:8143   */\n      0x20\n        /* \"#utility.yul\":8132:8137   */\n      dup7\n        /* \"#utility.yul\":8128:8144   */\n      add\n        /* \"#utility.yul\":8106:8158   */\n      tag_82\n      jump\t// in\n    tag_193:\n        /* \"#utility.yul\":8183:8212   */\n      tag_194\n        /* \"#utility.yul\":8205:8211   */\n      dup2\n        /* \"#utility.yul\":8183:8212   */\n      tag_88\n      jump\t// in\n    tag_194:\n        /* \"#utility.yul\":8178:8181   */\n      dup5\n        /* \"#utility.yul\":8174:8213   */\n      add\n        /* \"#utility.yul\":8167:8213   */\n      swap2\n      pop\n        /* \"#utility.yul\":7947:8219   */\n      pop\n        /* \"#utility.yul\":7855:8219   */\n      swap3\n      swap2\n      pop\n      pop\n      jump\t// out\n        /* \"#utility.yul\":8225:8538   */\n    tag_49:\n        /* \"#utility.yul\":8338:8342   */\n      0x00\n        /* \"#utility.yul\":8376:8378   */\n      0x20\n        /* \"#utility.yul\":8365:8374   */\n      dup3\n        /* \"#utility.yul\":8361:8379   */\n      add\n        /* \"#utility.yul\":8353:8379   */\n      swap1\n      pop\n        /* \"#utility.yul\":8425:8434   */\n      dup2\n        /* \"#utility.yul\":8419:8423   */\n      dup2\n        /* \"#utility.yul\":8415:8435   */\n      sub\n        /* \"#utility.yul\":8411:8412   */\n      0x00\n        /* \"#utility.yul\":8400:8409   */\n      dup4\n        /* \"#utility.yul\":8396:8413   */\n      add\n        /* \"#utility.yul\":8389:8436   */\n      mstore\n        /* \"#utility.yul\":8453:8531   */\n      tag_196\n        /* \"#utility.yul\":8526:8530   */\n      dup2\n        /* \"#utility.yul\":8517:8523   */\n      dup5\n        /* \"#utility.yul\":8453:8531   */\n      tag_96\n      jump\t// in\n    tag_196:\n        /* \"#utility.yul\":8445:8531   */\n      swap1\n      pop\n        /* \"#utility.yul\":8225:8538   */\n      swap3\n      swap2\n      pop\n      pop\n      jump\t// out\n        /* \"#utility.yul\":8544:8661   */\n    tag_97:\n        /* \"#utility.yul\":8653:8654   */\n      0x00\n        /* \"#utility.yul\":8650:8651   */\n      dup1\n        /* \"#utility.yul\":8643:8655   */\n      revert\n        /* \"#utility.yul\":8667:8784   */\n    tag_98:\n        /* \"#utility.yul\":8776:8777   */\n      0x00\n        /* \"#utility.yul\":8773:8774   */\n      dup1\n        /* \"#utility.yul\":8766:8778   */\n      revert\n        /* \"#utility.yul\":8790:8970   */\n    tag_99:\n        /* \"#utility.yul\":8838:8915   */\n      0x4e487b7100000000000000000000000000000000000000000000000000000000\n        /* \"#utility.yul\":8835:8836   */\n      0x00\n        /* \"#utility.yul\":8828:8916   */\n      mstore\n        /* \"#utility.yul\":8935:8939   */\n      0x41\n        /* \"#utility.yul\":8932:8933   */\n      0x04\n        /* \"#utility.yul\":8925:8940   */\n      mstore\n        /* \"#utility.yul\":8959:8963   */\n      0x24\n        /* \"#utility.yul\":8956:8957   */\n      0x00\n        /* \"#utility.yul\":8949:8964   */\n      revert\n        /* \"#utility.yul\":8976:9257   */\n    tag_100:\n        /* \"#utility.yul\":9059:9086   */\n      tag_201\n        /* \"#utility.yul\":9081:9085   */\n      dup3\n        /* \"#utility.yul\":9059:9086   */\n      tag_88\n      jump\t// in\n    tag_201:\n        /* \"#utility.yul\":9051:9057   */\n      dup2\n        /* \"#utility.yul\":9047:9087   */\n      add\n        /* \"#utility.yul\":9189:9195   */\n      dup2\n        /* \"#utility.yul\":9177:9187   */\n      dup2\n        /* \"#utility.yul\":9174:9196   */\n      lt\n        /* \"#utility.yul\":9153:9171   */\n      0xffffffffffffffff\n        /* \"#utility.yul\":9141:9151   */\n      dup3\n        /* \"#utility.yul\":9138:9172   */\n      gt\n        /* \"#utility.yul\":9135:9197   */\n      or\n        /* \"#utility.yul\":9132:9220   */\n      iszero\n      tag_202\n      jumpi\n        /* \"#utility.yul\":9200:9218   */\n      tag_203\n      tag_99\n      jump\t// in\n    tag_203:\n        /* \"#utility.yul\":9132:9220   */\n    tag_202:\n        /* \"#utility.yul\":9240:9250   */\n      dup1\n        /* \"#utility.yul\":9236:9238   */\n      0x40\n        /* \"#utility.yul\":9229:9251   */\n      mstore\n        /* \"#utility.yul\":9019:9257   */\n      pop\n        /* \"#utility.yul\":8976:9257   */\n      pop\n      pop\n      jump\t// out\n        /* \"#utility.yul\":9263:9392   */\n    tag_101:\n        /* \"#utility.yul\":9297:9303   */\n      0x00\n        /* \"#utility.yul\":9324:9344   */\n      tag_205\n      tag_66\n      jump\t// in\n    tag_205:\n        /* \"#utility.yul\":9314:9344   */\n      swap1\n      pop\n        /* \"#utility.yul\":9353:9386   */\n      tag_206\n        /* \"#utility.yul\":9381:9385   */\n      dup3\n        /* \"#utility.yul\":9373:9379   */\n      dup3\n        /* \"#utility.yul\":9353:9386   */\n      tag_100\n      jump\t// in\n    tag_206:\n        /* \"#utility.yul\":9263:9392   */\n      swap2\n      swap1\n      pop\n      jump\t// out\n        /* \"#utility.yul\":9398:9706   */\n    tag_102:\n        /* \"#utility.yul\":9460:9464   */\n      0x00\n        /* \"#utility.yul\":9550:9568   */\n      0xffffffffffffffff\n        /* \"#utility.yul\":9542:9548   */\n      dup3\n        /* \"#utility.yul\":9539:9569   */\n      gt\n        /* \"#utility.yul\":9536:9592   */\n      iszero\n      tag_208\n      jumpi\n        /* \"#utility.yul\":9572:9590   */\n      tag_209\n      tag_99\n      jump\t// in\n    tag_209:\n        /* \"#utility.yul\":9536:9592   */\n    tag_208:\n        /* \"#utility.yul\":9610:9639   */\n      tag_210\n        /* \"#utility.yul\":9632:9638   */\n      dup3\n        /* \"#utility.yul\":9610:9639   */\n      tag_88\n      jump\t// in\n    tag_210:\n        /* \"#utility.yul\":9602:9639   */\n      swap1\n      pop\n        /* \"#utility.yul\":9694:9698   */\n      0x20\n        /* \"#utility.yul\":9688:9692   */\n      dup2\n        /* \"#utility.yul\":9684:9699   */\n      add\n        /* \"#utility.yul\":9676:9699   */\n      swap1\n      pop\n        /* \"#utility.yul\":9398:9706   */\n      swap2\n      swap1\n      pop\n      jump\t// out\n        /* \"#utility.yul\":9712:10133   */\n    tag_103:\n        /* \"#utility.yul\":9801:9806   */\n      0x00\n        /* \"#utility.yul\":9826:9892   */\n      tag_212\n        /* \"#utility.yul\":9842:9891   */\n      tag_213\n        /* \"#utility.yul\":9884:9890   */\n      dup5\n        /* \"#utility.yul\":9842:9891   */\n      tag_102\n      jump\t// in\n    tag_213:\n        /* \"#utility.yul\":9826:9892   */\n      tag_101\n      jump\t// in\n    tag_212:\n        /* \"#utility.yul\":9817:9892   */\n      swap1\n      pop\n        /* \"#utility.yul\":9915:9921   */\n      dup3\n        /* \"#utility.yul\":9908:9913   */\n      dup2\n        /* \"#utility.yul\":9901:9922   */\n      mstore\n        /* \"#utility.yul\":9953:9957   */\n      0x20\n        /* \"#utility.yul\":9946:9951   */\n      dup2\n        /* \"#utility.yul\":9942:9958   */\n      add\n        /* \"#utility.yul\":9991:9994   */\n      dup5\n        /* \"#utility.yul\":9982:9988   */\n      dup5\n        /* \"#utility.yul\":9977:9980   */\n      dup5\n        /* \"#utility.yul\":9973:9989   */\n      add\n        /* \"#utility.yul\":9970:9995   */\n      gt\n        /* \"#utility.yul\":9967:10079   */\n      iszero\n      tag_214\n      jumpi\n        /* \"#utility.yul\":9998:10077   */\n      tag_215\n      tag_98\n      jump\t// in\n    tag_215:\n        /* \"#utility.yul\":9967:10079   */\n    tag_214:\n        /* \"#utility.yul\":10088:10127   */\n      tag_216\n        /* \"#utility.yul\":10120:10126   */\n      dup5\n        /* \"#utility.yul\":10115:10118   */\n      dup3\n        /* \"#utility.yul\":10110:10113   */\n      dup6\n        /* \"#utility.yul\":10088:10127   */\n      tag_82\n      jump\t// in\n    tag_216:\n        /* \"#utility.yul\":9807:10133   */\n      pop\n        /* \"#utility.yul\":9712:10133   */\n      swap4\n      swap3\n      pop\n      pop\n      pop\n      jump\t// out\n        /* \"#utility.yul\":10153:10508   */\n    tag_104:\n        /* \"#utility.yul\":10220:10225   */\n      0x00\n        /* \"#utility.yul\":10269:10272   */\n      dup3\n        /* \"#utility.yul\":10262:10266   */\n      0x1f\n        /* \"#utility.yul\":10254:10260   */\n      dup4\n        /* \"#utility.yul\":10250:10267   */\n      add\n        /* \"#utility.yul\":10246:10273   */\n      slt\n        /* \"#utility.yul\":10236:10358   */\n      tag_218\n      jumpi\n        /* \"#utility.yul\":10277:10356   */\n      tag_219\n      tag_97\n      jump\t// in\n    tag_219:\n        /* \"#utility.yul\":10236:10358   */\n    tag_218:\n        /* \"#utility.yul\":10387:10393   */\n      dup2\n        /* \"#utility.yul\":10381:10394   */\n      mload\n        /* \"#utility.yul\":10412:10502   */\n      tag_220\n        /* \"#utility.yul\":10498:10501   */\n      dup5\n        /* \"#utility.yul\":10490:10496   */\n      dup3\n        /* \"#utility.yul\":10483:10487   */\n      0x20\n        /* \"#utility.yul\":10475:10481   */\n      dup7\n        /* \"#utility.yul\":10471:10488   */\n      add\n        /* \"#utility.yul\":10412:10502   */\n      tag_103\n      jump\t// in\n    tag_220:\n        /* \"#utility.yul\":10403:10502   */\n      swap2\n      pop\n        /* \"#utility.yul\":10226:10508   */\n      pop\n        /* \"#utility.yul\":10153:10508   */\n      swap3\n      swap2\n      pop\n      pop\n      jump\t// out\n        /* \"#utility.yul\":10514:11038   */\n    tag_65:\n        /* \"#utility.yul\":10594:10600   */\n      0x00\n        /* \"#utility.yul\":10643:10645   */\n      0x20\n        /* \"#utility.yul\":10631:10640   */\n      dup3\n        /* \"#utility.yul\":10622:10629   */\n      dup5\n        /* \"#utility.yul\":10618:10641   */\n      sub\n        /* \"#utility.yul\":10614:10646   */\n      slt\n        /* \"#utility.yul\":10611:10730   */\n      iszero\n      tag_222\n      jumpi\n        /* \"#utility.yul\":10649:10728   */\n      tag_223\n      tag_67\n      jump\t// in\n    tag_223:\n        /* \"#utility.yul\":10611:10730   */\n    tag_222:\n        /* \"#utility.yul\":10790:10791   */\n      0x00\n        /* \"#utility.yul\":10779:10788   */\n      dup3\n        /* \"#utility.yul\":10775:10792   */\n      add\n        /* \"#utility.yul\":10769:10793   */\n      mload\n        /* \"#utility.yul\":10820:10838   */\n      0xffffffffffffffff\n        /* \"#utility.yul\":10812:10818   */\n      dup2\n        /* \"#utility.yul\":10809:10839   */\n      gt\n        /* \"#utility.yul\":10806:10923   */\n      iszero\n      tag_224\n      jumpi\n        /* \"#utility.yul\":10842:10921   */\n      tag_225\n      tag_68\n      jump\t// in\n    tag_225:\n        /* \"#utility.yul\":10806:10923   */\n    tag_224:\n        /* \"#utility.yul\":10947:11021   */\n      tag_226\n        /* \"#utility.yul\":11013:11020   */\n      dup5\n        /* \"#utility.yul\":11004:11010   */\n      dup3\n        /* \"#utility.yul\":10993:11002   */\n      dup6\n        /* \"#utility.yul\":10989:11011   */\n      add\n        /* \"#utility.yul\":10947:11021   */\n      tag_104\n      jump\t// in\n    tag_226:\n        /* \"#utility.yul\":10937:11021   */\n      swap2\n      pop\n        /* \"#utility.yul\":10740:11031   */\n      pop\n        /* \"#utility.yul\":10514:11038   */\n      swap3\n      swap2\n      pop\n      pop\n      jump\t// out\n\n    auxdata: 0xa264697066735822122006ecf5794b24c00343448079a8e1b2bb8fdbd122e21bbf3efbf3328a9e0a315964736f6c634300080d0033\n}\n",
				"bytecode": {
					"linkReferences": {
						"contracts/Library.sol": {
							"Library": [
								{
									"length": 20,
									"start": 468
								},
								{
									"length": 20,
									"start": 1104
								}
							]
						}
					},
					"object": "608060405234801561001057600080fd5b50610b0a806100206000396000f3fe608060405234801561001057600080fd5b50600436106100415760003560e01c80630c5dae311461004657806347f1cb79146100765780638b39d48d14610092575b600080fd5b610060600480360381019061005b919061058f565b6100c2565b60405161006d91906105d5565b60405180910390f35b610090600480360381019061008b919061061c565b610236565b005b6100ac60048036038101906100a7919061058f565b61033e565b6040516100b991906105d5565b60405180910390f35b60008060008373ffffffffffffffffffffffffffffffffffffffff167f4e70b1dc6685af0fec33c1c343f3a20a0102cbd0e07252e6d35e7425fa34c9a360405160200161010f91906106a9565b60405160208183030381529060405260405161012b919061073e565b6000604051808303816000865af19150503d8060008114610168576040519150601f19603f3d011682016040523d82523d6000602084013e61016d565b606091505b5091509150816101b2576040517f08c379a00000000000000000000000000000000000000000000000000000000081526004016101a9906107b2565b60405180910390fd5b73__$8f1551ddb6659c4f61d022a243d43a4098$__63aa35bf9b826040518263ffffffff1660e01b81526004016101e9919061082d565b602060405180830381865af4158015610206573d6000803e3d6000fd5b505050506040513d601f19601f8201168201806040525081019061022a9190610885565b60001c92505050919050565b6000808373ffffffffffffffffffffffffffffffffffffffff167fcd16ecbfcf1435b249a186b2cbd679514aa2bde5676468ad7b34c927ded34142846040516020016102839291906108d3565b60405160208183030381529060405260405161029f919061073e565b6000604051808303816000865af19150503d80600081146102dc576040519150601f19603f3d011682016040523d82523d6000602084013e6102e1565b606091505b50915091508161033857816102f5826104b2565b90610336576040517f08c379a000000000000000000000000000000000000000000000000000000000815260040161032d9190610943565b60405180910390fd5b505b50505050565b60008060008373ffffffffffffffffffffffffffffffffffffffff167f9308c91a90468cf113554d22487fa4ace2cff032576c557134f2f713e541e9e760405160200161038b91906106a9565b6040516020818303038152906040526040516103a7919061073e565b6000604051808303816000865af19150503d80600081146103e4576040519150601f19603f3d011682016040523d82523d6000602084013e6103e9565b606091505b50915091508161042e576040517f08c379a0000000000000000000000000000000000000000000000000000000008152600401610425906107b2565b60405180910390fd5b73__$8f1551ddb6659c4f61d022a243d43a4098$__63aa35bf9b826040518263ffffffff1660e01b8152600401610465919061082d565b602060405180830381865af4158015610482573d6000803e3d6000fd5b505050506040513d601f19601f820116820180604052508101906104a69190610885565b60001c92505050919050565b60606044825110156104fb576040518060400160405280601d81526020017f5472616e73616374696f6e2072657665727465642073696c656e746c790000008152509050610518565b600482019150818060200190518101906105159190610a8b565b90505b919050565b6000604051905090565b600080fd5b600080fd5b600073ffffffffffffffffffffffffffffffffffffffff82169050919050565b600061055c82610531565b9050919050565b61056c81610551565b811461057757600080fd5b50565b60008135905061058981610563565b92915050565b6000602082840312156105a5576105a4610527565b5b60006105b38482850161057a565b91505092915050565b6000819050919050565b6105cf816105bc565b82525050565b60006020820190506105ea60008301846105c6565b92915050565b6105f9816105bc565b811461060457600080fd5b50565b600081359050610616816105f0565b92915050565b6000806040838503121561063357610632610527565b5b60006106418582860161057a565b925050602061065285828601610607565b9150509250929050565b60007fffffffff0000000000000000000000000000000000000000000000000000000082169050919050565b6000819050919050565b6106a361069e8261065c565b610688565b82525050565b60006106b58284610692565b60048201915081905092915050565b600081519050919050565b600081905092915050565b60005b838110156106f85780820151818401526020810190506106dd565b83811115610707576000848401525b50505050565b6000610718826106c4565b61072281856106cf565b93506107328185602086016106da565b80840191505092915050565b600061074a828461070d565b915081905092915050565b600082825260208201905092915050565b7f63616c6c206661696c6564000000000000000000000000000000000000000000600082015250565b600061079c600b83610755565b91506107a782610766565b602082019050919050565b600060208201905081810360008301526107cb8161078f565b9050919050565b600082825260208201905092915050565b6000601f19601f8301169050919050565b60006107ff826106c4565b61080981856107d2565b93506108198185602086016106da565b610822816107e3565b840191505092915050565b6000602082019050818103600083015261084781846107f4565b905092915050565b6000819050919050565b6108628161084f565b811461086d57600080fd5b50565b60008151905061087f81610859565b92915050565b60006020828403121561089b5761089a610527565b5b60006108a984828501610870565b91505092915050565b6000819050919050565b6108cd6108c8826105bc565b6108b2565b82525050565b60006108df8285610692565b6004820191506108ef82846108bc565b6020820191508190509392505050565b600081519050919050565b6000610915826108ff565b61091f8185610755565b935061092f8185602086016106da565b610938816107e3565b840191505092915050565b6000602082019050818103600083015261095d818461090a565b905092915050565b600080fd5b600080fd5b7f4e487b7100000000000000000000000000000000000000000000000000000000600052604160045260246000fd5b6109a7826107e3565b810181811067ffffffffffffffff821117156109c6576109c561096f565b5b80604052505050565b60006109d961051d565b90506109e5828261099e565b919050565b600067ffffffffffffffff821115610a0557610a0461096f565b5b610a0e826107e3565b9050602081019050919050565b6000610a2e610a29846109ea565b6109cf565b905082815260208101848484011115610a4a57610a4961096a565b5b610a558482856106da565b509392505050565b600082601f830112610a7257610a71610965565b5b8151610a82848260208601610a1b565b91505092915050565b600060208284031215610aa157610aa0610527565b5b600082015167ffffffffffffffff811115610abf57610abe61052c565b5b610acb84828501610a5d565b9150509291505056fea264697066735822122006ecf5794b24c00343448079a8e1b2bb8fdbd122e21bbf3efbf3328a9e0a315964736f6c634300080d0033",
					"opcodes": "PUSH1 0x80 PUSH1 0x40 MSTORE CALLVALUE DUP1 ISZERO PUSH2 0x10 JUMPI PUSH1 0x0 DUP1 REVERT JUMPDEST POP PUSH2 0xB0A DUP1 PUSH2 0x20 PUSH1 0x0 CODECOPY PUSH1 0x0 RETURN INVALID PUSH1 0x80 PUSH1 0x40 MSTORE CALLVALUE DUP1 ISZERO PUSH2 0x10 JUMPI PUSH1 0x0 DUP1 REVERT JUMPDEST POP PUSH1 0x4 CALLDATASIZE LT PUSH2 0x41 JUMPI PUSH1 0x0 CALLDATALOAD PUSH1 0xE0 SHR DUP1 PUSH4 0xC5DAE31 EQ PUSH2 0x46 JUMPI DUP1 PUSH4 0x47F1CB79 EQ PUSH2 0x76 JUMPI DUP1 PUSH4 0x8B39D48D EQ PUSH2 0x92 JUMPI JUMPDEST PUSH1 0x0 DUP1 REVERT JUMPDEST PUSH2 0x60 PUSH1 0x4 DUP1 CALLDATASIZE SUB DUP2 ADD SWAP1 PUSH2 0x5B SWAP2 SWAP1 PUSH2 0x58F JUMP JUMPDEST PUSH2 0xC2 JUMP JUMPDEST PUSH1 0x40 MLOAD PUSH2 0x6D SWAP2 SWAP1 PUSH2 0x5D5 JUMP JUMPDEST PUSH1 0x40 MLOAD DUP1 SWAP2 SUB SWAP1 RETURN JUMPDEST PUSH2 0x90 PUSH1 0x4 DUP1 CALLDATASIZE SUB DUP2 ADD SWAP1 PUSH2 0x8B SWAP2 SWAP1 PUSH2 0x61C JUMP JUMPDEST PUSH2 0x236 JUMP JUMPDEST STOP JUMPDEST PUSH2 0xAC PUSH1 0x4 DUP1 CALLDATASIZE SUB DUP2 ADD SWAP1 PUSH2 0xA7 SWAP2 SWAP1 PUSH2 0x58F JUMP JUMPDEST PUSH2 0x33E JUMP JUMPDEST PUSH1 0x40 MLOAD PUSH2 0xB9 SWAP2 SWAP1 PUSH2 0x5D5 JUMP JUMPDEST PUSH1 0x40 MLOAD DUP1 SWAP2 SUB SWAP1 RETURN JUMPDEST PUSH1 0x0 DUP1 PUSH1 0x0 DUP4 PUSH20 0xFFFFFFFFFFFFFFFFFFFFFFFFFFFFFFFFFFFFFFFF AND PUSH32 0x4E70B1DC6685AF0FEC33C1C343F3A20A0102CBD0E07252E6D35E7425FA34C9A3 PUSH1 0x40 MLOAD PUSH1 0x20 ADD PUSH2 0x10F SWAP2 SWAP1 PUSH2 0x6A9 JUMP JUMPDEST PUSH1 0x40 MLOAD PUSH1 0x20 DUP2 DUP4 SUB SUB DUP2 MSTORE SWAP1 PUSH1 0x40 MSTORE PUSH1 0x40 MLOAD PUSH2 0x12B SWAP2 SWAP1 PUSH2 0x73E JUMP JUMPDEST PUSH1 0x0 PUSH1 0x40 MLOAD DUP1 DUP4 SUB DUP2 PUSH1 0x0 DUP7 GAS CALL SWAP2 POP POP RETURNDATASIZE DUP1 PUSH1 0x0 DUP2 EQ PUSH2 0x168 JUMPI PUSH1 0x40 MLOAD SWAP2 POP PUSH1 0x1F NOT PUSH1 0x3F RETURNDATASIZE ADD AND DUP3 ADD PUSH1 0x40 MSTORE RETURNDATASIZE DUP3 MSTORE RETURNDATASIZE PUSH1 0x0 PUSH1 0x20 DUP5 ADD RETURNDATACOPY PUSH2 0x16D JUMP JUMPDEST PUSH1 0x60 SWAP2 POP JUMPDEST POP SWAP2 POP SWAP2 POP DUP2 PUSH2 0x1B2 JUMPI PUSH1 0x40 MLOAD PUSH32 0x8C379A000000000000000000000000000000000000000000000000000000000 DUP2 MSTORE PUSH1 0x4 ADD PUSH2 0x1A9 SWAP1 PUSH2 0x7B2 JUMP JUMPDEST PUSH1 0x40 MLOAD DUP1 SWAP2 SUB SWAP1 REVERT JUMPDEST PUSH20 0x0 PUSH4 0xAA35BF9B DUP3 PUSH1 0x40 MLOAD DUP3 PUSH4 0xFFFFFFFF AND PUSH1 0xE0 SHL DUP2 MSTORE PUSH1 0x4 ADD PUSH2 0x1E9 SWAP2 SWAP1 PUSH2 0x82D JUMP JUMPDEST PUSH1 0x20 PUSH1 0x40 MLOAD DUP1 DUP4 SUB DUP2 DUP7 GAS DELEGATECALL ISZERO DUP1 ISZERO PUSH2 0x206 JUMPI RETURNDATASIZE PUSH1 0x0 DUP1 RETURNDATACOPY RETURNDATASIZE PUSH1 0x0 REVERT JUMPDEST POP POP POP POP PUSH1 0x40 MLOAD RETURNDATASIZE PUSH1 0x1F NOT PUSH1 0x1F DUP3 ADD AND DUP3 ADD DUP1 PUSH1 0x40 MSTORE POP DUP2 ADD SWAP1 PUSH2 0x22A SWAP2 SWAP1 PUSH2 0x885 JUMP JUMPDEST PUSH1 0x0 SHR SWAP3 POP POP POP SWAP2 SWAP1 POP JUMP JUMPDEST PUSH1 0x0 DUP1 DUP4 PUSH20 0xFFFFFFFFFFFFFFFFFFFFFFFFFFFFFFFFFFFFFFFF AND PUSH32 0xCD16ECBFCF1435B249A186B2CBD679514AA2BDE5676468AD7B34C927DED34142 DUP5 PUSH1 0x40 MLOAD PUSH1 0x20 ADD PUSH2 0x283 SWAP3 SWAP2 SWAP1 PUSH2 0x8D3 JUMP JUMPDEST PUSH1 0x40 MLOAD PUSH1 0x20 DUP2 DUP4 SUB SUB DUP2 MSTORE SWAP1 PUSH1 0x40 MSTORE PUSH1 0x40 MLOAD PUSH2 0x29F SWAP2 SWAP1 PUSH2 0x73E JUMP JUMPDEST PUSH1 0x0 PUSH1 0x40 MLOAD DUP1 DUP4 SUB DUP2 PUSH1 0x0 DUP7 GAS CALL SWAP2 POP POP RETURNDATASIZE DUP1 PUSH1 0x0 DUP2 EQ PUSH2 0x2DC JUMPI PUSH1 0x40 MLOAD SWAP2 POP PUSH1 0x1F NOT PUSH1 0x3F RETURNDATASIZE ADD AND DUP3 ADD PUSH1 0x40 MSTORE RETURNDATASIZE DUP3 MSTORE RETURNDATASIZE PUSH1 0x0 PUSH1 0x20 DUP5 ADD RETURNDATACOPY PUSH2 0x2E1 JUMP JUMPDEST PUSH1 0x60 SWAP2 POP JUMPDEST POP SWAP2 POP SWAP2 POP DUP2 PUSH2 0x338 JUMPI DUP2 PUSH2 0x2F5 DUP3 PUSH2 0x4B2 JUMP JUMPDEST SWAP1 PUSH2 0x336 JUMPI PUSH1 0x40 MLOAD PUSH32 0x8C379A000000000000000000000000000000000000000000000000000000000 DUP2 MSTORE PUSH1 0x4 ADD PUSH2 0x32D SWAP2 SWAP1 PUSH2 0x943 JUMP JUMPDEST PUSH1 0x40 MLOAD DUP1 SWAP2 SUB SWAP1 REVERT JUMPDEST POP JUMPDEST POP POP POP POP JUMP JUMPDEST PUSH1 0x0 DUP1 PUSH1 0x0 DUP4 PUSH20 0xFFFFFFFFFFFFFFFFFFFFFFFFFFFFFFFFFFFFFFFF AND PUSH32 0x9308C91A90468CF113554D22487FA4ACE2CFF032576C557134F2F713E541E9E7 PUSH1 0x40 MLOAD PUSH1 0x20 ADD PUSH2 0x38B SWAP2 SWAP1 PUSH2 0x6A9 JUMP JUMPDEST PUSH1 0x40 MLOAD PUSH1 0x20 DUP2 DUP4 SUB SUB DUP2 MSTORE SWAP1 PUSH1 0x40 MSTORE PUSH1 0x40 MLOAD PUSH2 0x3A7 SWAP2 SWAP1 PUSH2 0x73E JUMP JUMPDEST PUSH1 0x0 PUSH1 0x40 MLOAD DUP1 DUP4 SUB DUP2 PUSH1 0x0 DUP7 GAS CALL SWAP2 POP POP RETURNDATASIZE DUP1 PUSH1 0x0 DUP2 EQ PUSH2 0x3E4 JUMPI PUSH1 0x40 MLOAD SWAP2 POP PUSH1 0x1F NOT PUSH1 0x3F RETURNDATASIZE ADD AND DUP3 ADD PUSH1 0x40 MSTORE RETURNDATASIZE DUP3 MSTORE RETURNDATASIZE PUSH1 0x0 PUSH1 0x20 DUP5 ADD RETURNDATACOPY PUSH2 0x3E9 JUMP JUMPDEST PUSH1 0x60 SWAP2 POP JUMPDEST POP SWAP2 POP SWAP2 POP DUP2 PUSH2 0x42E JUMPI PUSH1 0x40 MLOAD PUSH32 0x8C379A000000000000000000000000000000000000000000000000000000000 DUP2 MSTORE PUSH1 0x4 ADD PUSH2 0x425 SWAP1 PUSH2 0x7B2 JUMP JUMPDEST PUSH1 0x40 MLOAD DUP1 SWAP2 SUB SWAP1 REVERT JUMPDEST PUSH20 0x0 PUSH4 0xAA35BF9B DUP3 PUSH1 0x40 MLOAD DUP3 PUSH4 0xFFFFFFFF AND PUSH1 0xE0 SHL DUP2 MSTORE PUSH1 0x4 ADD PUSH2 0x465 SWAP2 SWAP1 PUSH2 0x82D JUMP JUMPDEST PUSH1 0x20 PUSH1 0x40 MLOAD DUP1 DUP4 SUB DUP2 DUP7 GAS DELEGATECALL ISZERO DUP1 ISZERO PUSH2 0x482 JUMPI RETURNDATASIZE PUSH1 0x0 DUP1 RETURNDATACOPY RETURNDATASIZE PUSH1 0x0 REVERT JUMPDEST POP POP POP POP PUSH1 0x40 MLOAD RETURNDATASIZE PUSH1 0x1F NOT PUSH1 0x1F DUP3 ADD AND DUP3 ADD DUP1 PUSH1 0x40 MSTORE POP DUP2 ADD SWAP1 PUSH2 0x4A6 SWAP2 SWAP1 PUSH2 0x885 JUMP JUMPDEST PUSH1 0x0 SHR SWAP3 POP POP POP SWAP2 SWAP1 POP JUMP JUMPDEST PUSH1 0x60 PUSH1 0x44 DUP3 MLOAD LT ISZERO PUSH2 0x4FB JUMPI PUSH1 0x40 MLOAD DUP1 PUSH1 0x40 ADD PUSH1 0x40 MSTORE DUP1 PUSH1 0x1D DUP2 MSTORE PUSH1 0x20 ADD PUSH32 0x5472616E73616374696F6E2072657665727465642073696C656E746C79000000 DUP2 MSTORE POP SWAP1 POP PUSH2 0x518 JUMP JUMPDEST PUSH1 0x4 DUP3 ADD SWAP2 POP DUP2 DUP1 PUSH1 0x20 ADD SWAP1 MLOAD DUP2 ADD SWAP1 PUSH2 0x515 SWAP2 SWAP1 PUSH2 0xA8B JUMP JUMPDEST SWAP1 POP JUMPDEST SWAP2 SWAP1 POP JUMP JUMPDEST PUSH1 0x0 PUSH1 0x40 MLOAD SWAP1 POP SWAP1 JUMP JUMPDEST PUSH1 0x0 DUP1 REVERT JUMPDEST PUSH1 0x0 DUP1 REVERT JUMPDEST PUSH1 0x0 PUSH20 0xFFFFFFFFFFFFFFFFFFFFFFFFFFFFFFFFFFFFFFFF DUP3 AND SWAP1 POP SWAP2 SWAP1 POP JUMP JUMPDEST PUSH1 0x0 PUSH2 0x55C DUP3 PUSH2 0x531 JUMP JUMPDEST SWAP1 POP SWAP2 SWAP1 POP JUMP JUMPDEST PUSH2 0x56C DUP2 PUSH2 0x551 JUMP JUMPDEST DUP2 EQ PUSH2 0x577 JUMPI PUSH1 0x0 DUP1 REVERT JUMPDEST POP JUMP JUMPDEST PUSH1 0x0 DUP2 CALLDATALOAD SWAP1 POP PUSH2 0x589 DUP2 PUSH2 0x563 JUMP JUMPDEST SWAP3 SWAP2 POP POP JUMP JUMPDEST PUSH1 0x0 PUSH1 0x20 DUP3 DUP5 SUB SLT ISZERO PUSH2 0x5A5 JUMPI PUSH2 0x5A4 PUSH2 0x527 JUMP JUMPDEST JUMPDEST PUSH1 0x0 PUSH2 0x5B3 DUP5 DUP3 DUP6 ADD PUSH2 0x57A JUMP JUMPDEST SWAP2 POP POP SWAP3 SWAP2 POP POP JUMP JUMPDEST PUSH1 0x0 DUP2 SWAP1 POP SWAP2 SWAP1 POP JUMP JUMPDEST PUSH2 0x5CF DUP2 PUSH2 0x5BC JUMP JUMPDEST DUP3 MSTORE POP POP JUMP JUMPDEST PUSH1 0x0 PUSH1 0x20 DUP3 ADD SWAP1 POP PUSH2 0x5EA PUSH1 0x0 DUP4 ADD DUP5 PUSH2 0x5C6 JUMP JUMPDEST SWAP3 SWAP2 POP POP JUMP JUMPDEST PUSH2 0x5F9 DUP2 PUSH2 0x5BC JUMP JUMPDEST DUP2 EQ PUSH2 0x604 JUMPI PUSH1 0x0 DUP1 REVERT JUMPDEST POP JUMP JUMPDEST PUSH1 0x0 DUP2 CALLDATALOAD SWAP1 POP PUSH2 0x616 DUP2 PUSH2 0x5F0 JUMP JUMPDEST SWAP3 SWAP2 POP POP JUMP JUMPDEST PUSH1 0x0 DUP1 PUSH1 0x40 DUP4 DUP6 SUB SLT ISZERO PUSH2 0x633 JUMPI PUSH2 0x632 PUSH2 0x527 JUMP JUMPDEST JUMPDEST PUSH1 0x0 PUSH2 0x641 DUP6 DUP3 DUP7 ADD PUSH2 0x57A JUMP JUMPDEST SWAP3 POP POP PUSH1 0x20 PUSH2 0x652 DUP6 DUP3 DUP7 ADD PUSH2 0x607 JUMP JUMPDEST SWAP2 POP POP SWAP3 POP SWAP3 SWAP1 POP JUMP JUMPDEST PUSH1 0x0 PUSH32 0xFFFFFFFF00000000000000000000000000000000000000000000000000000000 DUP3 AND SWAP1 POP SWAP2 SWAP1 POP JUMP JUMPDEST PUSH1 0x0 DUP2 SWAP1 POP SWAP2 SWAP1 POP JUMP JUMPDEST PUSH2 0x6A3 PUSH2 0x69E DUP3 PUSH2 0x65C JUMP JUMPDEST PUSH2 0x688 JUMP JUMPDEST DUP3 MSTORE POP POP JUMP JUMPDEST PUSH1 0x0 PUSH2 0x6B5 DUP3 DUP5 PUSH2 0x692 JUMP JUMPDEST PUSH1 0x4 DUP3 ADD SWAP2 POP DUP2 SWAP1 POP SWAP3 SWAP2 POP POP JUMP JUMPDEST PUSH1 0x0 DUP2 MLOAD SWAP1 POP SWAP2 SWAP1 POP JUMP JUMPDEST PUSH1 0x0 DUP2 SWAP1 POP SWAP3 SWAP2 POP POP JUMP JUMPDEST PUSH1 0x0 JUMPDEST DUP4 DUP2 LT ISZERO PUSH2 0x6F8 JUMPI DUP1 DUP3 ADD MLOAD DUP2 DUP5 ADD MSTORE PUSH1 0x20 DUP2 ADD SWAP1 POP PUSH2 0x6DD JUMP JUMPDEST DUP4 DUP2 GT ISZERO PUSH2 0x707 JUMPI PUSH1 0x0 DUP5 DUP5 ADD MSTORE JUMPDEST POP POP POP POP JUMP JUMPDEST PUSH1 0x0 PUSH2 0x718 DUP3 PUSH2 0x6C4 JUMP JUMPDEST PUSH2 0x722 DUP2 DUP6 PUSH2 0x6CF JUMP JUMPDEST SWAP4 POP PUSH2 0x732 DUP2 DUP6 PUSH1 0x20 DUP7 ADD PUSH2 0x6DA JUMP JUMPDEST DUP1 DUP5 ADD SWAP2 POP POP SWAP3 SWAP2 POP POP JUMP JUMPDEST PUSH1 0x0 PUSH2 0x74A DUP3 DUP5 PUSH2 0x70D JUMP JUMPDEST SWAP2 POP DUP2 SWAP1 POP SWAP3 SWAP2 POP POP JUMP JUMPDEST PUSH1 0x0 DUP3 DUP3 MSTORE PUSH1 0x20 DUP3 ADD SWAP1 POP SWAP3 SWAP2 POP POP JUMP JUMPDEST PUSH32 0x63616C6C206661696C6564000000000000000000000000000000000000000000 PUSH1 0x0 DUP3 ADD MSTORE POP JUMP JUMPDEST PUSH1 0x0 PUSH2 0x79C PUSH1 0xB DUP4 PUSH2 0x755 JUMP JUMPDEST SWAP2 POP PUSH2 0x7A7 DUP3 PUSH2 0x766 JUMP JUMPDEST PUSH1 0x20 DUP3 ADD SWAP1 POP SWAP2 SWAP1 POP JUMP JUMPDEST PUSH1 0x0 PUSH1 0x20 DUP3 ADD SWAP1 POP DUP2 DUP2 SUB PUSH1 0x0 DUP4 ADD MSTORE PUSH2 0x7CB DUP2 PUSH2 0x78F JUMP JUMPDEST SWAP1 POP SWAP2 SWAP1 POP JUMP JUMPDEST PUSH1 0x0 DUP3 DUP3 MSTORE PUSH1 0x20 DUP3 ADD SWAP1 POP SWAP3 SWAP2 POP POP JUMP JUMPDEST PUSH1 0x0 PUSH1 0x1F NOT PUSH1 0x1F DUP4 ADD AND SWAP1 POP SWAP2 SWAP1 POP JUMP JUMPDEST PUSH1 0x0 PUSH2 0x7FF DUP3 PUSH2 0x6C4 JUMP JUMPDEST PUSH2 0x809 DUP2 DUP6 PUSH2 0x7D2 JUMP JUMPDEST SWAP4 POP PUSH2 0x819 DUP2 DUP6 PUSH1 0x20 DUP7 ADD PUSH2 0x6DA JUMP JUMPDEST PUSH2 0x822 DUP2 PUSH2 0x7E3 JUMP JUMPDEST DUP5 ADD SWAP2 POP POP SWAP3 SWAP2 POP POP JUMP JUMPDEST PUSH1 0x0 PUSH1 0x20 DUP3 ADD SWAP1 POP DUP2 DUP2 SUB PUSH1 0x0 DUP4 ADD MSTORE PUSH2 0x847 DUP2 DUP5 PUSH2 0x7F4 JUMP JUMPDEST SWAP1 POP SWAP3 SWAP2 POP POP JUMP JUMPDEST PUSH1 0x0 DUP2 SWAP1 POP SWAP2 SWAP1 POP JUMP JUMPDEST PUSH2 0x862 DUP2 PUSH2 0x84F JUMP JUMPDEST DUP2 EQ PUSH2 0x86D JUMPI PUSH1 0x0 DUP1 REVERT JUMPDEST POP JUMP JUMPDEST PUSH1 0x0 DUP2 MLOAD SWAP1 POP PUSH2 0x87F DUP2 PUSH2 0x859 JUMP JUMPDEST SWAP3 SWAP2 POP POP JUMP JUMPDEST PUSH1 0x0 PUSH1 0x20 DUP3 DUP5 SUB SLT ISZERO PUSH2 0x89B JUMPI PUSH2 0x89A PUSH2 0x527 JUMP JUMPDEST JUMPDEST PUSH1 0x0 PUSH2 0x8A9 DUP5 DUP3 DUP6 ADD PUSH2 0x870 JUMP JUMPDEST SWAP2 POP POP SWAP3 SWAP2 POP POP JUMP JUMPDEST PUSH1 0x0 DUP2 SWAP1 POP SWAP2 SWAP1 POP JUMP JUMPDEST PUSH2 0x8CD PUSH2 0x8C8 DUP3 PUSH2 0x5BC JUMP JUMPDEST PUSH2 0x8B2 JUMP JUMPDEST DUP3 MSTORE POP POP JUMP JUMPDEST PUSH1 0x0 PUSH2 0x8DF DUP3 DUP6 PUSH2 0x692 JUMP JUMPDEST PUSH1 0x4 DUP3 ADD SWAP2 POP PUSH2 0x8EF DUP3 DUP5 PUSH2 0x8BC JUMP JUMPDEST PUSH1 0x20 DUP3 ADD SWAP2 POP DUP2 SWAP1 POP SWAP4 SWAP3 POP POP POP JUMP JUMPDEST PUSH1 0x0 DUP2 MLOAD SWAP1 POP SWAP2 SWAP1 POP JUMP JUMPDEST PUSH1 0x0 PUSH2 0x915 DUP3 PUSH2 0x8FF JUMP JUMPDEST PUSH2 0x91F DUP2 DUP6 PUSH2 0x755 JUMP JUMPDEST SWAP4 POP PUSH2 0x92F DUP2 DUP6 PUSH1 0x20 DUP7 ADD PUSH2 0x6DA JUMP JUMPDEST PUSH2 0x938 DUP2 PUSH2 0x7E3 JUMP JUMPDEST DUP5 ADD SWAP2 POP POP SWAP3 SWAP2 POP POP JUMP JUMPDEST PUSH1 0x0 PUSH1 0x20 DUP3 ADD SWAP1 POP DUP2 DUP2 SUB PUSH1 0x0 DUP4 ADD MSTORE PUSH2 0x95D DUP2 DUP5 PUSH2 0x90A JUMP JUMPDEST SWAP1 POP SWAP3 SWAP2 POP POP JUMP JUMPDEST PUSH1 0x0 DUP1 REVERT JUMPDEST PUSH1 0x0 DUP1 REVERT JUMPDEST PUSH32 0x4E487B7100000000000000000000000000000000000000000000000000000000 PUSH1 0x0 MSTORE PUSH1 0x41 PUSH1 0x4 MSTORE PUSH1 0x24 PUSH1 0x0 REVERT JUMPDEST PUSH2 0x9A7 DUP3 PUSH2 0x7E3 JUMP JUMPDEST DUP2 ADD DUP2 DUP2 LT PUSH8 0xFFFFFFFFFFFFFFFF DUP3 GT OR ISZERO PUSH2 0x9C6 JUMPI PUSH2 0x9C5 PUSH2 0x96F JUMP JUMPDEST JUMPDEST DUP1 PUSH1 0x40 MSTORE POP POP POP JUMP JUMPDEST PUSH1 0x0 PUSH2 0x9D9 PUSH2 0x51D JUMP JUMPDEST SWAP1 POP PUSH2 0x9E5 DUP3 DUP3 PUSH2 0x99E JUMP JUMPDEST SWAP2 SWAP1 POP JUMP JUMPDEST PUSH1 0x0 PUSH8 0xFFFFFFFFFFFFFFFF DUP3 GT ISZERO PUSH2 0xA05 JUMPI PUSH2 0xA04 PUSH2 0x96F JUMP JUMPDEST JUMPDEST PUSH2 0xA0E DUP3 PUSH2 0x7E3 JUMP JUMPDEST SWAP1 POP PUSH1 0x20 DUP2 ADD SWAP1 POP SWAP2 SWAP1 POP JUMP JUMPDEST PUSH1 0x0 PUSH2 0xA2E PUSH2 0xA29 DUP5 PUSH2 0x9EA JUMP JUMPDEST PUSH2 0x9CF JUMP JUMPDEST SWAP1 POP DUP3 DUP2 MSTORE PUSH1 0x20 DUP2 ADD DUP5 DUP5 DUP5 ADD GT ISZERO PUSH2 0xA4A JUMPI PUSH2 0xA49 PUSH2 0x96A JUMP JUMPDEST JUMPDEST PUSH2 0xA55 DUP5 DUP3 DUP6 PUSH2 0x6DA JUMP JUMPDEST POP SWAP4 SWAP3 POP POP POP JUMP JUMPDEST PUSH1 0x0 DUP3 PUSH1 0x1F DUP4 ADD SLT PUSH2 0xA72 JUMPI PUSH2 0xA71 PUSH2 0x965 JUMP JUMPDEST JUMPDEST DUP2 MLOAD PUSH2 0xA82 DUP5 DUP3 PUSH1 0x20 DUP7 ADD PUSH2 0xA1B JUMP JUMPDEST SWAP2 POP POP SWAP3 SWAP2 POP POP JUMP JUMPDEST PUSH1 0x0 PUSH1 0x20 DUP3 DUP5 SUB SLT ISZERO PUSH2 0xAA1 JUMPI PUSH2 0xAA0 PUSH2 0x527 JUMP JUMPDEST JUMPDEST PUSH1 0x0 DUP3 ADD MLOAD PUSH8 0xFFFFFFFFFFFFFFFF DUP2 GT ISZERO PUSH2 0xABF JUMPI PUSH2 0xABE PUSH2 0x52C JUMP JUMPDEST JUMPDEST PUSH2 0xACB DUP5 DUP3 DUP6 ADD PUSH2 0xA5D JUMP JUMPDEST SWAP2 POP POP SWAP3 SWAP2 POP POP JUMP INVALID LOG2 PUSH5 0x6970667358 0x22 SLT KECCAK256 MOD 0xEC CREATE2 PUSH26 0x4B24C00343448079A8E1B2BB8FDBD122E21BBF3EFBF3328A9E0A BALANCE MSIZE PUSH5 0x736F6C6343 STOP ADDMOD 0xD STOP CALLER "
				},
				"gasEstimates": {
					"creation": {
						"codeDepositCost": "565200",
						"executionCost": "600",
						"totalCost": "565800"
					},
					"external": {
						"delegateFetch(address)": "infinite",
						"delegateNum(address)": "infinite",
						"delegateSet(address,uint256)": "infinite"
					}
				},
				"methodIdentifiers": {
					"delegateFetch(address)": "8b39d48d",
					"delegateNum(address)": "0c5dae31",
					"delegateSet(address,uint256)": "47f1cb79"
				}
			},
			"storageLayout": {
				"storage": [],
				"types": null
			},
			"userdoc": {
				"kind": "user",
				"methods": {},
				"version": 1
			}
		}
	}
}