{
	"contracts/Library.sol": {
		"Library": {
			"abi": [
				{
					"inputs": [
						{
							"internalType": "bytes32",
							"name": "_bytes32",
							"type": "bytes32"
						}
					],
					"name": "bytes32ToAsciiString",
					"outputs": [
						{
							"internalType": "string",
							"name": "",
							"type": "string"
						}
					],
					"stateMutability": "pure",
					"type": "function"
				},
				{
					"inputs": [
						{
							"internalType": "bytes32",
							"name": "data",
							"type": "bytes32"
						}
					],
					"name": "bytes32ToHexString",
					"outputs": [
						{
							"internalType": "string",
							"name": "",
							"type": "string"
						}
					],
					"stateMutability": "pure",
					"type": "function"
				},
				{
					"inputs": [
						{
							"internalType": "bytes",
							"name": "data",
							"type": "bytes"
						}
					],
					"name": "getFirst32Bytes",
					"outputs": [
						{
							"internalType": "bytes32",
							"name": "",
							"type": "bytes32"
						}
					],
					"stateMutability": "pure",
					"type": "function"
				},
				{
					"inputs": [
						{
							"internalType": "uint256",
							"name": "input",
							"type": "uint256"
						}
					],
					"name": "uintToBytes32",
					"outputs": [
						{
							"internalType": "bytes32",
							"name": "",
							"type": "bytes32"
						}
					],
					"stateMutability": "pure",
					"type": "function"
				}
			],
			"devdoc": {
				"kind": "dev",
				"methods": {},
				"version": 1
			},
			"evm": {
				"assembly": "    /* \"contracts/Library.sol\":60:2835  library Library {... */\n  dataSize(sub_0)\n  dataOffset(sub_0)\n  0x0b\n  dup3\n  dup3\n  dup3\n  codecopy\n  dup1\n  mload\n  0x00\n  byte\n  0x73\n  eq\n  tag_1\n  jumpi\n  mstore(0x00, 0x4e487b7100000000000000000000000000000000000000000000000000000000)\n  mstore(0x04, 0x00)\n  revert(0x00, 0x24)\ntag_1:\n  mstore(0x00, address)\n  0x73\n  dup2\n  mstore8\n  dup3\n  dup2\n  return\nstop\n\nsub_0: assembly {\n        /* \"contracts/Library.sol\":60:2835  library Library {... */\n      eq(address, deployTimeAddress())\n      mstore(0x40, 0x80)\n      jumpi(tag_1, lt(calldatasize, 0x04))\n      shr(0xe0, calldataload(0x00))\n      dup1\n      0x2dd04237\n      eq\n      tag_2\n      jumpi\n      dup1\n      0x886d3db9\n      eq\n      tag_3\n      jumpi\n      dup1\n      0xaa35bf9b\n      eq\n      tag_4\n      jumpi\n      dup1\n      0xc68b3787\n      eq\n      tag_5\n      jumpi\n    tag_1:\n      0x00\n      dup1\n      revert\n        /* \"contracts/Library.sol\":791:1174  function bytes32ToAsciiString (bytes32 _bytes32) public pure returns (string memory) {... */\n    tag_2:\n      tag_6\n      0x04\n      dup1\n      calldatasize\n      sub\n      dup2\n      add\n      swap1\n      tag_7\n      swap2\n      swap1\n      tag_8\n      jump\t// in\n    tag_7:\n      tag_9\n      jump\t// in\n    tag_6:\n      mload(0x40)\n      tag_10\n      swap2\n      swap1\n      tag_11\n      jump\t// in\n    tag_10:\n      mload(0x40)\n      dup1\n      swap2\n      sub\n      swap1\n      return\n        /* \"contracts/Library.sol\":1182:1307  function uintToBytes32(uint input) public pure returns (bytes32) {... */\n    tag_3:\n      tag_12\n      0x04\n      dup1\n      calldatasize\n      sub\n      dup2\n      add\n      swap1\n      tag_13\n      swap2\n      swap1\n      tag_14\n      jump\t// in\n    tag_13:\n      tag_15\n      jump\t// in\n    tag_12:\n      mload(0x40)\n      tag_16\n      swap2\n      swap1\n      tag_17\n      jump\t// in\n    tag_16:\n      mload(0x40)\n      dup1\n      swap2\n      sub\n      swap1\n      return\n        /* \"contracts/Library.sol\":1319:1432  function getFirst32Bytes(bytes memory data) public pure returns (bytes32) {... */\n    tag_4:\n      tag_18\n      0x04\n      dup1\n      calldatasize\n      sub\n      dup2\n      add\n      swap1\n      tag_19\n      swap2\n      swap1\n      tag_20\n      jump\t// in\n    tag_19:\n      tag_21\n      jump\t// in\n    tag_18:\n      mload(0x40)\n      tag_22\n      swap2\n      swap1\n      tag_17\n      jump\t// in\n    tag_22:\n      mload(0x40)\n      dup1\n      swap2\n      sub\n      swap1\n      return\n        /* \"contracts/Library.sol\":587:783  function bytes32ToHexString (bytes32 data) public pure returns (string memory) {... */\n    tag_5:\n      tag_23\n      0x04\n      dup1\n      calldatasize\n      sub\n      dup2\n      add\n      swap1\n      tag_24\n      swap2\n      swap1\n      tag_8\n      jump\t// in\n    tag_24:\n      tag_25\n      jump\t// in\n    tag_23:\n      mload(0x40)\n      tag_26\n      swap2\n      swap1\n      tag_11\n      jump\t// in\n    tag_26:\n      mload(0x40)\n      dup1\n      swap2\n      sub\n      swap1\n      return\n        /* \"contracts/Library.sol\":791:1174  function bytes32ToAsciiString (bytes32 _bytes32) public pure returns (string memory) {... */\n    tag_9:\n        /* \"contracts/Library.sol\":861:874  string memory */\n      0x60\n        /* \"contracts/Library.sol\":887:894  uint8 i */\n      0x00\n        /* \"contracts/Library.sol\":909:973  while(i < 32 && _bytes32[i] != 0) {... */\n    tag_28:\n        /* \"contracts/Library.sol\":919:921  32 */\n      0x20\n        /* \"contracts/Library.sol\":915:916  i */\n      dup2\n        /* \"contracts/Library.sol\":915:921  i < 32 */\n      0xff\n      and\n      lt\n        /* \"contracts/Library.sol\":915:941  i < 32 && _bytes32[i] != 0 */\n      dup1\n      iszero\n      tag_30\n      jumpi\n      pop\n        /* \"contracts/Library.sol\":940:941  0 */\n      0x00\n        /* \"contracts/Library.sol\":925:941  _bytes32[i] != 0 */\n      0xf8\n      shl\n        /* \"contracts/Library.sol\":925:933  _bytes32 */\n      dup4\n        /* \"contracts/Library.sol\":934:935  i */\n      dup3\n        /* \"contracts/Library.sol\":925:936  _bytes32[i] */\n      0xff\n      and\n      0x20\n      dup2\n      lt\n      tag_31\n      jumpi\n      tag_32\n      tag_33\n      jump\t// in\n    tag_32:\n    tag_31:\n      byte\n      0xf8\n      shl\n        /* \"contracts/Library.sol\":925:941  _bytes32[i] != 0 */\n      not(0xffffffffffffffffffffffffffffffffffffffffffffffffffffffffffffff)\n      and\n      eq\n      iszero\n        /* \"contracts/Library.sol\":915:941  i < 32 && _bytes32[i] != 0 */\n    tag_30:\n        /* \"contracts/Library.sol\":909:973  while(i < 32 && _bytes32[i] != 0) {... */\n      iszero\n      tag_29\n      jumpi\n        /* \"contracts/Library.sol\":958:961  i++ */\n      dup1\n      dup1\n      tag_34\n      swap1\n      tag_35\n      jump\t// in\n    tag_34:\n      swap2\n      pop\n      pop\n        /* \"contracts/Library.sol\":909:973  while(i < 32 && _bytes32[i] != 0) {... */\n      jump(tag_28)\n    tag_29:\n        /* \"contracts/Library.sol\":983:1006  bytes memory bytesArray */\n      0x00\n        /* \"contracts/Library.sol\":1019:1020  i */\n      dup2\n        /* \"contracts/Library.sol\":1009:1021  new bytes(i) */\n      0xff\n      and\n      0xffffffffffffffff\n      dup2\n      gt\n      iszero\n      tag_36\n      jumpi\n      tag_37\n      tag_38\n      jump\t// in\n    tag_37:\n    tag_36:\n      mload(0x40)\n      swap1\n      dup1\n      dup3\n      mstore\n      dup1\n      0x1f\n      add\n      not(0x1f)\n      and\n      0x20\n      add\n      dup3\n      add\n      0x40\n      mstore\n      dup1\n      iszero\n      tag_39\n      jumpi\n      dup2\n      0x20\n      add\n      0x01\n      dup3\n      mul\n      dup1\n      calldatasize\n      dup4\n      calldatacopy\n      dup1\n      dup3\n      add\n      swap2\n      pop\n      pop\n      swap1\n      pop\n    tag_39:\n      pop\n        /* \"contracts/Library.sol\":983:1021  bytes memory bytesArray = new bytes(i) */\n      swap1\n      pop\n        /* \"contracts/Library.sol\":1041:1042  0 */\n      0x00\n        /* \"contracts/Library.sol\":1037:1042  i = 0 */\n      swap2\n      pop\n        /* \"contracts/Library.sol\":1032:1131  for (i = 0; i < 32 && _bytes32[i] != 0; i++) {... */\n    tag_40:\n        /* \"contracts/Library.sol\":1048:1050  32 */\n      0x20\n        /* \"contracts/Library.sol\":1044:1045  i */\n      dup3\n        /* \"contracts/Library.sol\":1044:1050  i < 32 */\n      0xff\n      and\n      lt\n        /* \"contracts/Library.sol\":1044:1070  i < 32 && _bytes32[i] != 0 */\n      dup1\n      iszero\n      tag_43\n      jumpi\n      pop\n        /* \"contracts/Library.sol\":1069:1070  0 */\n      0x00\n        /* \"contracts/Library.sol\":1054:1070  _bytes32[i] != 0 */\n      0xf8\n      shl\n        /* \"contracts/Library.sol\":1054:1062  _bytes32 */\n      dup5\n        /* \"contracts/Library.sol\":1063:1064  i */\n      dup4\n        /* \"contracts/Library.sol\":1054:1065  _bytes32[i] */\n      0xff\n      and\n      0x20\n      dup2\n      lt\n      tag_44\n      jumpi\n      tag_45\n      tag_33\n      jump\t// in\n    tag_45:\n    tag_44:\n      byte\n      0xf8\n      shl\n        /* \"contracts/Library.sol\":1054:1070  _bytes32[i] != 0 */\n      not(0xffffffffffffffffffffffffffffffffffffffffffffffffffffffffffffff)\n      and\n      eq\n      iszero\n        /* \"contracts/Library.sol\":1044:1070  i < 32 && _bytes32[i] != 0 */\n    tag_43:\n        /* \"contracts/Library.sol\":1032:1131  for (i = 0; i < 32 && _bytes32[i] != 0; i++) {... */\n      iszero\n      tag_41\n      jumpi\n        /* \"contracts/Library.sol\":1108:1116  _bytes32 */\n      dup4\n        /* \"contracts/Library.sol\":1117:1118  i */\n      dup3\n        /* \"contracts/Library.sol\":1108:1119  _bytes32[i] */\n      0xff\n      and\n      0x20\n      dup2\n      lt\n      tag_46\n      jumpi\n      tag_47\n      tag_33\n      jump\t// in\n    tag_47:\n    tag_46:\n      byte\n      0xf8\n      shl\n        /* \"contracts/Library.sol\":1092:1102  bytesArray */\n      dup2\n        /* \"contracts/Library.sol\":1103:1104  i */\n      dup4\n        /* \"contracts/Library.sol\":1092:1105  bytesArray[i] */\n      0xff\n      and\n      dup2\n      mload\n      dup2\n      lt\n      tag_48\n      jumpi\n      tag_49\n      tag_33\n      jump\t// in\n    tag_49:\n    tag_48:\n      0x20\n      add\n      add\n        /* \"contracts/Library.sol\":1092:1119  bytesArray[i] = _bytes32[i] */\n      swap1\n      not(0xffffffffffffffffffffffffffffffffffffffffffffffffffffffffffffff)\n      and\n      swap1\n      dup2\n      0x00\n      byte\n      swap1\n      mstore8\n      pop\n        /* \"contracts/Library.sol\":1072:1075  i++ */\n      dup2\n      dup1\n      tag_50\n      swap1\n      tag_35\n      jump\t// in\n    tag_50:\n      swap3\n      pop\n      pop\n        /* \"contracts/Library.sol\":1032:1131  for (i = 0; i < 32 && _bytes32[i] != 0; i++) {... */\n      jump(tag_40)\n    tag_41:\n        /* \"contracts/Library.sol\":1155:1165  bytesArray */\n      dup1\n        /* \"contracts/Library.sol\":1141:1166  return string(bytesArray) */\n      swap3\n      pop\n      pop\n      pop\n        /* \"contracts/Library.sol\":791:1174  function bytes32ToAsciiString (bytes32 _bytes32) public pure returns (string memory) {... */\n      swap2\n      swap1\n      pop\n      jump\t// out\n        /* \"contracts/Library.sol\":1182:1307  function uintToBytes32(uint input) public pure returns (bytes32) {... */\n    tag_15:\n        /* \"contracts/Library.sol\":1238:1245  bytes32 */\n      0x00\n        /* \"contracts/Library.sol\":1292:1297  input */\n      dup2\n        /* \"contracts/Library.sol\":1275:1298  abi.encodePacked(input) */\n      add(0x20, mload(0x40))\n      tag_52\n      swap2\n      swap1\n      tag_53\n      jump\t// in\n    tag_52:\n      mload(0x40)\n      0x20\n      dup2\n      dup4\n      sub\n      sub\n      dup2\n      mstore\n      swap1\n      0x40\n      mstore\n        /* \"contracts/Library.sol\":1265:1299  keccak256(abi.encodePacked(input)) */\n      dup1\n      mload\n      swap1\n      0x20\n      add\n      keccak256\n        /* \"contracts/Library.sol\":1258:1299  return keccak256(abi.encodePacked(input)) */\n      swap1\n      pop\n        /* \"contracts/Library.sol\":1182:1307  function uintToBytes32(uint input) public pure returns (bytes32) {... */\n      swap2\n      swap1\n      pop\n      jump\t// out\n        /* \"contracts/Library.sol\":1319:1432  function getFirst32Bytes(bytes memory data) public pure returns (bytes32) {... */\n    tag_21:\n        /* \"contracts/Library.sol\":1384:1391  bytes32 */\n      0x00\n        /* \"contracts/Library.sol\":1419:1423  data */\n      dup2\n        /* \"contracts/Library.sol\":1411:1424  bytes32(data) */\n      tag_55\n      swap1\n      tag_56\n      jump\t// in\n    tag_55:\n        /* \"contracts/Library.sol\":1404:1424  return bytes32(data) */\n      swap1\n      pop\n        /* \"contracts/Library.sol\":1319:1432  function getFirst32Bytes(bytes memory data) public pure returns (bytes32) {... */\n      swap2\n      swap1\n      pop\n      jump\t// out\n        /* \"contracts/Library.sol\":587:783  function bytes32ToHexString (bytes32 data) public pure returns (string memory) {... */\n    tag_25:\n        /* \"contracts/Library.sol\":651:664  string memory */\n      0x60\n        /* \"contracts/Library.sol\":716:740  toHex16 (bytes16 (data)) */\n      tag_58\n        /* \"contracts/Library.sol\":734:738  data */\n      dup3\n        /* \"contracts/Library.sol\":716:723  toHex16 */\n      tag_59\n        /* \"contracts/Library.sol\":716:740  toHex16 (bytes16 (data)) */\n      jump\t// in\n    tag_58:\n        /* \"contracts/Library.sol\":742:773  toHex16 (bytes16 (data << 128)) */\n      tag_60\n        /* \"contracts/Library.sol\":768:771  128 */\n      0x80\n        /* \"contracts/Library.sol\":760:764  data */\n      dup5\n        /* \"contracts/Library.sol\":760:771  data << 128 */\n      swap1\n      shl\n        /* \"contracts/Library.sol\":742:749  toHex16 */\n      tag_59\n        /* \"contracts/Library.sol\":742:773  toHex16 (bytes16 (data << 128)) */\n      jump\t// in\n    tag_60:\n        /* \"contracts/Library.sol\":692:774  abi.encodePacked (\"0x\", toHex16 (bytes16 (data)), toHex16 (bytes16 (data << 128))) */\n      add(0x20, mload(0x40))\n      tag_61\n      swap3\n      swap2\n      swap1\n      tag_62\n      jump\t// in\n    tag_61:\n      mload(0x40)\n      0x20\n      dup2\n      dup4\n      sub\n      sub\n      dup2\n      mstore\n      swap1\n      0x40\n      mstore\n        /* \"contracts/Library.sol\":677:775  return string (abi.encodePacked (\"0x\", toHex16 (bytes16 (data)), toHex16 (bytes16 (data << 128)))) */\n      swap1\n      pop\n        /* \"contracts/Library.sol\":587:783  function bytes32ToHexString (bytes32 data) public pure returns (string memory) {... */\n      swap2\n      swap1\n      pop\n      jump\t// out\n        /* \"contracts/Library.sol\":1440:2832  function toHex16 (bytes16 data) internal pure returns (bytes32 result) {... */\n    tag_59:\n        /* \"contracts/Library.sol\":1495:1509  bytes32 result */\n      0x00\n        /* \"contracts/Library.sol\":1719:1721  64 */\n      0x40\n        /* \"contracts/Library.sol\":1648:1714  0x0000000000000000FFFFFFFFFFFFFFFF00000000000000000000000000000000 */\n      0xffffffffffffffff00000000000000000000000000000000\n        /* \"contracts/Library.sol\":1631:1714  bytes32 (data) & 0x0000000000000000FFFFFFFFFFFFFFFF00000000000000000000000000000000 */\n      0x00\n      shl\n        /* \"contracts/Library.sol\":1640:1644  data */\n      dup4\n        /* \"contracts/Library.sol\":1631:1645  bytes32 (data) */\n      not(0xffffffffffffffffffffffffffffffff)\n      and\n        /* \"contracts/Library.sol\":1631:1714  bytes32 (data) & 0x0000000000000000FFFFFFFFFFFFFFFF00000000000000000000000000000000 */\n      and\n        /* \"contracts/Library.sol\":1630:1721  (bytes32 (data) & 0x0000000000000000FFFFFFFFFFFFFFFF00000000000000000000000000000000) >> 64 */\n      swap1\n      shr\n        /* \"contracts/Library.sol\":1548:1614  0xFFFFFFFFFFFFFFFF000000000000000000000000000000000000000000000000 */\n      0xffffffffffffffff000000000000000000000000000000000000000000000000\n        /* \"contracts/Library.sol\":1531:1614  bytes32 (data) & 0xFFFFFFFFFFFFFFFF000000000000000000000000000000000000000000000000 */\n      0x00\n      shl\n        /* \"contracts/Library.sol\":1540:1544  data */\n      dup4\n        /* \"contracts/Library.sol\":1531:1545  bytes32 (data) */\n      not(0xffffffffffffffffffffffffffffffff)\n      and\n        /* \"contracts/Library.sol\":1531:1614  bytes32 (data) & 0xFFFFFFFFFFFFFFFF000000000000000000000000000000000000000000000000 */\n      and\n        /* \"contracts/Library.sol\":1531:1721  bytes32 (data) & 0xFFFFFFFFFFFFFFFF000000000000000000000000000000000000000000000000 |... */\n      or\n        /* \"contracts/Library.sol\":1522:1721  result = bytes32 (data) & 0xFFFFFFFFFFFFFFFF000000000000000000000000000000000000000000000000 |... */\n      swap1\n      pop\n        /* \"contracts/Library.sol\":1913:1915  32 */\n      0x20\n        /* \"contracts/Library.sol\":1842:1908  0x00000000FFFFFFFF000000000000000000000000FFFFFFFF0000000000000000 */\n      0xffffffff000000000000000000000000ffffffff0000000000000000\n        /* \"contracts/Library.sol\":1833:1908  result & 0x00000000FFFFFFFF000000000000000000000000FFFFFFFF0000000000000000 */\n      0x00\n      shl\n        /* \"contracts/Library.sol\":1833:1839  result */\n      dup3\n        /* \"contracts/Library.sol\":1833:1908  result & 0x00000000FFFFFFFF000000000000000000000000FFFFFFFF0000000000000000 */\n      and\n        /* \"contracts/Library.sol\":1832:1915  (result & 0x00000000FFFFFFFF000000000000000000000000FFFFFFFF0000000000000000) >> 32 */\n      swap1\n      shr\n        /* \"contracts/Library.sol\":1750:1816  0xFFFFFFFF000000000000000000000000FFFFFFFF000000000000000000000000 */\n      0xffffffff000000000000000000000000ffffffff000000000000000000000000\n        /* \"contracts/Library.sol\":1741:1816  result & 0xFFFFFFFF000000000000000000000000FFFFFFFF000000000000000000000000 */\n      0x00\n      shl\n        /* \"contracts/Library.sol\":1741:1747  result */\n      dup3\n        /* \"contracts/Library.sol\":1741:1816  result & 0xFFFFFFFF000000000000000000000000FFFFFFFF000000000000000000000000 */\n      and\n        /* \"contracts/Library.sol\":1741:1915  result & 0xFFFFFFFF000000000000000000000000FFFFFFFF000000000000000000000000 |... */\n      or\n        /* \"contracts/Library.sol\":1732:1915  result = result & 0xFFFFFFFF000000000000000000000000FFFFFFFF000000000000000000000000 |... */\n      swap1\n      pop\n        /* \"contracts/Library.sol\":2107:2109  16 */\n      0x10\n        /* \"contracts/Library.sol\":2036:2102  0x0000FFFF000000000000FFFF000000000000FFFF000000000000FFFF00000000 */\n      0xffff000000000000ffff000000000000ffff000000000000ffff00000000\n        /* \"contracts/Library.sol\":2027:2102  result & 0x0000FFFF000000000000FFFF000000000000FFFF000000000000FFFF00000000 */\n      0x00\n      shl\n        /* \"contracts/Library.sol\":2027:2033  result */\n      dup3\n        /* \"contracts/Library.sol\":2027:2102  result & 0x0000FFFF000000000000FFFF000000000000FFFF000000000000FFFF00000000 */\n      and\n        /* \"contracts/Library.sol\":2026:2109  (result & 0x0000FFFF000000000000FFFF000000000000FFFF000000000000FFFF00000000) >> 16 */\n      swap1\n      shr\n        /* \"contracts/Library.sol\":1944:2010  0xFFFF000000000000FFFF000000000000FFFF000000000000FFFF000000000000 */\n      0xffff000000000000ffff000000000000ffff000000000000ffff000000000000\n        /* \"contracts/Library.sol\":1935:2010  result & 0xFFFF000000000000FFFF000000000000FFFF000000000000FFFF000000000000 */\n      0x00\n      shl\n        /* \"contracts/Library.sol\":1935:1941  result */\n      dup3\n        /* \"contracts/Library.sol\":1935:2010  result & 0xFFFF000000000000FFFF000000000000FFFF000000000000FFFF000000000000 */\n      and\n        /* \"contracts/Library.sol\":1935:2109  result & 0xFFFF000000000000FFFF000000000000FFFF000000000000FFFF000000000000 |... */\n      or\n        /* \"contracts/Library.sol\":1926:2109  result = result & 0xFFFF000000000000FFFF000000000000FFFF000000000000FFFF000000000000 |... */\n      swap1\n      pop\n        /* \"contracts/Library.sol\":2301:2302  8 */\n      0x08\n        /* \"contracts/Library.sol\":2230:2296  0x00FF000000FF000000FF000000FF000000FF000000FF000000FF000000FF0000 */\n      0xff000000ff000000ff000000ff000000ff000000ff000000ff000000ff0000\n        /* \"contracts/Library.sol\":2221:2296  result & 0x00FF000000FF000000FF000000FF000000FF000000FF000000FF000000FF0000 */\n      0x00\n      shl\n        /* \"contracts/Library.sol\":2221:2227  result */\n      dup3\n        /* \"contracts/Library.sol\":2221:2296  result & 0x00FF000000FF000000FF000000FF000000FF000000FF000000FF000000FF0000 */\n      and\n        /* \"contracts/Library.sol\":2220:2302  (result & 0x00FF000000FF000000FF000000FF000000FF000000FF000000FF000000FF0000) >> 8 */\n      swap1\n      shr\n        /* \"contracts/Library.sol\":2138:2204  0xFF000000FF000000FF000000FF000000FF000000FF000000FF000000FF000000 */\n      0xff000000ff000000ff000000ff000000ff000000ff000000ff000000ff000000\n        /* \"contracts/Library.sol\":2129:2204  result & 0xFF000000FF000000FF000000FF000000FF000000FF000000FF000000FF000000 */\n      0x00\n      shl\n        /* \"contracts/Library.sol\":2129:2135  result */\n      dup3\n        /* \"contracts/Library.sol\":2129:2204  result & 0xFF000000FF000000FF000000FF000000FF000000FF000000FF000000FF000000 */\n      and\n        /* \"contracts/Library.sol\":2129:2302  result & 0xFF000000FF000000FF000000FF000000FF000000FF000000FF000000FF000000 |... */\n      or\n        /* \"contracts/Library.sol\":2120:2302  result = result & 0xFF000000FF000000FF000000FF000000FF000000FF000000FF000000FF000000 |... */\n      swap1\n      pop\n        /* \"contracts/Library.sol\":2501:2502  8 */\n      0x08\n        /* \"contracts/Library.sol\":2430:2496  0x0F000F000F000F000F000F000F000F000F000F000F000F000F000F000F000F00 */\n      0x0f000f000f000f000f000f000f000f000f000f000f000f000f000f000f000f00\n        /* \"contracts/Library.sol\":2421:2496  result & 0x0F000F000F000F000F000F000F000F000F000F000F000F000F000F000F000F00 */\n      0x00\n      shl\n        /* \"contracts/Library.sol\":2421:2427  result */\n      dup3\n        /* \"contracts/Library.sol\":2421:2496  result & 0x0F000F000F000F000F000F000F000F000F000F000F000F000F000F000F000F00 */\n      and\n        /* \"contracts/Library.sol\":2420:2502  (result & 0x0F000F000F000F000F000F000F000F000F000F000F000F000F000F000F000F00) >> 8 */\n      swap1\n      shr\n        /* \"contracts/Library.sol\":2403:2404  4 */\n      0x04\n        /* \"contracts/Library.sol\":2332:2398  0xF000F000F000F000F000F000F000F000F000F000F000F000F000F000F000F000 */\n      0xf000f000f000f000f000f000f000f000f000f000f000f000f000f000f000f000\n        /* \"contracts/Library.sol\":2323:2398  result & 0xF000F000F000F000F000F000F000F000F000F000F000F000F000F000F000F000 */\n      0x00\n      shl\n        /* \"contracts/Library.sol\":2323:2329  result */\n      dup4\n        /* \"contracts/Library.sol\":2323:2398  result & 0xF000F000F000F000F000F000F000F000F000F000F000F000F000F000F000F000 */\n      and\n        /* \"contracts/Library.sol\":2322:2404  (result & 0xF000F000F000F000F000F000F000F000F000F000F000F000F000F000F000F000) >> 4 */\n      swap1\n      shr\n        /* \"contracts/Library.sol\":2322:2502  (result & 0xF000F000F000F000F000F000F000F000F000F000F000F000F000F000F000F000) >> 4 |... */\n      or\n        /* \"contracts/Library.sol\":2313:2502  result = (result & 0xF000F000F000F000F000F000F000F000F000F000F000F000F000F000F000F000) >> 4 |... */\n      swap1\n      pop\n        /* \"contracts/Library.sol\":2822:2823  7 */\n      0x07\n        /* \"contracts/Library.sol\":2752:2818  0x0F0F0F0F0F0F0F0F0F0F0F0F0F0F0F0F0F0F0F0F0F0F0F0F0F0F0F0F0F0F0F0F */\n      0x0f0f0f0f0f0f0f0f0f0f0f0f0f0f0f0f0f0f0f0f0f0f0f0f0f0f0f0f0f0f0f0f\n        /* \"contracts/Library.sol\":2735:2736  4 */\n      0x04\n        /* \"contracts/Library.sol\":2665:2731  0x0606060606060606060606060606060606060606060606060606060606060606 */\n      0x0606060606060606060606060606060606060606060606060606060606060606\n        /* \"contracts/Library.sol\":2655:2661  result */\n      dup5\n        /* \"contracts/Library.sol\":2646:2662  uint256 (result) */\n      0x00\n      shr\n        /* \"contracts/Library.sol\":2646:2731  uint256 (result) + 0x0606060606060606060606060606060606060606060606060606060606060606 */\n      tag_64\n      swap2\n      swap1\n      tag_65\n      jump\t// in\n    tag_64:\n        /* \"contracts/Library.sol\":2646:2736  uint256 (result) + 0x0606060606060606060606060606060606060606060606060606060606060606 >> 4 */\n      swap1\n      shr\n        /* \"contracts/Library.sol\":2646:2818  uint256 (result) + 0x0606060606060606060606060606060606060606060606060606060606060606 >> 4 &... */\n      and\n        /* \"contracts/Library.sol\":2645:2823  (uint256 (result) + 0x0606060606060606060606060606060606060606060606060606060606060606 >> 4 &... */\n      tag_66\n      swap2\n      swap1\n      tag_67\n      jump\t// in\n    tag_66:\n        /* \"contracts/Library.sol\":2622:2628  result */\n      dup2\n        /* \"contracts/Library.sol\":2613:2629  uint256 (result) */\n      0x00\n      shr\n        /* \"contracts/Library.sol\":2531:2597  0x3030303030303030303030303030303030303030303030303030303030303030 */\n      0x3030303030303030303030303030303030303030303030303030303030303030\n        /* \"contracts/Library.sol\":2531:2629  0x3030303030303030303030303030303030303030303030303030303030303030 +... */\n      tag_68\n      swap2\n      swap1\n      tag_65\n      jump\t// in\n    tag_68:\n        /* \"contracts/Library.sol\":2531:2823  0x3030303030303030303030303030303030303030303030303030303030303030 +... */\n      tag_69\n      swap2\n      swap1\n      tag_65\n      jump\t// in\n    tag_69:\n        /* \"contracts/Library.sol\":2522:2824  bytes32 (0x3030303030303030303030303030303030303030303030303030303030303030 +... */\n      0x00\n      shl\n        /* \"contracts/Library.sol\":2513:2824  result = bytes32 (0x3030303030303030303030303030303030303030303030303030303030303030 +... */\n      swap1\n      pop\n        /* \"contracts/Library.sol\":1440:2832  function toHex16 (bytes16 data) internal pure returns (bytes32 result) {... */\n      swap2\n      swap1\n      pop\n      jump\t// out\n        /* \"#utility.yul\":7:82   */\n    tag_70:\n        /* \"#utility.yul\":40:46   */\n      0x00\n        /* \"#utility.yul\":73:75   */\n      0x40\n        /* \"#utility.yul\":67:76   */\n      mload\n        /* \"#utility.yul\":57:76   */\n      swap1\n      pop\n        /* \"#utility.yul\":7:82   */\n      swap1\n      jump\t// out\n        /* \"#utility.yul\":88:205   */\n    tag_71:\n        /* \"#utility.yul\":197:198   */\n      0x00\n        /* \"#utility.yul\":194:195   */\n      dup1\n        /* \"#utility.yul\":187:199   */\n      revert\n        /* \"#utility.yul\":211:328   */\n    tag_72:\n        /* \"#utility.yul\":320:321   */\n      0x00\n        /* \"#utility.yul\":317:318   */\n      dup1\n        /* \"#utility.yul\":310:322   */\n      revert\n        /* \"#utility.yul\":334:411   */\n    tag_73:\n        /* \"#utility.yul\":371:378   */\n      0x00\n        /* \"#utility.yul\":400:405   */\n      dup2\n        /* \"#utility.yul\":389:405   */\n      swap1\n      pop\n        /* \"#utility.yul\":334:411   */\n      swap2\n      swap1\n      pop\n      jump\t// out\n        /* \"#utility.yul\":417:539   */\n    tag_74:\n        /* \"#utility.yul\":490:514   */\n      tag_112\n        /* \"#utility.yul\":508:513   */\n      dup2\n        /* \"#utility.yul\":490:514   */\n      tag_73\n      jump\t// in\n    tag_112:\n        /* \"#utility.yul\":483:488   */\n      dup2\n        /* \"#utility.yul\":480:515   */\n      eq\n        /* \"#utility.yul\":470:533   */\n      tag_113\n      jumpi\n        /* \"#utility.yul\":529:530   */\n      0x00\n        /* \"#utility.yul\":526:527   */\n      dup1\n        /* \"#utility.yul\":519:531   */\n      revert\n        /* \"#utility.yul\":470:533   */\n    tag_113:\n        /* \"#utility.yul\":417:539   */\n      pop\n      jump\t// out\n        /* \"#utility.yul\":545:684   */\n    tag_75:\n        /* \"#utility.yul\":591:596   */\n      0x00\n        /* \"#utility.yul\":629:635   */\n      dup2\n        /* \"#utility.yul\":616:636   */\n      calldataload\n        /* \"#utility.yul\":607:636   */\n      swap1\n      pop\n        /* \"#utility.yul\":645:678   */\n      tag_115\n        /* \"#utility.yul\":672:677   */\n      dup2\n        /* \"#utility.yul\":645:678   */\n      tag_74\n      jump\t// in\n    tag_115:\n        /* \"#utility.yul\":545:684   */\n      swap3\n      swap2\n      pop\n      pop\n      jump\t// out\n        /* \"#utility.yul\":690:1019   */\n    tag_8:\n        /* \"#utility.yul\":749:755   */\n      0x00\n        /* \"#utility.yul\":798:800   */\n      0x20\n        /* \"#utility.yul\":786:795   */\n      dup3\n        /* \"#utility.yul\":777:784   */\n      dup5\n        /* \"#utility.yul\":773:796   */\n      sub\n        /* \"#utility.yul\":769:801   */\n      slt\n        /* \"#utility.yul\":766:885   */\n      iszero\n      tag_117\n      jumpi\n        /* \"#utility.yul\":804:883   */\n      tag_118\n      tag_71\n      jump\t// in\n    tag_118:\n        /* \"#utility.yul\":766:885   */\n    tag_117:\n        /* \"#utility.yul\":924:925   */\n      0x00\n        /* \"#utility.yul\":949:1002   */\n      tag_119\n        /* \"#utility.yul\":994:1001   */\n      dup5\n        /* \"#utility.yul\":985:991   */\n      dup3\n        /* \"#utility.yul\":974:983   */\n      dup6\n        /* \"#utility.yul\":970:992   */\n      add\n        /* \"#utility.yul\":949:1002   */\n      tag_75\n      jump\t// in\n    tag_119:\n        /* \"#utility.yul\":939:1002   */\n      swap2\n      pop\n        /* \"#utility.yul\":895:1012   */\n      pop\n        /* \"#utility.yul\":690:1019   */\n      swap3\n      swap2\n      pop\n      pop\n      jump\t// out\n        /* \"#utility.yul\":1025:1124   */\n    tag_76:\n        /* \"#utility.yul\":1077:1083   */\n      0x00\n        /* \"#utility.yul\":1111:1116   */\n      dup2\n        /* \"#utility.yul\":1105:1117   */\n      mload\n        /* \"#utility.yul\":1095:1117   */\n      swap1\n      pop\n        /* \"#utility.yul\":1025:1124   */\n      swap2\n      swap1\n      pop\n      jump\t// out\n        /* \"#utility.yul\":1130:1307   */\n    tag_77:\n        /* \"#utility.yul\":1222:1233   */\n      0x00\n        /* \"#utility.yul\":1256:1262   */\n      dup3\n        /* \"#utility.yul\":1251:1254   */\n      dup3\n        /* \"#utility.yul\":1244:1263   */\n      mstore\n        /* \"#utility.yul\":1296:1300   */\n      0x20\n        /* \"#utility.yul\":1291:1294   */\n      dup3\n        /* \"#utility.yul\":1287:1301   */\n      add\n        /* \"#utility.yul\":1272:1301   */\n      swap1\n      pop\n        /* \"#utility.yul\":1130:1307   */\n      swap3\n      swap2\n      pop\n      pop\n      jump\t// out\n        /* \"#utility.yul\":1313:1620   */\n    tag_78:\n        /* \"#utility.yul\":1381:1382   */\n      0x00\n        /* \"#utility.yul\":1391:1504   */\n    tag_123:\n        /* \"#utility.yul\":1405:1411   */\n      dup4\n        /* \"#utility.yul\":1402:1403   */\n      dup2\n        /* \"#utility.yul\":1399:1412   */\n      lt\n        /* \"#utility.yul\":1391:1504   */\n      iszero\n      tag_125\n      jumpi\n        /* \"#utility.yul\":1490:1491   */\n      dup1\n        /* \"#utility.yul\":1485:1488   */\n      dup3\n        /* \"#utility.yul\":1481:1492   */\n      add\n        /* \"#utility.yul\":1475:1493   */\n      mload\n        /* \"#utility.yul\":1471:1472   */\n      dup2\n        /* \"#utility.yul\":1466:1469   */\n      dup5\n        /* \"#utility.yul\":1462:1473   */\n      add\n        /* \"#utility.yul\":1455:1494   */\n      mstore\n        /* \"#utility.yul\":1427:1429   */\n      0x20\n        /* \"#utility.yul\":1424:1425   */\n      dup2\n        /* \"#utility.yul\":1420:1430   */\n      add\n        /* \"#utility.yul\":1415:1430   */\n      swap1\n      pop\n        /* \"#utility.yul\":1391:1504   */\n      jump(tag_123)\n    tag_125:\n        /* \"#utility.yul\":1522:1528   */\n      dup4\n        /* \"#utility.yul\":1519:1520   */\n      dup2\n        /* \"#utility.yul\":1516:1529   */\n      gt\n        /* \"#utility.yul\":1513:1614   */\n      iszero\n      tag_126\n      jumpi\n        /* \"#utility.yul\":1602:1603   */\n      0x00\n        /* \"#utility.yul\":1593:1599   */\n      dup5\n        /* \"#utility.yul\":1588:1591   */\n      dup5\n        /* \"#utility.yul\":1584:1600   */\n      add\n        /* \"#utility.yul\":1577:1604   */\n      mstore\n        /* \"#utility.yul\":1513:1614   */\n    tag_126:\n        /* \"#utility.yul\":1362:1620   */\n      pop\n        /* \"#utility.yul\":1313:1620   */\n      pop\n      pop\n      pop\n      jump\t// out\n        /* \"#utility.yul\":1626:1728   */\n    tag_79:\n        /* \"#utility.yul\":1667:1673   */\n      0x00\n        /* \"#utility.yul\":1718:1720   */\n      0x1f\n        /* \"#utility.yul\":1714:1721   */\n      not\n        /* \"#utility.yul\":1709:1711   */\n      0x1f\n        /* \"#utility.yul\":1702:1707   */\n      dup4\n        /* \"#utility.yul\":1698:1712   */\n      add\n        /* \"#utility.yul\":1694:1722   */\n      and\n        /* \"#utility.yul\":1684:1722   */\n      swap1\n      pop\n        /* \"#utility.yul\":1626:1728   */\n      swap2\n      swap1\n      pop\n      jump\t// out\n        /* \"#utility.yul\":1734:2114   */\n    tag_80:\n        /* \"#utility.yul\":1830:1833   */\n      0x00\n        /* \"#utility.yul\":1858:1897   */\n      tag_129\n        /* \"#utility.yul\":1891:1896   */\n      dup3\n        /* \"#utility.yul\":1858:1897   */\n      tag_76\n      jump\t// in\n    tag_129:\n        /* \"#utility.yul\":1913:1992   */\n      tag_130\n        /* \"#utility.yul\":1985:1991   */\n      dup2\n        /* \"#utility.yul\":1980:1983   */\n      dup6\n        /* \"#utility.yul\":1913:1992   */\n      tag_77\n      jump\t// in\n    tag_130:\n        /* \"#utility.yul\":1906:1992   */\n      swap4\n      pop\n        /* \"#utility.yul\":2001:2053   */\n      tag_131\n        /* \"#utility.yul\":2046:2052   */\n      dup2\n        /* \"#utility.yul\":2041:2044   */\n      dup6\n        /* \"#utility.yul\":2034:2038   */\n      0x20\n        /* \"#utility.yul\":2027:2032   */\n      dup7\n        /* \"#utility.yul\":2023:2039   */\n      add\n        /* \"#utility.yul\":2001:2053   */\n      tag_78\n      jump\t// in\n    tag_131:\n        /* \"#utility.yul\":2078:2107   */\n      tag_132\n        /* \"#utility.yul\":2100:2106   */\n      dup2\n        /* \"#utility.yul\":2078:2107   */\n      tag_79\n      jump\t// in\n    tag_132:\n        /* \"#utility.yul\":2073:2076   */\n      dup5\n        /* \"#utility.yul\":2069:2108   */\n      add\n        /* \"#utility.yul\":2062:2108   */\n      swap2\n      pop\n        /* \"#utility.yul\":1834:2114   */\n      pop\n        /* \"#utility.yul\":1734:2114   */\n      swap3\n      swap2\n      pop\n      pop\n      jump\t// out\n        /* \"#utility.yul\":2120:2449   */\n    tag_11:\n        /* \"#utility.yul\":2241:2245   */\n      0x00\n        /* \"#utility.yul\":2279:2281   */\n      0x20\n        /* \"#utility.yul\":2268:2277   */\n      dup3\n        /* \"#utility.yul\":2264:2282   */\n      add\n        /* \"#utility.yul\":2256:2282   */\n      swap1\n      pop\n        /* \"#utility.yul\":2328:2337   */\n      dup2\n        /* \"#utility.yul\":2322:2326   */\n      dup2\n        /* \"#utility.yul\":2318:2338   */\n      sub\n        /* \"#utility.yul\":2314:2315   */\n      0x00\n        /* \"#utility.yul\":2303:2312   */\n      dup4\n        /* \"#utility.yul\":2299:2316   */\n      add\n        /* \"#utility.yul\":2292:2339   */\n      mstore\n        /* \"#utility.yul\":2356:2442   */\n      tag_134\n        /* \"#utility.yul\":2437:2441   */\n      dup2\n        /* \"#utility.yul\":2428:2434   */\n      dup5\n        /* \"#utility.yul\":2356:2442   */\n      tag_80\n      jump\t// in\n    tag_134:\n        /* \"#utility.yul\":2348:2442   */\n      swap1\n      pop\n        /* \"#utility.yul\":2120:2449   */\n      swap3\n      swap2\n      pop\n      pop\n      jump\t// out\n        /* \"#utility.yul\":2455:2532   */\n    tag_81:\n        /* \"#utility.yul\":2492:2499   */\n      0x00\n        /* \"#utility.yul\":2521:2526   */\n      dup2\n        /* \"#utility.yul\":2510:2526   */\n      swap1\n      pop\n        /* \"#utility.yul\":2455:2532   */\n      swap2\n      swap1\n      pop\n      jump\t// out\n        /* \"#utility.yul\":2538:2660   */\n    tag_82:\n        /* \"#utility.yul\":2611:2635   */\n      tag_137\n        /* \"#utility.yul\":2629:2634   */\n      dup2\n        /* \"#utility.yul\":2611:2635   */\n      tag_81\n      jump\t// in\n    tag_137:\n        /* \"#utility.yul\":2604:2609   */\n      dup2\n        /* \"#utility.yul\":2601:2636   */\n      eq\n        /* \"#utility.yul\":2591:2654   */\n      tag_138\n      jumpi\n        /* \"#utility.yul\":2650:2651   */\n      0x00\n        /* \"#utility.yul\":2647:2648   */\n      dup1\n        /* \"#utility.yul\":2640:2652   */\n      revert\n        /* \"#utility.yul\":2591:2654   */\n    tag_138:\n        /* \"#utility.yul\":2538:2660   */\n      pop\n      jump\t// out\n        /* \"#utility.yul\":2666:2805   */\n    tag_83:\n        /* \"#utility.yul\":2712:2717   */\n      0x00\n        /* \"#utility.yul\":2750:2756   */\n      dup2\n        /* \"#utility.yul\":2737:2757   */\n      calldataload\n        /* \"#utility.yul\":2728:2757   */\n      swap1\n      pop\n        /* \"#utility.yul\":2766:2799   */\n      tag_140\n        /* \"#utility.yul\":2793:2798   */\n      dup2\n        /* \"#utility.yul\":2766:2799   */\n      tag_82\n      jump\t// in\n    tag_140:\n        /* \"#utility.yul\":2666:2805   */\n      swap3\n      swap2\n      pop\n      pop\n      jump\t// out\n        /* \"#utility.yul\":2811:3140   */\n    tag_14:\n        /* \"#utility.yul\":2870:2876   */\n      0x00\n        /* \"#utility.yul\":2919:2921   */\n      0x20\n        /* \"#utility.yul\":2907:2916   */\n      dup3\n        /* \"#utility.yul\":2898:2905   */\n      dup5\n        /* \"#utility.yul\":2894:2917   */\n      sub\n        /* \"#utility.yul\":2890:2922   */\n      slt\n        /* \"#utility.yul\":2887:3006   */\n      iszero\n      tag_142\n      jumpi\n        /* \"#utility.yul\":2925:3004   */\n      tag_143\n      tag_71\n      jump\t// in\n    tag_143:\n        /* \"#utility.yul\":2887:3006   */\n    tag_142:\n        /* \"#utility.yul\":3045:3046   */\n      0x00\n        /* \"#utility.yul\":3070:3123   */\n      tag_144\n        /* \"#utility.yul\":3115:3122   */\n      dup5\n        /* \"#utility.yul\":3106:3112   */\n      dup3\n        /* \"#utility.yul\":3095:3104   */\n      dup6\n        /* \"#utility.yul\":3091:3113   */\n      add\n        /* \"#utility.yul\":3070:3123   */\n      tag_83\n      jump\t// in\n    tag_144:\n        /* \"#utility.yul\":3060:3123   */\n      swap2\n      pop\n        /* \"#utility.yul\":3016:3133   */\n      pop\n        /* \"#utility.yul\":2811:3140   */\n      swap3\n      swap2\n      pop\n      pop\n      jump\t// out\n        /* \"#utility.yul\":3146:3272   */\n    tag_84:\n        /* \"#utility.yul\":3241:3265   */\n      tag_146\n        /* \"#utility.yul\":3259:3264   */\n      dup2\n        /* \"#utility.yul\":3241:3265   */\n      tag_73\n      jump\t// in\n    tag_146:\n        /* \"#utility.yul\":3236:3239   */\n      dup3\n        /* \"#utility.yul\":3229:3266   */\n      mstore\n        /* \"#utility.yul\":3146:3272   */\n      pop\n      pop\n      jump\t// out\n        /* \"#utility.yul\":3278:3516   */\n    tag_17:\n        /* \"#utility.yul\":3379:3383   */\n      0x00\n        /* \"#utility.yul\":3417:3419   */\n      0x20\n        /* \"#utility.yul\":3406:3415   */\n      dup3\n        /* \"#utility.yul\":3402:3420   */\n      add\n        /* \"#utility.yul\":3394:3420   */\n      swap1\n      pop\n        /* \"#utility.yul\":3430:3509   */\n      tag_148\n        /* \"#utility.yul\":3506:3507   */\n      0x00\n        /* \"#utility.yul\":3495:3504   */\n      dup4\n        /* \"#utility.yul\":3491:3508   */\n      add\n        /* \"#utility.yul\":3482:3488   */\n      dup5\n        /* \"#utility.yul\":3430:3509   */\n      tag_84\n      jump\t// in\n    tag_148:\n        /* \"#utility.yul\":3278:3516   */\n      swap3\n      swap2\n      pop\n      pop\n      jump\t// out\n        /* \"#utility.yul\":3522:3639   */\n    tag_85:\n        /* \"#utility.yul\":3631:3632   */\n      0x00\n        /* \"#utility.yul\":3628:3629   */\n      dup1\n        /* \"#utility.yul\":3621:3633   */\n      revert\n        /* \"#utility.yul\":3645:3762   */\n    tag_86:\n        /* \"#utility.yul\":3754:3755   */\n      0x00\n        /* \"#utility.yul\":3751:3752   */\n      dup1\n        /* \"#utility.yul\":3744:3756   */\n      revert\n        /* \"#utility.yul\":3768:3948   */\n    tag_38:\n        /* \"#utility.yul\":3816:3893   */\n      0x4e487b7100000000000000000000000000000000000000000000000000000000\n        /* \"#utility.yul\":3813:3814   */\n      0x00\n        /* \"#utility.yul\":3806:3894   */\n      mstore\n        /* \"#utility.yul\":3913:3917   */\n      0x41\n        /* \"#utility.yul\":3910:3911   */\n      0x04\n        /* \"#utility.yul\":3903:3918   */\n      mstore\n        /* \"#utility.yul\":3937:3941   */\n      0x24\n        /* \"#utility.yul\":3934:3935   */\n      0x00\n        /* \"#utility.yul\":3927:3942   */\n      revert\n        /* \"#utility.yul\":3954:4235   */\n    tag_87:\n        /* \"#utility.yul\":4037:4064   */\n      tag_153\n        /* \"#utility.yul\":4059:4063   */\n      dup3\n        /* \"#utility.yul\":4037:4064   */\n      tag_79\n      jump\t// in\n    tag_153:\n        /* \"#utility.yul\":4029:4035   */\n      dup2\n        /* \"#utility.yul\":4025:4065   */\n      add\n        /* \"#utility.yul\":4167:4173   */\n      dup2\n        /* \"#utility.yul\":4155:4165   */\n      dup2\n        /* \"#utility.yul\":4152:4174   */\n      lt\n        /* \"#utility.yul\":4131:4149   */\n      0xffffffffffffffff\n        /* \"#utility.yul\":4119:4129   */\n      dup3\n        /* \"#utility.yul\":4116:4150   */\n      gt\n        /* \"#utility.yul\":4113:4175   */\n      or\n        /* \"#utility.yul\":4110:4198   */\n      iszero\n      tag_154\n      jumpi\n        /* \"#utility.yul\":4178:4196   */\n      tag_155\n      tag_38\n      jump\t// in\n    tag_155:\n        /* \"#utility.yul\":4110:4198   */\n    tag_154:\n        /* \"#utility.yul\":4218:4228   */\n      dup1\n        /* \"#utility.yul\":4214:4216   */\n      0x40\n        /* \"#utility.yul\":4207:4229   */\n      mstore\n        /* \"#utility.yul\":3997:4235   */\n      pop\n        /* \"#utility.yul\":3954:4235   */\n      pop\n      pop\n      jump\t// out\n        /* \"#utility.yul\":4241:4370   */\n    tag_88:\n        /* \"#utility.yul\":4275:4281   */\n      0x00\n        /* \"#utility.yul\":4302:4322   */\n      tag_157\n      tag_70\n      jump\t// in\n    tag_157:\n        /* \"#utility.yul\":4292:4322   */\n      swap1\n      pop\n        /* \"#utility.yul\":4331:4364   */\n      tag_158\n        /* \"#utility.yul\":4359:4363   */\n      dup3\n        /* \"#utility.yul\":4351:4357   */\n      dup3\n        /* \"#utility.yul\":4331:4364   */\n      tag_87\n      jump\t// in\n    tag_158:\n        /* \"#utility.yul\":4241:4370   */\n      swap2\n      swap1\n      pop\n      jump\t// out\n        /* \"#utility.yul\":4376:4683   */\n    tag_89:\n        /* \"#utility.yul\":4437:4441   */\n      0x00\n        /* \"#utility.yul\":4527:4545   */\n      0xffffffffffffffff\n        /* \"#utility.yul\":4519:4525   */\n      dup3\n        /* \"#utility.yul\":4516:4546   */\n      gt\n        /* \"#utility.yul\":4513:4569   */\n      iszero\n      tag_160\n      jumpi\n        /* \"#utility.yul\":4549:4567   */\n      tag_161\n      tag_38\n      jump\t// in\n    tag_161:\n        /* \"#utility.yul\":4513:4569   */\n    tag_160:\n        /* \"#utility.yul\":4587:4616   */\n      tag_162\n        /* \"#utility.yul\":4609:4615   */\n      dup3\n        /* \"#utility.yul\":4587:4616   */\n      tag_79\n      jump\t// in\n    tag_162:\n        /* \"#utility.yul\":4579:4616   */\n      swap1\n      pop\n        /* \"#utility.yul\":4671:4675   */\n      0x20\n        /* \"#utility.yul\":4665:4669   */\n      dup2\n        /* \"#utility.yul\":4661:4676   */\n      add\n        /* \"#utility.yul\":4653:4676   */\n      swap1\n      pop\n        /* \"#utility.yul\":4376:4683   */\n      swap2\n      swap1\n      pop\n      jump\t// out\n        /* \"#utility.yul\":4689:4843   */\n    tag_90:\n        /* \"#utility.yul\":4773:4779   */\n      dup3\n        /* \"#utility.yul\":4768:4771   */\n      dup2\n        /* \"#utility.yul\":4763:4766   */\n      dup4\n        /* \"#utility.yul\":4750:4780   */\n      calldatacopy\n        /* \"#utility.yul\":4835:4836   */\n      0x00\n        /* \"#utility.yul\":4826:4832   */\n      dup4\n        /* \"#utility.yul\":4821:4824   */\n      dup4\n        /* \"#utility.yul\":4817:4833   */\n      add\n        /* \"#utility.yul\":4810:4837   */\n      mstore\n        /* \"#utility.yul\":4689:4843   */\n      pop\n      pop\n      pop\n      jump\t// out\n        /* \"#utility.yul\":4849:5259   */\n    tag_91:\n        /* \"#utility.yul\":4926:4931   */\n      0x00\n        /* \"#utility.yul\":4951:5016   */\n      tag_165\n        /* \"#utility.yul\":4967:5015   */\n      tag_166\n        /* \"#utility.yul\":5008:5014   */\n      dup5\n        /* \"#utility.yul\":4967:5015   */\n      tag_89\n      jump\t// in\n    tag_166:\n        /* \"#utility.yul\":4951:5016   */\n      tag_88\n      jump\t// in\n    tag_165:\n        /* \"#utility.yul\":4942:5016   */\n      swap1\n      pop\n        /* \"#utility.yul\":5039:5045   */\n      dup3\n        /* \"#utility.yul\":5032:5037   */\n      dup2\n        /* \"#utility.yul\":5025:5046   */\n      mstore\n        /* \"#utility.yul\":5077:5081   */\n      0x20\n        /* \"#utility.yul\":5070:5075   */\n      dup2\n        /* \"#utility.yul\":5066:5082   */\n      add\n        /* \"#utility.yul\":5115:5118   */\n      dup5\n        /* \"#utility.yul\":5106:5112   */\n      dup5\n        /* \"#utility.yul\":5101:5104   */\n      dup5\n        /* \"#utility.yul\":5097:5113   */\n      add\n        /* \"#utility.yul\":5094:5119   */\n      gt\n        /* \"#utility.yul\":5091:5203   */\n      iszero\n      tag_167\n      jumpi\n        /* \"#utility.yul\":5122:5201   */\n      tag_168\n      tag_86\n      jump\t// in\n    tag_168:\n        /* \"#utility.yul\":5091:5203   */\n    tag_167:\n        /* \"#utility.yul\":5212:5253   */\n      tag_169\n        /* \"#utility.yul\":5246:5252   */\n      dup5\n        /* \"#utility.yul\":5241:5244   */\n      dup3\n        /* \"#utility.yul\":5236:5239   */\n      dup6\n        /* \"#utility.yul\":5212:5253   */\n      tag_90\n      jump\t// in\n    tag_169:\n        /* \"#utility.yul\":4932:5259   */\n      pop\n        /* \"#utility.yul\":4849:5259   */\n      swap4\n      swap3\n      pop\n      pop\n      pop\n      jump\t// out\n        /* \"#utility.yul\":5278:5616   */\n    tag_92:\n        /* \"#utility.yul\":5333:5338   */\n      0x00\n        /* \"#utility.yul\":5382:5385   */\n      dup3\n        /* \"#utility.yul\":5375:5379   */\n      0x1f\n        /* \"#utility.yul\":5367:5373   */\n      dup4\n        /* \"#utility.yul\":5363:5380   */\n      add\n        /* \"#utility.yul\":5359:5386   */\n      slt\n        /* \"#utility.yul\":5349:5471   */\n      tag_171\n      jumpi\n        /* \"#utility.yul\":5390:5469   */\n      tag_172\n      tag_85\n      jump\t// in\n    tag_172:\n        /* \"#utility.yul\":5349:5471   */\n    tag_171:\n        /* \"#utility.yul\":5507:5513   */\n      dup2\n        /* \"#utility.yul\":5494:5514   */\n      calldataload\n        /* \"#utility.yul\":5532:5610   */\n      tag_173\n        /* \"#utility.yul\":5606:5609   */\n      dup5\n        /* \"#utility.yul\":5598:5604   */\n      dup3\n        /* \"#utility.yul\":5591:5595   */\n      0x20\n        /* \"#utility.yul\":5583:5589   */\n      dup7\n        /* \"#utility.yul\":5579:5596   */\n      add\n        /* \"#utility.yul\":5532:5610   */\n      tag_91\n      jump\t// in\n    tag_173:\n        /* \"#utility.yul\":5523:5610   */\n      swap2\n      pop\n        /* \"#utility.yul\":5339:5616   */\n      pop\n        /* \"#utility.yul\":5278:5616   */\n      swap3\n      swap2\n      pop\n      pop\n      jump\t// out\n        /* \"#utility.yul\":5622:6129   */\n    tag_20:\n        /* \"#utility.yul\":5690:5696   */\n      0x00\n        /* \"#utility.yul\":5739:5741   */\n      0x20\n        /* \"#utility.yul\":5727:5736   */\n      dup3\n        /* \"#utility.yul\":5718:5725   */\n      dup5\n        /* \"#utility.yul\":5714:5737   */\n      sub\n        /* \"#utility.yul\":5710:5742   */\n      slt\n        /* \"#utility.yul\":5707:5826   */\n      iszero\n      tag_175\n      jumpi\n        /* \"#utility.yul\":5745:5824   */\n      tag_176\n      tag_71\n      jump\t// in\n    tag_176:\n        /* \"#utility.yul\":5707:5826   */\n    tag_175:\n        /* \"#utility.yul\":5893:5894   */\n      0x00\n        /* \"#utility.yul\":5882:5891   */\n      dup3\n        /* \"#utility.yul\":5878:5895   */\n      add\n        /* \"#utility.yul\":5865:5896   */\n      calldataload\n        /* \"#utility.yul\":5923:5941   */\n      0xffffffffffffffff\n        /* \"#utility.yul\":5915:5921   */\n      dup2\n        /* \"#utility.yul\":5912:5942   */\n      gt\n        /* \"#utility.yul\":5909:6026   */\n      iszero\n      tag_177\n      jumpi\n        /* \"#utility.yul\":5945:6024   */\n      tag_178\n      tag_72\n      jump\t// in\n    tag_178:\n        /* \"#utility.yul\":5909:6026   */\n    tag_177:\n        /* \"#utility.yul\":6050:6112   */\n      tag_179\n        /* \"#utility.yul\":6104:6111   */\n      dup5\n        /* \"#utility.yul\":6095:6101   */\n      dup3\n        /* \"#utility.yul\":6084:6093   */\n      dup6\n        /* \"#utility.yul\":6080:6102   */\n      add\n        /* \"#utility.yul\":6050:6112   */\n      tag_92\n      jump\t// in\n    tag_179:\n        /* \"#utility.yul\":6040:6112   */\n      swap2\n      pop\n        /* \"#utility.yul\":5836:6122   */\n      pop\n        /* \"#utility.yul\":5622:6129   */\n      swap3\n      swap2\n      pop\n      pop\n      jump\t// out\n        /* \"#utility.yul\":6135:6315   */\n    tag_33:\n        /* \"#utility.yul\":6183:6260   */\n      0x4e487b7100000000000000000000000000000000000000000000000000000000\n        /* \"#utility.yul\":6180:6181   */\n      0x00\n        /* \"#utility.yul\":6173:6261   */\n      mstore\n        /* \"#utility.yul\":6280:6284   */\n      0x32\n        /* \"#utility.yul\":6277:6278   */\n      0x04\n        /* \"#utility.yul\":6270:6285   */\n      mstore\n        /* \"#utility.yul\":6304:6308   */\n      0x24\n        /* \"#utility.yul\":6301:6302   */\n      0x00\n        /* \"#utility.yul\":6294:6309   */\n      revert\n        /* \"#utility.yul\":6321:6501   */\n    tag_93:\n        /* \"#utility.yul\":6369:6446   */\n      0x4e487b7100000000000000000000000000000000000000000000000000000000\n        /* \"#utility.yul\":6366:6367   */\n      0x00\n        /* \"#utility.yul\":6359:6447   */\n      mstore\n        /* \"#utility.yul\":6466:6470   */\n      0x11\n        /* \"#utility.yul\":6463:6464   */\n      0x04\n        /* \"#utility.yul\":6456:6471   */\n      mstore\n        /* \"#utility.yul\":6490:6494   */\n      0x24\n        /* \"#utility.yul\":6487:6488   */\n      0x00\n        /* \"#utility.yul\":6480:6495   */\n      revert\n        /* \"#utility.yul\":6507:6593   */\n    tag_94:\n        /* \"#utility.yul\":6542:6549   */\n      0x00\n        /* \"#utility.yul\":6582:6586   */\n      0xff\n        /* \"#utility.yul\":6575:6580   */\n      dup3\n        /* \"#utility.yul\":6571:6587   */\n      and\n        /* \"#utility.yul\":6560:6587   */\n      swap1\n      pop\n        /* \"#utility.yul\":6507:6593   */\n      swap2\n      swap1\n      pop\n      jump\t// out\n        /* \"#utility.yul\":6599:6766   */\n    tag_35:\n        /* \"#utility.yul\":6636:6639   */\n      0x00\n        /* \"#utility.yul\":6659:6681   */\n      tag_184\n        /* \"#utility.yul\":6675:6680   */\n      dup3\n        /* \"#utility.yul\":6659:6681   */\n      tag_94\n      jump\t// in\n    tag_184:\n        /* \"#utility.yul\":6650:6681   */\n      swap2\n      pop\n        /* \"#utility.yul\":6703:6707   */\n      0xff\n        /* \"#utility.yul\":6696:6701   */\n      dup3\n        /* \"#utility.yul\":6693:6708   */\n      sub\n        /* \"#utility.yul\":6690:6731   */\n      tag_185\n      jumpi\n        /* \"#utility.yul\":6711:6729   */\n      tag_186\n      tag_93\n      jump\t// in\n    tag_186:\n        /* \"#utility.yul\":6690:6731   */\n    tag_185:\n        /* \"#utility.yul\":6758:6759   */\n      0x01\n        /* \"#utility.yul\":6751:6756   */\n      dup3\n        /* \"#utility.yul\":6747:6760   */\n      add\n        /* \"#utility.yul\":6740:6760   */\n      swap1\n      pop\n        /* \"#utility.yul\":6599:6766   */\n      swap2\n      swap1\n      pop\n      jump\t// out\n        /* \"#utility.yul\":6772:6851   */\n    tag_95:\n        /* \"#utility.yul\":6811:6818   */\n      0x00\n        /* \"#utility.yul\":6840:6845   */\n      dup2\n        /* \"#utility.yul\":6829:6845   */\n      swap1\n      pop\n        /* \"#utility.yul\":6772:6851   */\n      swap2\n      swap1\n      pop\n      jump\t// out\n        /* \"#utility.yul\":6857:7014   */\n    tag_96:\n        /* \"#utility.yul\":6962:7007   */\n      tag_189\n        /* \"#utility.yul\":6982:7006   */\n      tag_190\n        /* \"#utility.yul\":7000:7005   */\n      dup3\n        /* \"#utility.yul\":6982:7006   */\n      tag_81\n      jump\t// in\n    tag_190:\n        /* \"#utility.yul\":6962:7007   */\n      tag_95\n      jump\t// in\n    tag_189:\n        /* \"#utility.yul\":6957:6960   */\n      dup3\n        /* \"#utility.yul\":6950:7008   */\n      mstore\n        /* \"#utility.yul\":6857:7014   */\n      pop\n      pop\n      jump\t// out\n        /* \"#utility.yul\":7020:7276   */\n    tag_53:\n        /* \"#utility.yul\":7132:7135   */\n      0x00\n        /* \"#utility.yul\":7147:7222   */\n      tag_192\n        /* \"#utility.yul\":7218:7221   */\n      dup3\n        /* \"#utility.yul\":7209:7215   */\n      dup5\n        /* \"#utility.yul\":7147:7222   */\n      tag_96\n      jump\t// in\n    tag_192:\n        /* \"#utility.yul\":7247:7249   */\n      0x20\n        /* \"#utility.yul\":7242:7245   */\n      dup3\n        /* \"#utility.yul\":7238:7250   */\n      add\n        /* \"#utility.yul\":7231:7250   */\n      swap2\n      pop\n        /* \"#utility.yul\":7267:7270   */\n      dup2\n        /* \"#utility.yul\":7260:7270   */\n      swap1\n      pop\n        /* \"#utility.yul\":7020:7276   */\n      swap3\n      swap2\n      pop\n      pop\n      jump\t// out\n        /* \"#utility.yul\":7282:7380   */\n    tag_97:\n        /* \"#utility.yul\":7333:7339   */\n      0x00\n        /* \"#utility.yul\":7367:7372   */\n      dup2\n        /* \"#utility.yul\":7361:7373   */\n      mload\n        /* \"#utility.yul\":7351:7373   */\n      swap1\n      pop\n        /* \"#utility.yul\":7282:7380   */\n      swap2\n      swap1\n      pop\n      jump\t// out\n        /* \"#utility.yul\":7386:7502   */\n    tag_98:\n        /* \"#utility.yul\":7437:7441   */\n      0x00\n        /* \"#utility.yul\":7460:7463   */\n      dup2\n        /* \"#utility.yul\":7452:7463   */\n      swap1\n      pop\n        /* \"#utility.yul\":7490:7494   */\n      0x20\n        /* \"#utility.yul\":7485:7488   */\n      dup3\n        /* \"#utility.yul\":7481:7495   */\n      add\n        /* \"#utility.yul\":7473:7495   */\n      swap1\n      pop\n        /* \"#utility.yul\":7386:7502   */\n      swap2\n      swap1\n      pop\n      jump\t// out\n        /* \"#utility.yul\":7508:7662   */\n    tag_99:\n        /* \"#utility.yul\":7551:7562   */\n      0x00\n        /* \"#utility.yul\":7587:7616   */\n      tag_196\n        /* \"#utility.yul\":7611:7614   */\n      dup3\n        /* \"#utility.yul\":7605:7615   */\n      mload\n        /* \"#utility.yul\":7587:7616   */\n      tag_73\n      jump\t// in\n    tag_196:\n        /* \"#utility.yul\":7650:7655   */\n      dup1\n        /* \"#utility.yul\":7626:7655   */\n      swap2\n      pop\n        /* \"#utility.yul\":7563:7662   */\n      pop\n        /* \"#utility.yul\":7508:7662   */\n      swap2\n      swap1\n      pop\n      jump\t// out\n        /* \"#utility.yul\":7668:7775   */\n    tag_100:\n        /* \"#utility.yul\":7712:7720   */\n      0x00\n        /* \"#utility.yul\":7762:7767   */\n      dup3\n        /* \"#utility.yul\":7756:7760   */\n      dup3\n        /* \"#utility.yul\":7752:7768   */\n      shl\n        /* \"#utility.yul\":7731:7768   */\n      swap1\n      pop\n        /* \"#utility.yul\":7668:7775   */\n      swap3\n      swap2\n      pop\n      pop\n      jump\t// out\n        /* \"#utility.yul\":7781:8375   */\n    tag_56:\n        /* \"#utility.yul\":7865:7870   */\n      0x00\n        /* \"#utility.yul\":7896:7934   */\n      tag_199\n        /* \"#utility.yul\":7928:7933   */\n      dup3\n        /* \"#utility.yul\":7896:7934   */\n      tag_97\n      jump\t// in\n    tag_199:\n        /* \"#utility.yul\":7959:7964   */\n      dup3\n        /* \"#utility.yul\":7986:8026   */\n      tag_200\n        /* \"#utility.yul\":8020:8025   */\n      dup5\n        /* \"#utility.yul\":7986:8026   */\n      tag_98\n      jump\t// in\n    tag_200:\n        /* \"#utility.yul\":7974:8026   */\n      swap1\n      pop\n        /* \"#utility.yul\":8045:8080   */\n      tag_201\n        /* \"#utility.yul\":8071:8079   */\n      dup2\n        /* \"#utility.yul\":8045:8080   */\n      tag_99\n      jump\t// in\n    tag_201:\n        /* \"#utility.yul\":8036:8080   */\n      swap3\n      pop\n        /* \"#utility.yul\":8104:8106   */\n      0x20\n        /* \"#utility.yul\":8096:8102   */\n      dup3\n        /* \"#utility.yul\":8093:8107   */\n      lt\n        /* \"#utility.yul\":8090:8368   */\n      iszero\n      tag_202\n      jumpi\n        /* \"#utility.yul\":8175:8344   */\n      tag_203\n        /* \"#utility.yul\":8260:8326   */\n      0xffffffffffffffffffffffffffffffffffffffffffffffffffffffffffffffff\n        /* \"#utility.yul\":8230:8236   */\n      dup4\n        /* \"#utility.yul\":8226:8228   */\n      0x20\n        /* \"#utility.yul\":8222:8237   */\n      sub\n        /* \"#utility.yul\":8219:8220   */\n      0x08\n        /* \"#utility.yul\":8215:8238   */\n      mul\n        /* \"#utility.yul\":8175:8344   */\n      tag_100\n      jump\t// in\n    tag_203:\n        /* \"#utility.yul\":8152:8157   */\n      dup4\n        /* \"#utility.yul\":8131:8358   */\n      and\n        /* \"#utility.yul\":8122:8358   */\n      swap3\n      pop\n        /* \"#utility.yul\":8090:8368   */\n    tag_202:\n        /* \"#utility.yul\":7871:8375   */\n      pop\n      pop\n        /* \"#utility.yul\":7781:8375   */\n      swap2\n      swap1\n      pop\n      jump\t// out\n        /* \"#utility.yul\":8381:8529   */\n    tag_101:\n        /* \"#utility.yul\":8483:8494   */\n      0x00\n        /* \"#utility.yul\":8520:8523   */\n      dup2\n        /* \"#utility.yul\":8505:8523   */\n      swap1\n      pop\n        /* \"#utility.yul\":8381:8529   */\n      swap3\n      swap2\n      pop\n      pop\n      jump\t// out\n        /* \"#utility.yul\":8535:8687   */\n    tag_102:\n        /* \"#utility.yul\":8675:8679   */\n      0x3078000000000000000000000000000000000000000000000000000000000000\n        /* \"#utility.yul\":8671:8672   */\n      0x00\n        /* \"#utility.yul\":8663:8669   */\n      dup3\n        /* \"#utility.yul\":8659:8673   */\n      add\n        /* \"#utility.yul\":8652:8680   */\n      mstore\n        /* \"#utility.yul\":8535:8687   */\n      pop\n      jump\t// out\n        /* \"#utility.yul\":8693:9093   */\n    tag_103:\n        /* \"#utility.yul\":8853:8856   */\n      0x00\n        /* \"#utility.yul\":8874:8958   */\n      tag_207\n        /* \"#utility.yul\":8956:8957   */\n      0x02\n        /* \"#utility.yul\":8951:8954   */\n      dup4\n        /* \"#utility.yul\":8874:8958   */\n      tag_101\n      jump\t// in\n    tag_207:\n        /* \"#utility.yul\":8867:8958   */\n      swap2\n      pop\n        /* \"#utility.yul\":8967:9060   */\n      tag_208\n        /* \"#utility.yul\":9056:9059   */\n      dup3\n        /* \"#utility.yul\":8967:9060   */\n      tag_102\n      jump\t// in\n    tag_208:\n        /* \"#utility.yul\":9085:9086   */\n      0x02\n        /* \"#utility.yul\":9080:9083   */\n      dup3\n        /* \"#utility.yul\":9076:9087   */\n      add\n        /* \"#utility.yul\":9069:9087   */\n      swap1\n      pop\n        /* \"#utility.yul\":8693:9093   */\n      swap2\n      swap1\n      pop\n      jump\t// out\n        /* \"#utility.yul\":9099:9178   */\n    tag_104:\n        /* \"#utility.yul\":9138:9145   */\n      0x00\n        /* \"#utility.yul\":9167:9172   */\n      dup2\n        /* \"#utility.yul\":9156:9172   */\n      swap1\n      pop\n        /* \"#utility.yul\":9099:9178   */\n      swap2\n      swap1\n      pop\n      jump\t// out\n        /* \"#utility.yul\":9184:9341   */\n    tag_105:\n        /* \"#utility.yul\":9289:9334   */\n      tag_211\n        /* \"#utility.yul\":9309:9333   */\n      tag_212\n        /* \"#utility.yul\":9327:9332   */\n      dup3\n        /* \"#utility.yul\":9309:9333   */\n      tag_73\n      jump\t// in\n    tag_212:\n        /* \"#utility.yul\":9289:9334   */\n      tag_104\n      jump\t// in\n    tag_211:\n        /* \"#utility.yul\":9284:9287   */\n      dup3\n        /* \"#utility.yul\":9277:9335   */\n      mstore\n        /* \"#utility.yul\":9184:9341   */\n      pop\n      pop\n      jump\t// out\n        /* \"#utility.yul\":9347:10010   */\n    tag_62:\n        /* \"#utility.yul\":9588:9591   */\n      0x00\n        /* \"#utility.yul\":9610:9758   */\n      tag_214\n        /* \"#utility.yul\":9754:9757   */\n      dup3\n        /* \"#utility.yul\":9610:9758   */\n      tag_103\n      jump\t// in\n    tag_214:\n        /* \"#utility.yul\":9603:9758   */\n      swap2\n      pop\n        /* \"#utility.yul\":9768:9843   */\n      tag_215\n        /* \"#utility.yul\":9839:9842   */\n      dup3\n        /* \"#utility.yul\":9830:9836   */\n      dup6\n        /* \"#utility.yul\":9768:9843   */\n      tag_105\n      jump\t// in\n    tag_215:\n        /* \"#utility.yul\":9868:9870   */\n      0x20\n        /* \"#utility.yul\":9863:9866   */\n      dup3\n        /* \"#utility.yul\":9859:9871   */\n      add\n        /* \"#utility.yul\":9852:9871   */\n      swap2\n      pop\n        /* \"#utility.yul\":9881:9956   */\n      tag_216\n        /* \"#utility.yul\":9952:9955   */\n      dup3\n        /* \"#utility.yul\":9943:9949   */\n      dup5\n        /* \"#utility.yul\":9881:9956   */\n      tag_105\n      jump\t// in\n    tag_216:\n        /* \"#utility.yul\":9981:9983   */\n      0x20\n        /* \"#utility.yul\":9976:9979   */\n      dup3\n        /* \"#utility.yul\":9972:9984   */\n      add\n        /* \"#utility.yul\":9965:9984   */\n      swap2\n      pop\n        /* \"#utility.yul\":10001:10004   */\n      dup2\n        /* \"#utility.yul\":9994:10004   */\n      swap1\n      pop\n        /* \"#utility.yul\":9347:10010   */\n      swap4\n      swap3\n      pop\n      pop\n      pop\n      jump\t// out\n        /* \"#utility.yul\":10016:10321   */\n    tag_65:\n        /* \"#utility.yul\":10056:10059   */\n      0x00\n        /* \"#utility.yul\":10075:10095   */\n      tag_218\n        /* \"#utility.yul\":10093:10094   */\n      dup3\n        /* \"#utility.yul\":10075:10095   */\n      tag_81\n      jump\t// in\n    tag_218:\n        /* \"#utility.yul\":10070:10095   */\n      swap2\n      pop\n        /* \"#utility.yul\":10109:10129   */\n      tag_219\n        /* \"#utility.yul\":10127:10128   */\n      dup4\n        /* \"#utility.yul\":10109:10129   */\n      tag_81\n      jump\t// in\n    tag_219:\n        /* \"#utility.yul\":10104:10129   */\n      swap3\n      pop\n        /* \"#utility.yul\":10263:10264   */\n      dup3\n        /* \"#utility.yul\":10195:10261   */\n      0xffffffffffffffffffffffffffffffffffffffffffffffffffffffffffffffff\n        /* \"#utility.yul\":10191:10265   */\n      sub\n        /* \"#utility.yul\":10188:10189   */\n      dup3\n        /* \"#utility.yul\":10185:10266   */\n      gt\n        /* \"#utility.yul\":10182:10289   */\n      iszero\n      tag_220\n      jumpi\n        /* \"#utility.yul\":10269:10287   */\n      tag_221\n      tag_93\n      jump\t// in\n    tag_221:\n        /* \"#utility.yul\":10182:10289   */\n    tag_220:\n        /* \"#utility.yul\":10313:10314   */\n      dup3\n        /* \"#utility.yul\":10310:10311   */\n      dup3\n        /* \"#utility.yul\":10306:10315   */\n      add\n        /* \"#utility.yul\":10299:10315   */\n      swap1\n      pop\n        /* \"#utility.yul\":10016:10321   */\n      swap3\n      swap2\n      pop\n      pop\n      jump\t// out\n        /* \"#utility.yul\":10327:10675   */\n    tag_67:\n        /* \"#utility.yul\":10367:10374   */\n      0x00\n        /* \"#utility.yul\":10390:10410   */\n      tag_223\n        /* \"#utility.yul\":10408:10409   */\n      dup3\n        /* \"#utility.yul\":10390:10410   */\n      tag_81\n      jump\t// in\n    tag_223:\n        /* \"#utility.yul\":10385:10410   */\n      swap2\n      pop\n        /* \"#utility.yul\":10424:10444   */\n      tag_224\n        /* \"#utility.yul\":10442:10443   */\n      dup4\n        /* \"#utility.yul\":10424:10444   */\n      tag_81\n      jump\t// in\n    tag_224:\n        /* \"#utility.yul\":10419:10444   */\n      swap3\n      pop\n        /* \"#utility.yul\":10612:10613   */\n      dup2\n        /* \"#utility.yul\":10544:10610   */\n      0xffffffffffffffffffffffffffffffffffffffffffffffffffffffffffffffff\n        /* \"#utility.yul\":10540:10614   */\n      div\n        /* \"#utility.yul\":10537:10538   */\n      dup4\n        /* \"#utility.yul\":10534:10615   */\n      gt\n        /* \"#utility.yul\":10529:10530   */\n      dup3\n        /* \"#utility.yul\":10522:10531   */\n      iszero\n        /* \"#utility.yul\":10515:10532   */\n      iszero\n        /* \"#utility.yul\":10511:10616   */\n      and\n        /* \"#utility.yul\":10508:10639   */\n      iszero\n      tag_225\n      jumpi\n        /* \"#utility.yul\":10619:10637   */\n      tag_226\n      tag_93\n      jump\t// in\n    tag_226:\n        /* \"#utility.yul\":10508:10639   */\n    tag_225:\n        /* \"#utility.yul\":10667:10668   */\n      dup3\n        /* \"#utility.yul\":10664:10665   */\n      dup3\n        /* \"#utility.yul\":10660:10669   */\n      mul\n        /* \"#utility.yul\":10649:10669   */\n      swap1\n      pop\n        /* \"#utility.yul\":10327:10675   */\n      swap3\n      swap2\n      pop\n      pop\n      jump\t// out\n\n    auxdata: 0xa2646970667358221220056dd208342a1745727edfba16d8c16ef969666e4bbc18546d9e5617cb7b0e6964736f6c634300080d0033\n}\n",
				"bytecode": {
					"linkReferences": {},
					"object": "610bde610053600b82828239805160001a607314610046577f4e487b7100000000000000000000000000000000000000000000000000000000600052600060045260246000fd5b30600052607381538281f3fe73000000000000000000000000000000000000000030146080604052600436106100565760003560e01c80632dd042371461005b578063886d3db91461008b578063aa35bf9b146100bb578063c68b3787146100eb575b600080fd5b610075600480360381019061007091906105e2565b61011b565b60405161008291906106a8565b60405180910390f35b6100a560048036038101906100a09190610700565b6102b6565b6040516100b2919061073c565b60405180910390f35b6100d560048036038101906100d0919061088c565b6102e6565b6040516100e2919061073c565b60405180910390f35b610105600480360381019061010091906105e2565b6102f9565b60405161011291906106a8565b60405180910390f35b606060005b60208160ff161080156101725750600060f81b838260ff1660208110610149576101486108d5565b5b1a60f81b7effffffffffffffffffffffffffffffffffffffffffffffffffffffffffffff191614155b1561018a57808061018290610940565b915050610120565b60008160ff1667ffffffffffffffff8111156101a9576101a8610761565b5b6040519080825280601f01601f1916602001820160405280156101db5781602001600182028036833780820191505090505b509050600091505b60208260ff161080156102355750600060f81b848360ff166020811061020c5761020b6108d5565b5b1a60f81b7effffffffffffffffffffffffffffffffffffffffffffffffffffffffffffff191614155b156102ac57838260ff16602081106102505761024f6108d5565b5b1a60f81b818360ff168151811061026a576102696108d5565b5b60200101907effffffffffffffffffffffffffffffffffffffffffffffffffffffffffffff1916908160001a90535081806102a490610940565b9250506101e3565b8092505050919050565b6000816040516020016102c9919061098a565b604051602081830303815290604052805190602001209050919050565b6000816102f2906109e2565b9050919050565b606061030482610338565b610311608084901b610338565b604051602001610322929190610ac1565b6040516020818303038152906040529050919050565b6000604077ffffffffffffffff0000000000000000000000000000000060001b836fffffffffffffffffffffffffffffffff191616901c7fffffffffffffffff00000000000000000000000000000000000000000000000060001b836fffffffffffffffffffffffffffffffff19161617905060207bffffffff000000000000000000000000ffffffff000000000000000060001b8216901c7fffffffff000000000000000000000000ffffffff00000000000000000000000060001b821617905060107dffff000000000000ffff000000000000ffff000000000000ffff0000000060001b8216901c7fffff000000000000ffff000000000000ffff000000000000ffff00000000000060001b821617905060087eff000000ff000000ff000000ff000000ff000000ff000000ff000000ff000060001b8216901c7fff000000ff000000ff000000ff000000ff000000ff000000ff000000ff00000060001b821617905060087f0f000f000f000f000f000f000f000f000f000f000f000f000f000f000f000f0060001b8216901c60047ff000f000f000f000f000f000f000f000f000f000f000f000f000f000f000f00060001b8316901c17905060077f0f0f0f0f0f0f0f0f0f0f0f0f0f0f0f0f0f0f0f0f0f0f0f0f0f0f0f0f0f0f0f0f60047f06060606060606060606060606060606060606060606060606060606060606068460001c6105489190610af8565b901c166105559190610b4e565b8160001c7f30303030303030303030303030303030303030303030303030303030303030306105849190610af8565b61058e9190610af8565b60001b9050919050565b6000604051905090565b600080fd5b600080fd5b6000819050919050565b6105bf816105ac565b81146105ca57600080fd5b50565b6000813590506105dc816105b6565b92915050565b6000602082840312156105f8576105f76105a2565b5b6000610606848285016105cd565b91505092915050565b600081519050919050565b600082825260208201905092915050565b60005b8381101561064957808201518184015260208101905061062e565b83811115610658576000848401525b50505050565b6000601f19601f8301169050919050565b600061067a8261060f565b610684818561061a565b935061069481856020860161062b565b61069d8161065e565b840191505092915050565b600060208201905081810360008301526106c2818461066f565b905092915050565b6000819050919050565b6106dd816106ca565b81146106e857600080fd5b50565b6000813590506106fa816106d4565b92915050565b600060208284031215610716576107156105a2565b5b6000610724848285016106eb565b91505092915050565b610736816105ac565b82525050565b6000602082019050610751600083018461072d565b92915050565b600080fd5b600080fd5b7f4e487b7100000000000000000000000000000000000000000000000000000000600052604160045260246000fd5b6107998261065e565b810181811067ffffffffffffffff821117156107b8576107b7610761565b5b80604052505050565b60006107cb610598565b90506107d78282610790565b919050565b600067ffffffffffffffff8211156107f7576107f6610761565b5b6108008261065e565b9050602081019050919050565b82818337600083830152505050565b600061082f61082a846107dc565b6107c1565b90508281526020810184848401111561084b5761084a61075c565b5b61085684828561080d565b509392505050565b600082601f83011261087357610872610757565b5b813561088384826020860161081c565b91505092915050565b6000602082840312156108a2576108a16105a2565b5b600082013567ffffffffffffffff8111156108c0576108bf6105a7565b5b6108cc8482850161085e565b91505092915050565b7f4e487b7100000000000000000000000000000000000000000000000000000000600052603260045260246000fd5b7f4e487b7100000000000000000000000000000000000000000000000000000000600052601160045260246000fd5b600060ff82169050919050565b600061094b82610933565b915060ff820361095e5761095d610904565b5b600182019050919050565b6000819050919050565b61098461097f826106ca565b610969565b82525050565b60006109968284610973565b60208201915081905092915050565b600081519050919050565b6000819050602082019050919050565b60006109cc82516105ac565b80915050919050565b600082821b905092915050565b60006109ed826109a5565b826109f7846109b0565b9050610a02816109c0565b92506020821015610a4257610a3d7fffffffffffffffffffffffffffffffffffffffffffffffffffffffffffffffff836020036008026109d5565b831692505b5050919050565b600081905092915050565b7f3078000000000000000000000000000000000000000000000000000000000000600082015250565b6000610a8a600283610a49565b9150610a9582610a54565b600282019050919050565b6000819050919050565b610abb610ab6826105ac565b610aa0565b82525050565b6000610acc82610a7d565b9150610ad88285610aaa565b602082019150610ae88284610aaa565b6020820191508190509392505050565b6000610b03826106ca565b9150610b0e836106ca565b9250827fffffffffffffffffffffffffffffffffffffffffffffffffffffffffffffffff03821115610b4357610b42610904565b5b828201905092915050565b6000610b59826106ca565b9150610b64836106ca565b9250817fffffffffffffffffffffffffffffffffffffffffffffffffffffffffffffffff0483118215151615610b9d57610b9c610904565b5b82820290509291505056fea2646970667358221220056dd208342a1745727edfba16d8c16ef969666e4bbc18546d9e5617cb7b0e6964736f6c634300080d0033",
					"opcodes": "PUSH2 0xBDE PUSH2 0x53 PUSH1 0xB DUP3 DUP3 DUP3 CODECOPY DUP1 MLOAD PUSH1 0x0 BYTE PUSH1 0x73 EQ PUSH2 0x46 JUMPI PUSH32 0x4E487B7100000000000000000000000000000000000000000000000000000000 PUSH1 0x0 MSTORE PUSH1 0x0 PUSH1 0x4 MSTORE PUSH1 0x24 PUSH1 0x0 REVERT JUMPDEST ADDRESS PUSH1 0x0 MSTORE PUSH1 0x73 DUP2 MSTORE8 DUP3 DUP2 RETURN INVALID PUSH20 0x0 ADDRESS EQ PUSH1 0x80 PUSH1 0x40 MSTORE PUSH1 0x4 CALLDATASIZE LT PUSH2 0x56 JUMPI PUSH1 0x0 CALLDATALOAD PUSH1 0xE0 SHR DUP1 PUSH4 0x2DD04237 EQ PUSH2 0x5B JUMPI DUP1 PUSH4 0x886D3DB9 EQ PUSH2 0x8B JUMPI DUP1 PUSH4 0xAA35BF9B EQ PUSH2 0xBB JUMPI DUP1 PUSH4 0xC68B3787 EQ PUSH2 0xEB JUMPI JUMPDEST PUSH1 0x0 DUP1 REVERT JUMPDEST PUSH2 0x75 PUSH1 0x4 DUP1 CALLDATASIZE SUB DUP2 ADD SWAP1 PUSH2 0x70 SWAP2 SWAP1 PUSH2 0x5E2 JUMP JUMPDEST PUSH2 0x11B JUMP JUMPDEST PUSH1 0x40 MLOAD PUSH2 0x82 SWAP2 SWAP1 PUSH2 0x6A8 JUMP JUMPDEST PUSH1 0x40 MLOAD DUP1 SWAP2 SUB SWAP1 RETURN JUMPDEST PUSH2 0xA5 PUSH1 0x4 DUP1 CALLDATASIZE SUB DUP2 ADD SWAP1 PUSH2 0xA0 SWAP2 SWAP1 PUSH2 0x700 JUMP JUMPDEST PUSH2 0x2B6 JUMP JUMPDEST PUSH1 0x40 MLOAD PUSH2 0xB2 SWAP2 SWAP1 PUSH2 0x73C JUMP JUMPDEST PUSH1 0x40 MLOAD DUP1 SWAP2 SUB SWAP1 RETURN JUMPDEST PUSH2 0xD5 PUSH1 0x4 DUP1 CALLDATASIZE SUB DUP2 ADD SWAP1 PUSH2 0xD0 SWAP2 SWAP1 PUSH2 0x88C JUMP JUMPDEST PUSH2 0x2E6 JUMP JUMPDEST PUSH1 0x40 MLOAD PUSH2 0xE2 SWAP2 SWAP1 PUSH2 0x73C JUMP JUMPDEST PUSH1 0x40 MLOAD DUP1 SWAP2 SUB SWAP1 RETURN JUMPDEST PUSH2 0x105 PUSH1 0x4 DUP1 CALLDATASIZE SUB DUP2 ADD SWAP1 PUSH2 0x100 SWAP2 SWAP1 PUSH2 0x5E2 JUMP JUMPDEST PUSH2 0x2F9 JUMP JUMPDEST PUSH1 0x40 MLOAD PUSH2 0x112 SWAP2 SWAP1 PUSH2 0x6A8 JUMP JUMPDEST PUSH1 0x40 MLOAD DUP1 SWAP2 SUB SWAP1 RETURN JUMPDEST PUSH1 0x60 PUSH1 0x0 JUMPDEST PUSH1 0x20 DUP2 PUSH1 0xFF AND LT DUP1 ISZERO PUSH2 0x172 JUMPI POP PUSH1 0x0 PUSH1 0xF8 SHL DUP4 DUP3 PUSH1 0xFF AND PUSH1 0x20 DUP2 LT PUSH2 0x149 JUMPI PUSH2 0x148 PUSH2 0x8D5 JUMP JUMPDEST JUMPDEST BYTE PUSH1 0xF8 SHL PUSH31 0xFFFFFFFFFFFFFFFFFFFFFFFFFFFFFFFFFFFFFFFFFFFFFFFFFFFFFFFFFFFFFF NOT AND EQ ISZERO JUMPDEST ISZERO PUSH2 0x18A JUMPI DUP1 DUP1 PUSH2 0x182 SWAP1 PUSH2 0x940 JUMP JUMPDEST SWAP2 POP POP PUSH2 0x120 JUMP JUMPDEST PUSH1 0x0 DUP2 PUSH1 0xFF AND PUSH8 0xFFFFFFFFFFFFFFFF DUP2 GT ISZERO PUSH2 0x1A9 JUMPI PUSH2 0x1A8 PUSH2 0x761 JUMP JUMPDEST JUMPDEST PUSH1 0x40 MLOAD SWAP1 DUP1 DUP3 MSTORE DUP1 PUSH1 0x1F ADD PUSH1 0x1F NOT AND PUSH1 0x20 ADD DUP3 ADD PUSH1 0x40 MSTORE DUP1 ISZERO PUSH2 0x1DB JUMPI DUP2 PUSH1 0x20 ADD PUSH1 0x1 DUP3 MUL DUP1 CALLDATASIZE DUP4 CALLDATACOPY DUP1 DUP3 ADD SWAP2 POP POP SWAP1 POP JUMPDEST POP SWAP1 POP PUSH1 0x0 SWAP2 POP JUMPDEST PUSH1 0x20 DUP3 PUSH1 0xFF AND LT DUP1 ISZERO PUSH2 0x235 JUMPI POP PUSH1 0x0 PUSH1 0xF8 SHL DUP5 DUP4 PUSH1 0xFF AND PUSH1 0x20 DUP2 LT PUSH2 0x20C JUMPI PUSH2 0x20B PUSH2 0x8D5 JUMP JUMPDEST JUMPDEST BYTE PUSH1 0xF8 SHL PUSH31 0xFFFFFFFFFFFFFFFFFFFFFFFFFFFFFFFFFFFFFFFFFFFFFFFFFFFFFFFFFFFFFF NOT AND EQ ISZERO JUMPDEST ISZERO PUSH2 0x2AC JUMPI DUP4 DUP3 PUSH1 0xFF AND PUSH1 0x20 DUP2 LT PUSH2 0x250 JUMPI PUSH2 0x24F PUSH2 0x8D5 JUMP JUMPDEST JUMPDEST BYTE PUSH1 0xF8 SHL DUP2 DUP4 PUSH1 0xFF AND DUP2 MLOAD DUP2 LT PUSH2 0x26A JUMPI PUSH2 0x269 PUSH2 0x8D5 JUMP JUMPDEST JUMPDEST PUSH1 0x20 ADD ADD SWAP1 PUSH31 0xFFFFFFFFFFFFFFFFFFFFFFFFFFFFFFFFFFFFFFFFFFFFFFFFFFFFFFFFFFFFFF NOT AND SWAP1 DUP2 PUSH1 0x0 BYTE SWAP1 MSTORE8 POP DUP2 DUP1 PUSH2 0x2A4 SWAP1 PUSH2 0x940 JUMP JUMPDEST SWAP3 POP POP PUSH2 0x1E3 JUMP JUMPDEST DUP1 SWAP3 POP POP POP SWAP2 SWAP1 POP JUMP JUMPDEST PUSH1 0x0 DUP2 PUSH1 0x40 MLOAD PUSH1 0x20 ADD PUSH2 0x2C9 SWAP2 SWAP1 PUSH2 0x98A JUMP JUMPDEST PUSH1 0x40 MLOAD PUSH1 0x20 DUP2 DUP4 SUB SUB DUP2 MSTORE SWAP1 PUSH1 0x40 MSTORE DUP1 MLOAD SWAP1 PUSH1 0x20 ADD KECCAK256 SWAP1 POP SWAP2 SWAP1 POP JUMP JUMPDEST PUSH1 0x0 DUP2 PUSH2 0x2F2 SWAP1 PUSH2 0x9E2 JUMP JUMPDEST SWAP1 POP SWAP2 SWAP1 POP JUMP JUMPDEST PUSH1 0x60 PUSH2 0x304 DUP3 PUSH2 0x338 JUMP JUMPDEST PUSH2 0x311 PUSH1 0x80 DUP5 SWAP1 SHL PUSH2 0x338 JUMP JUMPDEST PUSH1 0x40 MLOAD PUSH1 0x20 ADD PUSH2 0x322 SWAP3 SWAP2 SWAP1 PUSH2 0xAC1 JUMP JUMPDEST PUSH1 0x40 MLOAD PUSH1 0x20 DUP2 DUP4 SUB SUB DUP2 MSTORE SWAP1 PUSH1 0x40 MSTORE SWAP1 POP SWAP2 SWAP1 POP JUMP JUMPDEST PUSH1 0x0 PUSH1 0x40 PUSH24 0xFFFFFFFFFFFFFFFF00000000000000000000000000000000 PUSH1 0x0 SHL DUP4 PUSH16 0xFFFFFFFFFFFFFFFFFFFFFFFFFFFFFFFF NOT AND AND SWAP1 SHR PUSH32 0xFFFFFFFFFFFFFFFF000000000000000000000000000000000000000000000000 PUSH1 0x0 SHL DUP4 PUSH16 0xFFFFFFFFFFFFFFFFFFFFFFFFFFFFFFFF NOT AND AND OR SWAP1 POP PUSH1 0x20 PUSH28 0xFFFFFFFF000000000000000000000000FFFFFFFF0000000000000000 PUSH1 0x0 SHL DUP3 AND SWAP1 SHR PUSH32 0xFFFFFFFF000000000000000000000000FFFFFFFF000000000000000000000000 PUSH1 0x0 SHL DUP3 AND OR SWAP1 POP PUSH1 0x10 PUSH30 0xFFFF000000000000FFFF000000000000FFFF000000000000FFFF00000000 PUSH1 0x0 SHL DUP3 AND SWAP1 SHR PUSH32 0xFFFF000000000000FFFF000000000000FFFF000000000000FFFF000000000000 PUSH1 0x0 SHL DUP3 AND OR SWAP1 POP PUSH1 0x8 PUSH31 0xFF000000FF000000FF000000FF000000FF000000FF000000FF000000FF0000 PUSH1 0x0 SHL DUP3 AND SWAP1 SHR PUSH32 0xFF000000FF000000FF000000FF000000FF000000FF000000FF000000FF000000 PUSH1 0x0 SHL DUP3 AND OR SWAP1 POP PUSH1 0x8 PUSH32 0xF000F000F000F000F000F000F000F000F000F000F000F000F000F000F000F00 PUSH1 0x0 SHL DUP3 AND SWAP1 SHR PUSH1 0x4 PUSH32 0xF000F000F000F000F000F000F000F000F000F000F000F000F000F000F000F000 PUSH1 0x0 SHL DUP4 AND SWAP1 SHR OR SWAP1 POP PUSH1 0x7 PUSH32 0xF0F0F0F0F0F0F0F0F0F0F0F0F0F0F0F0F0F0F0F0F0F0F0F0F0F0F0F0F0F0F0F PUSH1 0x4 PUSH32 0x606060606060606060606060606060606060606060606060606060606060606 DUP5 PUSH1 0x0 SHR PUSH2 0x548 SWAP2 SWAP1 PUSH2 0xAF8 JUMP JUMPDEST SWAP1 SHR AND PUSH2 0x555 SWAP2 SWAP1 PUSH2 0xB4E JUMP JUMPDEST DUP2 PUSH1 0x0 SHR PUSH32 0x3030303030303030303030303030303030303030303030303030303030303030 PUSH2 0x584 SWAP2 SWAP1 PUSH2 0xAF8 JUMP JUMPDEST PUSH2 0x58E SWAP2 SWAP1 PUSH2 0xAF8 JUMP JUMPDEST PUSH1 0x0 SHL SWAP1 POP SWAP2 SWAP1 POP JUMP JUMPDEST PUSH1 0x0 PUSH1 0x40 MLOAD SWAP1 POP SWAP1 JUMP JUMPDEST PUSH1 0x0 DUP1 REVERT JUMPDEST PUSH1 0x0 DUP1 REVERT JUMPDEST PUSH1 0x0 DUP2 SWAP1 POP SWAP2 SWAP1 POP JUMP JUMPDEST PUSH2 0x5BF DUP2 PUSH2 0x5AC JUMP JUMPDEST DUP2 EQ PUSH2 0x5CA JUMPI PUSH1 0x0 DUP1 REVERT JUMPDEST POP JUMP JUMPDEST PUSH1 0x0 DUP2 CALLDATALOAD SWAP1 POP PUSH2 0x5DC DUP2 PUSH2 0x5B6 JUMP JUMPDEST SWAP3 SWAP2 POP POP JUMP JUMPDEST PUSH1 0x0 PUSH1 0x20 DUP3 DUP5 SUB SLT ISZERO PUSH2 0x5F8 JUMPI PUSH2 0x5F7 PUSH2 0x5A2 JUMP JUMPDEST JUMPDEST PUSH1 0x0 PUSH2 0x606 DUP5 DUP3 DUP6 ADD PUSH2 0x5CD JUMP JUMPDEST SWAP2 POP POP SWAP3 SWAP2 POP POP JUMP JUMPDEST PUSH1 0x0 DUP2 MLOAD SWAP1 POP SWAP2 SWAP1 POP JUMP JUMPDEST PUSH1 0x0 DUP3 DUP3 MSTORE PUSH1 0x20 DUP3 ADD SWAP1 POP SWAP3 SWAP2 POP POP JUMP JUMPDEST PUSH1 0x0 JUMPDEST DUP4 DUP2 LT ISZERO PUSH2 0x649 JUMPI DUP1 DUP3 ADD MLOAD DUP2 DUP5 ADD MSTORE PUSH1 0x20 DUP2 ADD SWAP1 POP PUSH2 0x62E JUMP JUMPDEST DUP4 DUP2 GT ISZERO PUSH2 0x658 JUMPI PUSH1 0x0 DUP5 DUP5 ADD MSTORE JUMPDEST POP POP POP POP JUMP JUMPDEST PUSH1 0x0 PUSH1 0x1F NOT PUSH1 0x1F DUP4 ADD AND SWAP1 POP SWAP2 SWAP1 POP JUMP JUMPDEST PUSH1 0x0 PUSH2 0x67A DUP3 PUSH2 0x60F JUMP JUMPDEST PUSH2 0x684 DUP2 DUP6 PUSH2 0x61A JUMP JUMPDEST SWAP4 POP PUSH2 0x694 DUP2 DUP6 PUSH1 0x20 DUP7 ADD PUSH2 0x62B JUMP JUMPDEST PUSH2 0x69D DUP2 PUSH2 0x65E JUMP JUMPDEST DUP5 ADD SWAP2 POP POP SWAP3 SWAP2 POP POP JUMP JUMPDEST PUSH1 0x0 PUSH1 0x20 DUP3 ADD SWAP1 POP DUP2 DUP2 SUB PUSH1 0x0 DUP4 ADD MSTORE PUSH2 0x6C2 DUP2 DUP5 PUSH2 0x66F JUMP JUMPDEST SWAP1 POP SWAP3 SWAP2 POP POP JUMP JUMPDEST PUSH1 0x0 DUP2 SWAP1 POP SWAP2 SWAP1 POP JUMP JUMPDEST PUSH2 0x6DD DUP2 PUSH2 0x6CA JUMP JUMPDEST DUP2 EQ PUSH2 0x6E8 JUMPI PUSH1 0x0 DUP1 REVERT JUMPDEST POP JUMP JUMPDEST PUSH1 0x0 DUP2 CALLDATALOAD SWAP1 POP PUSH2 0x6FA DUP2 PUSH2 0x6D4 JUMP JUMPDEST SWAP3 SWAP2 POP POP JUMP JUMPDEST PUSH1 0x0 PUSH1 0x20 DUP3 DUP5 SUB SLT ISZERO PUSH2 0x716 JUMPI PUSH2 0x715 PUSH2 0x5A2 JUMP JUMPDEST JUMPDEST PUSH1 0x0 PUSH2 0x724 DUP5 DUP3 DUP6 ADD PUSH2 0x6EB JUMP JUMPDEST SWAP2 POP POP SWAP3 SWAP2 POP POP JUMP JUMPDEST PUSH2 0x736 DUP2 PUSH2 0x5AC JUMP JUMPDEST DUP3 MSTORE POP POP JUMP JUMPDEST PUSH1 0x0 PUSH1 0x20 DUP3 ADD SWAP1 POP PUSH2 0x751 PUSH1 0x0 DUP4 ADD DUP5 PUSH2 0x72D JUMP JUMPDEST SWAP3 SWAP2 POP POP JUMP JUMPDEST PUSH1 0x0 DUP1 REVERT JUMPDEST PUSH1 0x0 DUP1 REVERT JUMPDEST PUSH32 0x4E487B7100000000000000000000000000000000000000000000000000000000 PUSH1 0x0 MSTORE PUSH1 0x41 PUSH1 0x4 MSTORE PUSH1 0x24 PUSH1 0x0 REVERT JUMPDEST PUSH2 0x799 DUP3 PUSH2 0x65E JUMP JUMPDEST DUP2 ADD DUP2 DUP2 LT PUSH8 0xFFFFFFFFFFFFFFFF DUP3 GT OR ISZERO PUSH2 0x7B8 JUMPI PUSH2 0x7B7 PUSH2 0x761 JUMP JUMPDEST JUMPDEST DUP1 PUSH1 0x40 MSTORE POP POP POP JUMP JUMPDEST PUSH1 0x0 PUSH2 0x7CB PUSH2 0x598 JUMP JUMPDEST SWAP1 POP PUSH2 0x7D7 DUP3 DUP3 PUSH2 0x790 JUMP JUMPDEST SWAP2 SWAP1 POP JUMP JUMPDEST PUSH1 0x0 PUSH8 0xFFFFFFFFFFFFFFFF DUP3 GT ISZERO PUSH2 0x7F7 JUMPI PUSH2 0x7F6 PUSH2 0x761 JUMP JUMPDEST JUMPDEST PUSH2 0x800 DUP3 PUSH2 0x65E JUMP JUMPDEST SWAP1 POP PUSH1 0x20 DUP2 ADD SWAP1 POP SWAP2 SWAP1 POP JUMP JUMPDEST DUP3 DUP2 DUP4 CALLDATACOPY PUSH1 0x0 DUP4 DUP4 ADD MSTORE POP POP POP JUMP JUMPDEST PUSH1 0x0 PUSH2 0x82F PUSH2 0x82A DUP5 PUSH2 0x7DC JUMP JUMPDEST PUSH2 0x7C1 JUMP JUMPDEST SWAP1 POP DUP3 DUP2 MSTORE PUSH1 0x20 DUP2 ADD DUP5 DUP5 DUP5 ADD GT ISZERO PUSH2 0x84B JUMPI PUSH2 0x84A PUSH2 0x75C JUMP JUMPDEST JUMPDEST PUSH2 0x856 DUP5 DUP3 DUP6 PUSH2 0x80D JUMP JUMPDEST POP SWAP4 SWAP3 POP POP POP JUMP JUMPDEST PUSH1 0x0 DUP3 PUSH1 0x1F DUP4 ADD SLT PUSH2 0x873 JUMPI PUSH2 0x872 PUSH2 0x757 JUMP JUMPDEST JUMPDEST DUP2 CALLDATALOAD PUSH2 0x883 DUP5 DUP3 PUSH1 0x20 DUP7 ADD PUSH2 0x81C JUMP JUMPDEST SWAP2 POP POP SWAP3 SWAP2 POP POP JUMP JUMPDEST PUSH1 0x0 PUSH1 0x20 DUP3 DUP5 SUB SLT ISZERO PUSH2 0x8A2 JUMPI PUSH2 0x8A1 PUSH2 0x5A2 JUMP JUMPDEST JUMPDEST PUSH1 0x0 DUP3 ADD CALLDATALOAD PUSH8 0xFFFFFFFFFFFFFFFF DUP2 GT ISZERO PUSH2 0x8C0 JUMPI PUSH2 0x8BF PUSH2 0x5A7 JUMP JUMPDEST JUMPDEST PUSH2 0x8CC DUP5 DUP3 DUP6 ADD PUSH2 0x85E JUMP JUMPDEST SWAP2 POP POP SWAP3 SWAP2 POP POP JUMP JUMPDEST PUSH32 0x4E487B7100000000000000000000000000000000000000000000000000000000 PUSH1 0x0 MSTORE PUSH1 0x32 PUSH1 0x4 MSTORE PUSH1 0x24 PUSH1 0x0 REVERT JUMPDEST PUSH32 0x4E487B7100000000000000000000000000000000000000000000000000000000 PUSH1 0x0 MSTORE PUSH1 0x11 PUSH1 0x4 MSTORE PUSH1 0x24 PUSH1 0x0 REVERT JUMPDEST PUSH1 0x0 PUSH1 0xFF DUP3 AND SWAP1 POP SWAP2 SWAP1 POP JUMP JUMPDEST PUSH1 0x0 PUSH2 0x94B DUP3 PUSH2 0x933 JUMP JUMPDEST SWAP2 POP PUSH1 0xFF DUP3 SUB PUSH2 0x95E JUMPI PUSH2 0x95D PUSH2 0x904 JUMP JUMPDEST JUMPDEST PUSH1 0x1 DUP3 ADD SWAP1 POP SWAP2 SWAP1 POP JUMP JUMPDEST PUSH1 0x0 DUP2 SWAP1 POP SWAP2 SWAP1 POP JUMP JUMPDEST PUSH2 0x984 PUSH2 0x97F DUP3 PUSH2 0x6CA JUMP JUMPDEST PUSH2 0x969 JUMP JUMPDEST DUP3 MSTORE POP POP JUMP JUMPDEST PUSH1 0x0 PUSH2 0x996 DUP3 DUP5 PUSH2 0x973 JUMP JUMPDEST PUSH1 0x20 DUP3 ADD SWAP2 POP DUP2 SWAP1 POP SWAP3 SWAP2 POP POP JUMP JUMPDEST PUSH1 0x0 DUP2 MLOAD SWAP1 POP SWAP2 SWAP1 POP JUMP JUMPDEST PUSH1 0x0 DUP2 SWAP1 POP PUSH1 0x20 DUP3 ADD SWAP1 POP SWAP2 SWAP1 POP JUMP JUMPDEST PUSH1 0x0 PUSH2 0x9CC DUP3 MLOAD PUSH2 0x5AC JUMP JUMPDEST DUP1 SWAP2 POP POP SWAP2 SWAP1 POP JUMP JUMPDEST PUSH1 0x0 DUP3 DUP3 SHL SWAP1 POP SWAP3 SWAP2 POP POP JUMP JUMPDEST PUSH1 0x0 PUSH2 0x9ED DUP3 PUSH2 0x9A5 JUMP JUMPDEST DUP3 PUSH2 0x9F7 DUP5 PUSH2 0x9B0 JUMP JUMPDEST SWAP1 POP PUSH2 0xA02 DUP2 PUSH2 0x9C0 JUMP JUMPDEST SWAP3 POP PUSH1 0x20 DUP3 LT ISZERO PUSH2 0xA42 JUMPI PUSH2 0xA3D PUSH32 0xFFFFFFFFFFFFFFFFFFFFFFFFFFFFFFFFFFFFFFFFFFFFFFFFFFFFFFFFFFFFFFFF DUP4 PUSH1 0x20 SUB PUSH1 0x8 MUL PUSH2 0x9D5 JUMP JUMPDEST DUP4 AND SWAP3 POP JUMPDEST POP POP SWAP2 SWAP1 POP JUMP JUMPDEST PUSH1 0x0 DUP2 SWAP1 POP SWAP3 SWAP2 POP POP JUMP JUMPDEST PUSH32 0x3078000000000000000000000000000000000000000000000000000000000000 PUSH1 0x0 DUP3 ADD MSTORE POP JUMP JUMPDEST PUSH1 0x0 PUSH2 0xA8A PUSH1 0x2 DUP4 PUSH2 0xA49 JUMP JUMPDEST SWAP2 POP PUSH2 0xA95 DUP3 PUSH2 0xA54 JUMP JUMPDEST PUSH1 0x2 DUP3 ADD SWAP1 POP SWAP2 SWAP1 POP JUMP JUMPDEST PUSH1 0x0 DUP2 SWAP1 POP SWAP2 SWAP1 POP JUMP JUMPDEST PUSH2 0xABB PUSH2 0xAB6 DUP3 PUSH2 0x5AC JUMP JUMPDEST PUSH2 0xAA0 JUMP JUMPDEST DUP3 MSTORE POP POP JUMP JUMPDEST PUSH1 0x0 PUSH2 0xACC DUP3 PUSH2 0xA7D JUMP JUMPDEST SWAP2 POP PUSH2 0xAD8 DUP3 DUP6 PUSH2 0xAAA JUMP JUMPDEST PUSH1 0x20 DUP3 ADD SWAP2 POP PUSH2 0xAE8 DUP3 DUP5 PUSH2 0xAAA JUMP JUMPDEST PUSH1 0x20 DUP3 ADD SWAP2 POP DUP2 SWAP1 POP SWAP4 SWAP3 POP POP POP JUMP JUMPDEST PUSH1 0x0 PUSH2 0xB03 DUP3 PUSH2 0x6CA JUMP JUMPDEST SWAP2 POP PUSH2 0xB0E DUP4 PUSH2 0x6CA JUMP JUMPDEST SWAP3 POP DUP3 PUSH32 0xFFFFFFFFFFFFFFFFFFFFFFFFFFFFFFFFFFFFFFFFFFFFFFFFFFFFFFFFFFFFFFFF SUB DUP3 GT ISZERO PUSH2 0xB43 JUMPI PUSH2 0xB42 PUSH2 0x904 JUMP JUMPDEST JUMPDEST DUP3 DUP3 ADD SWAP1 POP SWAP3 SWAP2 POP POP JUMP JUMPDEST PUSH1 0x0 PUSH2 0xB59 DUP3 PUSH2 0x6CA JUMP JUMPDEST SWAP2 POP PUSH2 0xB64 DUP4 PUSH2 0x6CA JUMP JUMPDEST SWAP3 POP DUP2 PUSH32 0xFFFFFFFFFFFFFFFFFFFFFFFFFFFFFFFFFFFFFFFFFFFFFFFFFFFFFFFFFFFFFFFF DIV DUP4 GT DUP3 ISZERO ISZERO AND ISZERO PUSH2 0xB9D JUMPI PUSH2 0xB9C PUSH2 0x904 JUMP JUMPDEST JUMPDEST DUP3 DUP3 MUL SWAP1 POP SWAP3 SWAP2 POP POP JUMP INVALID LOG2 PUSH5 0x6970667358 0x22 SLT KECCAK256 SDIV PUSH14 0xD208342A1745727EDFBA16D8C16E 0xF9 PUSH10 0x666E4BBC18546D9E5617 0xCB PUSH28 0xE6964736F6C634300080D0033000000000000000000000000000000 "
				},
				"gasEstimates": {
					"creation": {
						"codeDepositCost": "607600",
						"executionCost": "667",
						"totalCost": "608267"
					},
					"external": {
						"bytes32ToAsciiString(bytes32)": "infinite",
						"bytes32ToHexString(bytes32)": "infinite",
						"getFirst32Bytes(bytes)": "infinite",
						"uintToBytes32(uint256)": "infinite"
					},
					"internal": {
						"_getRevertMsg(bytes memory)": "infinite",
						"toHex16(bytes16)": "infinite"
					}
				},
				"methodIdentifiers": {
					"bytes32ToAsciiString(bytes32)": "2dd04237",
					"bytes32ToHexString(bytes32)": "c68b3787",
					"getFirst32Bytes(bytes)": "aa35bf9b",
					"uintToBytes32(uint256)": "886d3db9"
				}
			},
			"storageLayout": {
				"storage": [],
				"types": null
			},
			"userdoc": {
				"kind": "user",
				"methods": {},
				"version": 1
			}
		}
	}
}