{
	"contracts/CallTest.sol": {
		"CalcCaller": {
			"abi": [
				{
					"anonymous": false,
					"inputs": [
						{
							"indexed": false,
							"internalType": "string",
							"name": "",
							"type": "string"
						}
					],
					"name": "logResult",
					"type": "event"
				},
				{
					"inputs": [
						{
							"internalType": "address",
							"name": "calcAddr",
							"type": "address"
						}
					],
					"name": "directCall",
					"outputs": [],
					"stateMutability": "nonpayable",
					"type": "function"
				},
				{
					"inputs": [
						{
							"internalType": "address",
							"name": "calcAddr",
							"type": "address"
						}
					],
					"name": "lowLevelCallAbi",
					"outputs": [],
					"stateMutability": "nonpayable",
					"type": "function"
				},
				{
					"inputs": [
						{
							"internalType": "address",
							"name": "calcAddr",
							"type": "address"
						}
					],
					"name": "lowLevelDelegateCallAbi",
					"outputs": [],
					"stateMutability": "nonpayable",
					"type": "function"
				}
			],
			"devdoc": {
				"kind": "dev",
				"methods": {},
				"version": 1
			},
			"evm": {
				"assembly": "    /* \"contracts/CallTest.sol\":447:2331  contract CalcCaller {... */\n  mstore(0x40, 0x80)\n  callvalue\n  dup1\n  iszero\n  tag_1\n  jumpi\n  0x00\n  dup1\n  revert\ntag_1:\n  pop\n  dataSize(sub_0)\n  dup1\n  dataOffset(sub_0)\n  0x00\n  codecopy\n  0x00\n  return\nstop\n\nsub_0: assembly {\n        /* \"contracts/CallTest.sol\":447:2331  contract CalcCaller {... */\n      mstore(0x40, 0x80)\n      callvalue\n      dup1\n      iszero\n      tag_1\n      jumpi\n      0x00\n      dup1\n      revert\n    tag_1:\n      pop\n      jumpi(tag_2, lt(calldatasize, 0x04))\n      shr(0xe0, calldataload(0x00))\n      dup1\n      0x3f93ff0b\n      eq\n      tag_3\n      jumpi\n      dup1\n      0xedd7d166\n      eq\n      tag_4\n      jumpi\n      dup1\n      0xf965df6d\n      eq\n      tag_5\n      jumpi\n    tag_2:\n      0x00\n      dup1\n      revert\n        /* \"contracts/CallTest.sol\":569:683  function directCall(address calcAddr) public {... */\n    tag_3:\n      tag_6\n      0x04\n      dup1\n      calldatasize\n      sub\n      dup2\n      add\n      swap1\n      tag_7\n      swap2\n      swap1\n      tag_8\n      jump\t// in\n    tag_7:\n      tag_9\n      jump\t// in\n    tag_6:\n      stop\n        /* \"contracts/CallTest.sol\":1260:1538  function lowLevelDelegateCallAbi(address calcAddr) public {... */\n    tag_4:\n      tag_10\n      0x04\n      dup1\n      calldatasize\n      sub\n      dup2\n      add\n      swap1\n      tag_11\n      swap2\n      swap1\n      tag_8\n      jump\t// in\n    tag_11:\n      tag_12\n      jump\t// in\n    tag_10:\n      stop\n        /* \"contracts/CallTest.sol\":756:1120  function lowLevelCallAbi(address calcAddr) public {... */\n    tag_5:\n      tag_13\n      0x04\n      dup1\n      calldatasize\n      sub\n      dup2\n      add\n      swap1\n      tag_14\n      swap2\n      swap1\n      tag_8\n      jump\t// in\n    tag_14:\n      tag_15\n      jump\t// in\n    tag_13:\n      stop\n        /* \"contracts/CallTest.sol\":569:683  function directCall(address calcAddr) public {... */\n    tag_9:\n        /* \"contracts/CallTest.sol\":625:634  Calc calc */\n      0x00\n        /* \"contracts/CallTest.sol\":642:650  calcAddr */\n      dup2\n        /* \"contracts/CallTest.sol\":625:651  Calc calc = Calc(calcAddr) */\n      swap1\n      pop\n        /* \"contracts/CallTest.sol\":662:666  calc */\n      dup1\n        /* \"contracts/CallTest.sol\":662:670  calc.add */\n      0xffffffffffffffffffffffffffffffffffffffff\n      and\n      0x771602f7\n        /* \"contracts/CallTest.sol\":671:672  1 */\n      0x01\n        /* \"contracts/CallTest.sol\":673:674  2 */\n      0x02\n        /* \"contracts/CallTest.sol\":662:675  calc.add(1,2) */\n      mload(0x40)\n      dup4\n      0xffffffff\n      and\n      0xe0\n      shl\n      dup2\n      mstore\n      0x04\n      add\n      tag_17\n      swap3\n      swap2\n      swap1\n      tag_18\n      jump\t// in\n    tag_17:\n      0x20\n      mload(0x40)\n      dup1\n      dup4\n      sub\n      dup2\n      0x00\n      dup8\n      gas\n      call\n      iszero\n      dup1\n      iszero\n      tag_20\n      jumpi\n      returndatasize\n      0x00\n      dup1\n      returndatacopy\n      revert(0x00, returndatasize)\n    tag_20:\n      pop\n      pop\n      pop\n      pop\n      mload(0x40)\n      returndatasize\n      not(0x1f)\n      0x1f\n      dup3\n      add\n      and\n      dup3\n      add\n      dup1\n      0x40\n      mstore\n      pop\n      dup2\n      add\n      swap1\n      tag_21\n      swap2\n      swap1\n      tag_22\n      jump\t// in\n    tag_21:\n      pop\n        /* \"contracts/CallTest.sol\":614:683  {... */\n      pop\n        /* \"contracts/CallTest.sol\":569:683  function directCall(address calcAddr) public {... */\n      pop\n      jump\t// out\n        /* \"contracts/CallTest.sol\":1260:1538  function lowLevelDelegateCallAbi(address calcAddr) public {... */\n    tag_12:\n        /* \"contracts/CallTest.sol\":1330:1342  bool success */\n      0x00\n        /* \"contracts/CallTest.sol\":1344:1363  bytes memory result */\n      dup1\n        /* \"contracts/CallTest.sol\":1367:1375  calcAddr */\n      dup3\n        /* \"contracts/CallTest.sol\":1367:1388  calcAddr.delegatecall */\n      0xffffffffffffffffffffffffffffffffffffffff\n      and\n        /* \"contracts/CallTest.sol\":1437:1438  5 */\n      0x05\n        /* \"contracts/CallTest.sol\":1440:1441  6 */\n      0x06\n        /* \"contracts/CallTest.sol\":1389:1442  abi.encodeWithSignature(\"add(uint256,uint256)\", 5, 6) */\n      add(0x24, mload(0x40))\n      tag_24\n      swap3\n      swap2\n      swap1\n      tag_25\n      jump\t// in\n    tag_24:\n      mload(0x40)\n      0x20\n      dup2\n      dup4\n      sub\n      sub\n      dup2\n      mstore\n      swap1\n      0x40\n      mstore\n      and(not(0xffffffffffffffffffffffffffffffffffffffffffffffffffffffff), 0x771602f700000000000000000000000000000000000000000000000000000000)\n      0x20\n      dup3\n      add\n      dup1\n      mload\n      0xffffffffffffffffffffffffffffffffffffffffffffffffffffffff\n      dup4\n      dup2\n      dup4\n      and\n      or\n      dup4\n      mstore\n      pop\n      pop\n      pop\n      pop\n        /* \"contracts/CallTest.sol\":1367:1443  calcAddr.delegatecall(abi.encodeWithSignature(\"add(uint256,uint256)\", 5, 6)) */\n      mload(0x40)\n      tag_26\n      swap2\n      swap1\n      tag_27\n      jump\t// in\n    tag_26:\n      0x00\n      mload(0x40)\n      dup1\n      dup4\n      sub\n      dup2\n      dup6\n      gas\n      delegatecall\n      swap2\n      pop\n      pop\n      returndatasize\n      dup1\n      0x00\n      dup2\n      eq\n      tag_30\n      jumpi\n      mload(0x40)\n      swap2\n      pop\n      and(add(returndatasize, 0x3f), not(0x1f))\n      dup3\n      add\n      0x40\n      mstore\n      returndatasize\n      dup3\n      mstore\n      returndatasize\n      0x00\n      0x20\n      dup5\n      add\n      returndatacopy\n      jump(tag_29)\n    tag_30:\n      0x60\n      swap2\n      pop\n    tag_29:\n      pop\n        /* \"contracts/CallTest.sol\":1329:1443  (bool success, bytes memory result) = calcAddr.delegatecall(abi.encodeWithSignature(\"add(uint256,uint256)\", 5, 6)) */\n      swap2\n      pop\n      swap2\n      pop\n        /* \"contracts/CallTest.sol\":1458:1465  success */\n      dup2\n        /* \"contracts/CallTest.sol\":1454:1531  if(!success) {... */\n      tag_31\n      jumpi\n        /* \"contracts/CallTest.sol\":1487:1519  logResult(_getRevertMsg(result)) */\n      0x6c73d23083c4f9b446c408bc6e8784ab2c54cf950789d7e220da38ed7b035cc0\n        /* \"contracts/CallTest.sol\":1497:1518  _getRevertMsg(result) */\n      tag_32\n        /* \"contracts/CallTest.sol\":1511:1517  result */\n      dup3\n        /* \"contracts/CallTest.sol\":1497:1510  _getRevertMsg */\n      tag_33\n        /* \"contracts/CallTest.sol\":1497:1518  _getRevertMsg(result) */\n      jump\t// in\n    tag_32:\n        /* \"contracts/CallTest.sol\":1487:1519  logResult(_getRevertMsg(result)) */\n      mload(0x40)\n      tag_34\n      swap2\n      swap1\n      tag_35\n      jump\t// in\n    tag_34:\n      mload(0x40)\n      dup1\n      swap2\n      sub\n      swap1\n      log1\n        /* \"contracts/CallTest.sol\":1454:1531  if(!success) {... */\n    tag_31:\n        /* \"contracts/CallTest.sol\":1318:1538  {... */\n      pop\n      pop\n        /* \"contracts/CallTest.sol\":1260:1538  function lowLevelDelegateCallAbi(address calcAddr) public {... */\n      pop\n      jump\t// out\n        /* \"contracts/CallTest.sol\":756:1120  function lowLevelCallAbi(address calcAddr) public {... */\n    tag_15:\n        /* \"contracts/CallTest.sol\":920:932  bool success */\n      0x00\n        /* \"contracts/CallTest.sol\":934:953  bytes memory result */\n      dup1\n        /* \"contracts/CallTest.sol\":957:965  calcAddr */\n      dup3\n        /* \"contracts/CallTest.sol\":957:970  calcAddr.call */\n      0xffffffffffffffffffffffffffffffffffffffff\n      and\n        /* \"contracts/CallTest.sol\":1019:1020  3 */\n      0x03\n        /* \"contracts/CallTest.sol\":1022:1023  4 */\n      0x04\n        /* \"contracts/CallTest.sol\":971:1024  abi.encodeWithSignature(\"add(uint256,uint256)\", 3, 4) */\n      add(0x24, mload(0x40))\n      tag_37\n      swap3\n      swap2\n      swap1\n      tag_38\n      jump\t// in\n    tag_37:\n      mload(0x40)\n      0x20\n      dup2\n      dup4\n      sub\n      sub\n      dup2\n      mstore\n      swap1\n      0x40\n      mstore\n      and(not(0xffffffffffffffffffffffffffffffffffffffffffffffffffffffff), 0x771602f700000000000000000000000000000000000000000000000000000000)\n      0x20\n      dup3\n      add\n      dup1\n      mload\n      0xffffffffffffffffffffffffffffffffffffffffffffffffffffffff\n      dup4\n      dup2\n      dup4\n      and\n      or\n      dup4\n      mstore\n      pop\n      pop\n      pop\n      pop\n        /* \"contracts/CallTest.sol\":957:1025  calcAddr.call(abi.encodeWithSignature(\"add(uint256,uint256)\", 3, 4)) */\n      mload(0x40)\n      tag_39\n      swap2\n      swap1\n      tag_27\n      jump\t// in\n    tag_39:\n      0x00\n      mload(0x40)\n      dup1\n      dup4\n      sub\n      dup2\n      0x00\n      dup7\n      gas\n      call\n      swap2\n      pop\n      pop\n      returndatasize\n      dup1\n      0x00\n      dup2\n      eq\n      tag_42\n      jumpi\n      mload(0x40)\n      swap2\n      pop\n      and(add(returndatasize, 0x3f), not(0x1f))\n      dup3\n      add\n      0x40\n      mstore\n      returndatasize\n      dup3\n      mstore\n      returndatasize\n      0x00\n      0x20\n      dup5\n      add\n      returndatacopy\n      jump(tag_41)\n    tag_42:\n      0x60\n      swap2\n      pop\n    tag_41:\n      pop\n        /* \"contracts/CallTest.sol\":919:1025  (bool success, bytes memory result) = calcAddr.call(abi.encodeWithSignature(\"add(uint256,uint256)\", 3, 4)) */\n      swap2\n      pop\n      swap2\n      pop\n        /* \"contracts/CallTest.sol\":1040:1047  success */\n      dup2\n        /* \"contracts/CallTest.sol\":1036:1113  if(!success) {... */\n      tag_43\n      jumpi\n        /* \"contracts/CallTest.sol\":1069:1101  logResult(_getRevertMsg(result)) */\n      0x6c73d23083c4f9b446c408bc6e8784ab2c54cf950789d7e220da38ed7b035cc0\n        /* \"contracts/CallTest.sol\":1079:1100  _getRevertMsg(result) */\n      tag_44\n        /* \"contracts/CallTest.sol\":1093:1099  result */\n      dup3\n        /* \"contracts/CallTest.sol\":1079:1092  _getRevertMsg */\n      tag_33\n        /* \"contracts/CallTest.sol\":1079:1100  _getRevertMsg(result) */\n      jump\t// in\n    tag_44:\n        /* \"contracts/CallTest.sol\":1069:1101  logResult(_getRevertMsg(result)) */\n      mload(0x40)\n      tag_45\n      swap2\n      swap1\n      tag_35\n      jump\t// in\n    tag_45:\n      mload(0x40)\n      dup1\n      swap2\n      sub\n      swap1\n      log1\n        /* \"contracts/CallTest.sol\":1036:1113  if(!success) {... */\n    tag_43:\n        /* \"contracts/CallTest.sol\":806:1120  {... */\n      pop\n      pop\n        /* \"contracts/CallTest.sol\":756:1120  function lowLevelCallAbi(address calcAddr) public {... */\n      pop\n      jump\t// out\n        /* \"contracts/CallTest.sol\":1546:2042  function _getRevertMsg(bytes memory _returnData) internal pure returns (string memory) {... */\n    tag_33:\n        /* \"contracts/CallTest.sol\":1618:1631  string memory */\n      0x60\n        /* \"contracts/CallTest.sol\":1781:1783  68 */\n      0x44\n        /* \"contracts/CallTest.sol\":1760:1771  _returnData */\n      dup3\n        /* \"contracts/CallTest.sol\":1760:1778  _returnData.length */\n      mload\n        /* \"contracts/CallTest.sol\":1760:1783  _returnData.length < 68 */\n      lt\n        /* \"contracts/CallTest.sol\":1756:1823  if (_returnData.length < 68) return 'Transaction reverted silently' */\n      iszero\n      tag_47\n      jumpi\n        /* \"contracts/CallTest.sol\":1785:1823  return 'Transaction reverted silently' */\n      mload(0x40)\n      dup1\n      0x40\n      add\n      0x40\n      mstore\n      dup1\n      0x1d\n      dup2\n      mstore\n      0x20\n      add\n      0x5472616e73616374696f6e2072657665727465642073696c656e746c79000000\n      dup2\n      mstore\n      pop\n      swap1\n      pop\n      jump(tag_46)\n        /* \"contracts/CallTest.sol\":1756:1823  if (_returnData.length < 68) return 'Transaction reverted silently' */\n    tag_47:\n        /* \"contracts/CallTest.sol\":1927:1931  0x04 */\n      0x04\n        /* \"contracts/CallTest.sol\":1914:1925  _returnData */\n      dup3\n        /* \"contracts/CallTest.sol\":1910:1932  add(_returnData, 0x04) */\n      add\n        /* \"contracts/CallTest.sol\":1895:1932  _returnData := add(_returnData, 0x04) */\n      swap2\n      pop\n        /* \"contracts/CallTest.sol\":1971:1982  _returnData */\n      dup2\n        /* \"contracts/CallTest.sol\":1960:1993  abi.decode(_returnData, (string)) */\n      dup1\n      0x20\n      add\n      swap1\n      mload\n      dup2\n      add\n      swap1\n      tag_48\n      swap2\n      swap1\n      tag_49\n      jump\t// in\n    tag_48:\n        /* \"contracts/CallTest.sol\":1953:1993  return abi.decode(_returnData, (string)) */\n      swap1\n      pop\n        /* \"contracts/CallTest.sol\":1546:2042  function _getRevertMsg(bytes memory _returnData) internal pure returns (string memory) {... */\n    tag_46:\n      swap2\n      swap1\n      pop\n      jump\t// out\n        /* \"#utility.yul\":7:82   */\n    tag_50:\n        /* \"#utility.yul\":40:46   */\n      0x00\n        /* \"#utility.yul\":73:75   */\n      0x40\n        /* \"#utility.yul\":67:76   */\n      mload\n        /* \"#utility.yul\":57:76   */\n      swap1\n      pop\n        /* \"#utility.yul\":7:82   */\n      swap1\n      jump\t// out\n        /* \"#utility.yul\":88:205   */\n    tag_51:\n        /* \"#utility.yul\":197:198   */\n      0x00\n        /* \"#utility.yul\":194:195   */\n      dup1\n        /* \"#utility.yul\":187:199   */\n      revert\n        /* \"#utility.yul\":211:328   */\n    tag_52:\n        /* \"#utility.yul\":320:321   */\n      0x00\n        /* \"#utility.yul\":317:318   */\n      dup1\n        /* \"#utility.yul\":310:322   */\n      revert\n        /* \"#utility.yul\":334:460   */\n    tag_53:\n        /* \"#utility.yul\":371:378   */\n      0x00\n        /* \"#utility.yul\":411:453   */\n      0xffffffffffffffffffffffffffffffffffffffff\n        /* \"#utility.yul\":404:409   */\n      dup3\n        /* \"#utility.yul\":400:454   */\n      and\n        /* \"#utility.yul\":389:454   */\n      swap1\n      pop\n        /* \"#utility.yul\":334:460   */\n      swap2\n      swap1\n      pop\n      jump\t// out\n        /* \"#utility.yul\":466:562   */\n    tag_54:\n        /* \"#utility.yul\":503:510   */\n      0x00\n        /* \"#utility.yul\":532:556   */\n      tag_102\n        /* \"#utility.yul\":550:555   */\n      dup3\n        /* \"#utility.yul\":532:556   */\n      tag_53\n      jump\t// in\n    tag_102:\n        /* \"#utility.yul\":521:556   */\n      swap1\n      pop\n        /* \"#utility.yul\":466:562   */\n      swap2\n      swap1\n      pop\n      jump\t// out\n        /* \"#utility.yul\":568:690   */\n    tag_55:\n        /* \"#utility.yul\":641:665   */\n      tag_104\n        /* \"#utility.yul\":659:664   */\n      dup2\n        /* \"#utility.yul\":641:665   */\n      tag_54\n      jump\t// in\n    tag_104:\n        /* \"#utility.yul\":634:639   */\n      dup2\n        /* \"#utility.yul\":631:666   */\n      eq\n        /* \"#utility.yul\":621:684   */\n      tag_105\n      jumpi\n        /* \"#utility.yul\":680:681   */\n      0x00\n        /* \"#utility.yul\":677:678   */\n      dup1\n        /* \"#utility.yul\":670:682   */\n      revert\n        /* \"#utility.yul\":621:684   */\n    tag_105:\n        /* \"#utility.yul\":568:690   */\n      pop\n      jump\t// out\n        /* \"#utility.yul\":696:835   */\n    tag_56:\n        /* \"#utility.yul\":742:747   */\n      0x00\n        /* \"#utility.yul\":780:786   */\n      dup2\n        /* \"#utility.yul\":767:787   */\n      calldataload\n        /* \"#utility.yul\":758:787   */\n      swap1\n      pop\n        /* \"#utility.yul\":796:829   */\n      tag_107\n        /* \"#utility.yul\":823:828   */\n      dup2\n        /* \"#utility.yul\":796:829   */\n      tag_55\n      jump\t// in\n    tag_107:\n        /* \"#utility.yul\":696:835   */\n      swap3\n      swap2\n      pop\n      pop\n      jump\t// out\n        /* \"#utility.yul\":841:1170   */\n    tag_8:\n        /* \"#utility.yul\":900:906   */\n      0x00\n        /* \"#utility.yul\":949:951   */\n      0x20\n        /* \"#utility.yul\":937:946   */\n      dup3\n        /* \"#utility.yul\":928:935   */\n      dup5\n        /* \"#utility.yul\":924:947   */\n      sub\n        /* \"#utility.yul\":920:952   */\n      slt\n        /* \"#utility.yul\":917:1036   */\n      iszero\n      tag_109\n      jumpi\n        /* \"#utility.yul\":955:1034   */\n      tag_110\n      tag_51\n      jump\t// in\n    tag_110:\n        /* \"#utility.yul\":917:1036   */\n    tag_109:\n        /* \"#utility.yul\":1075:1076   */\n      0x00\n        /* \"#utility.yul\":1100:1153   */\n      tag_111\n        /* \"#utility.yul\":1145:1152   */\n      dup5\n        /* \"#utility.yul\":1136:1142   */\n      dup3\n        /* \"#utility.yul\":1125:1134   */\n      dup6\n        /* \"#utility.yul\":1121:1143   */\n      add\n        /* \"#utility.yul\":1100:1153   */\n      tag_56\n      jump\t// in\n    tag_111:\n        /* \"#utility.yul\":1090:1153   */\n      swap2\n      pop\n        /* \"#utility.yul\":1046:1163   */\n      pop\n        /* \"#utility.yul\":841:1170   */\n      swap3\n      swap2\n      pop\n      pop\n      jump\t// out\n        /* \"#utility.yul\":1176:1261   */\n    tag_57:\n        /* \"#utility.yul\":1221:1228   */\n      0x00\n        /* \"#utility.yul\":1250:1255   */\n      dup2\n        /* \"#utility.yul\":1239:1255   */\n      swap1\n      pop\n        /* \"#utility.yul\":1176:1261   */\n      swap2\n      swap1\n      pop\n      jump\t// out\n        /* \"#utility.yul\":1267:1344   */\n    tag_58:\n        /* \"#utility.yul\":1304:1311   */\n      0x00\n        /* \"#utility.yul\":1333:1338   */\n      dup2\n        /* \"#utility.yul\":1322:1338   */\n      swap1\n      pop\n        /* \"#utility.yul\":1267:1344   */\n      swap2\n      swap1\n      pop\n      jump\t// out\n        /* \"#utility.yul\":1350:1410   */\n    tag_59:\n        /* \"#utility.yul\":1378:1381   */\n      0x00\n        /* \"#utility.yul\":1399:1404   */\n      dup2\n        /* \"#utility.yul\":1392:1404   */\n      swap1\n      pop\n        /* \"#utility.yul\":1350:1410   */\n      swap2\n      swap1\n      pop\n      jump\t// out\n        /* \"#utility.yul\":1416:1574   */\n    tag_60:\n        /* \"#utility.yul\":1474:1483   */\n      0x00\n        /* \"#utility.yul\":1507:1568   */\n      tag_116\n        /* \"#utility.yul\":1525:1567   */\n      tag_117\n        /* \"#utility.yul\":1534:1566   */\n      tag_118\n        /* \"#utility.yul\":1560:1565   */\n      dup5\n        /* \"#utility.yul\":1534:1566   */\n      tag_57\n      jump\t// in\n    tag_118:\n        /* \"#utility.yul\":1525:1567   */\n      tag_59\n      jump\t// in\n    tag_117:\n        /* \"#utility.yul\":1507:1568   */\n      tag_58\n      jump\t// in\n    tag_116:\n        /* \"#utility.yul\":1494:1568   */\n      swap1\n      pop\n        /* \"#utility.yul\":1416:1574   */\n      swap2\n      swap1\n      pop\n      jump\t// out\n        /* \"#utility.yul\":1580:1727   */\n    tag_61:\n        /* \"#utility.yul\":1675:1720   */\n      tag_120\n        /* \"#utility.yul\":1714:1719   */\n      dup2\n        /* \"#utility.yul\":1675:1720   */\n      tag_60\n      jump\t// in\n    tag_120:\n        /* \"#utility.yul\":1670:1673   */\n      dup3\n        /* \"#utility.yul\":1663:1721   */\n      mstore\n        /* \"#utility.yul\":1580:1727   */\n      pop\n      pop\n      jump\t// out\n        /* \"#utility.yul\":1733:1818   */\n    tag_62:\n        /* \"#utility.yul\":1778:1785   */\n      0x00\n        /* \"#utility.yul\":1807:1812   */\n      dup2\n        /* \"#utility.yul\":1796:1812   */\n      swap1\n      pop\n        /* \"#utility.yul\":1733:1818   */\n      swap2\n      swap1\n      pop\n      jump\t// out\n        /* \"#utility.yul\":1824:1982   */\n    tag_63:\n        /* \"#utility.yul\":1882:1891   */\n      0x00\n        /* \"#utility.yul\":1915:1976   */\n      tag_123\n        /* \"#utility.yul\":1933:1975   */\n      tag_124\n        /* \"#utility.yul\":1942:1974   */\n      tag_125\n        /* \"#utility.yul\":1968:1973   */\n      dup5\n        /* \"#utility.yul\":1942:1974   */\n      tag_62\n      jump\t// in\n    tag_125:\n        /* \"#utility.yul\":1933:1975   */\n      tag_59\n      jump\t// in\n    tag_124:\n        /* \"#utility.yul\":1915:1976   */\n      tag_58\n      jump\t// in\n    tag_123:\n        /* \"#utility.yul\":1902:1976   */\n      swap1\n      pop\n        /* \"#utility.yul\":1824:1982   */\n      swap2\n      swap1\n      pop\n      jump\t// out\n        /* \"#utility.yul\":1988:2135   */\n    tag_64:\n        /* \"#utility.yul\":2083:2128   */\n      tag_127\n        /* \"#utility.yul\":2122:2127   */\n      dup2\n        /* \"#utility.yul\":2083:2128   */\n      tag_63\n      jump\t// in\n    tag_127:\n        /* \"#utility.yul\":2078:2081   */\n      dup3\n        /* \"#utility.yul\":2071:2129   */\n      mstore\n        /* \"#utility.yul\":1988:2135   */\n      pop\n      pop\n      jump\t// out\n        /* \"#utility.yul\":2141:2505   */\n    tag_18:\n        /* \"#utility.yul\":2278:2282   */\n      0x00\n        /* \"#utility.yul\":2316:2318   */\n      0x40\n        /* \"#utility.yul\":2305:2314   */\n      dup3\n        /* \"#utility.yul\":2301:2319   */\n      add\n        /* \"#utility.yul\":2293:2319   */\n      swap1\n      pop\n        /* \"#utility.yul\":2329:2408   */\n      tag_129\n        /* \"#utility.yul\":2405:2406   */\n      0x00\n        /* \"#utility.yul\":2394:2403   */\n      dup4\n        /* \"#utility.yul\":2390:2407   */\n      add\n        /* \"#utility.yul\":2381:2387   */\n      dup6\n        /* \"#utility.yul\":2329:2408   */\n      tag_61\n      jump\t// in\n    tag_129:\n        /* \"#utility.yul\":2418:2498   */\n      tag_130\n        /* \"#utility.yul\":2494:2496   */\n      0x20\n        /* \"#utility.yul\":2483:2492   */\n      dup4\n        /* \"#utility.yul\":2479:2497   */\n      add\n        /* \"#utility.yul\":2470:2476   */\n      dup5\n        /* \"#utility.yul\":2418:2498   */\n      tag_64\n      jump\t// in\n    tag_130:\n        /* \"#utility.yul\":2141:2505   */\n      swap4\n      swap3\n      pop\n      pop\n      pop\n      jump\t// out\n        /* \"#utility.yul\":2511:2633   */\n    tag_65:\n        /* \"#utility.yul\":2584:2608   */\n      tag_132\n        /* \"#utility.yul\":2602:2607   */\n      dup2\n        /* \"#utility.yul\":2584:2608   */\n      tag_58\n      jump\t// in\n    tag_132:\n        /* \"#utility.yul\":2577:2582   */\n      dup2\n        /* \"#utility.yul\":2574:2609   */\n      eq\n        /* \"#utility.yul\":2564:2627   */\n      tag_133\n      jumpi\n        /* \"#utility.yul\":2623:2624   */\n      0x00\n        /* \"#utility.yul\":2620:2621   */\n      dup1\n        /* \"#utility.yul\":2613:2625   */\n      revert\n        /* \"#utility.yul\":2564:2627   */\n    tag_133:\n        /* \"#utility.yul\":2511:2633   */\n      pop\n      jump\t// out\n        /* \"#utility.yul\":2639:2782   */\n    tag_66:\n        /* \"#utility.yul\":2696:2701   */\n      0x00\n        /* \"#utility.yul\":2727:2733   */\n      dup2\n        /* \"#utility.yul\":2721:2734   */\n      mload\n        /* \"#utility.yul\":2712:2734   */\n      swap1\n      pop\n        /* \"#utility.yul\":2743:2776   */\n      tag_135\n        /* \"#utility.yul\":2770:2775   */\n      dup2\n        /* \"#utility.yul\":2743:2776   */\n      tag_65\n      jump\t// in\n    tag_135:\n        /* \"#utility.yul\":2639:2782   */\n      swap3\n      swap2\n      pop\n      pop\n      jump\t// out\n        /* \"#utility.yul\":2788:3139   */\n    tag_22:\n        /* \"#utility.yul\":2858:2864   */\n      0x00\n        /* \"#utility.yul\":2907:2909   */\n      0x20\n        /* \"#utility.yul\":2895:2904   */\n      dup3\n        /* \"#utility.yul\":2886:2893   */\n      dup5\n        /* \"#utility.yul\":2882:2905   */\n      sub\n        /* \"#utility.yul\":2878:2910   */\n      slt\n        /* \"#utility.yul\":2875:2994   */\n      iszero\n      tag_137\n      jumpi\n        /* \"#utility.yul\":2913:2992   */\n      tag_138\n      tag_51\n      jump\t// in\n    tag_138:\n        /* \"#utility.yul\":2875:2994   */\n    tag_137:\n        /* \"#utility.yul\":3033:3034   */\n      0x00\n        /* \"#utility.yul\":3058:3122   */\n      tag_139\n        /* \"#utility.yul\":3114:3121   */\n      dup5\n        /* \"#utility.yul\":3105:3111   */\n      dup3\n        /* \"#utility.yul\":3094:3103   */\n      dup6\n        /* \"#utility.yul\":3090:3112   */\n      add\n        /* \"#utility.yul\":3058:3122   */\n      tag_66\n      jump\t// in\n    tag_139:\n        /* \"#utility.yul\":3048:3122   */\n      swap2\n      pop\n        /* \"#utility.yul\":3004:3132   */\n      pop\n        /* \"#utility.yul\":2788:3139   */\n      swap3\n      swap2\n      pop\n      pop\n      jump\t// out\n        /* \"#utility.yul\":3145:3230   */\n    tag_67:\n        /* \"#utility.yul\":3190:3197   */\n      0x00\n        /* \"#utility.yul\":3219:3224   */\n      dup2\n        /* \"#utility.yul\":3208:3224   */\n      swap1\n      pop\n        /* \"#utility.yul\":3145:3230   */\n      swap2\n      swap1\n      pop\n      jump\t// out\n        /* \"#utility.yul\":3236:3322   */\n    tag_68:\n        /* \"#utility.yul\":3271:3278   */\n      0x00\n        /* \"#utility.yul\":3311:3315   */\n      0xff\n        /* \"#utility.yul\":3304:3309   */\n      dup3\n        /* \"#utility.yul\":3300:3316   */\n      and\n        /* \"#utility.yul\":3289:3316   */\n      swap1\n      pop\n        /* \"#utility.yul\":3236:3322   */\n      swap2\n      swap1\n      pop\n      jump\t// out\n        /* \"#utility.yul\":3328:3482   */\n    tag_69:\n        /* \"#utility.yul\":3384:3393   */\n      0x00\n        /* \"#utility.yul\":3417:3476   */\n      tag_143\n        /* \"#utility.yul\":3433:3475   */\n      tag_144\n        /* \"#utility.yul\":3442:3474   */\n      tag_145\n        /* \"#utility.yul\":3468:3473   */\n      dup5\n        /* \"#utility.yul\":3442:3474   */\n      tag_67\n      jump\t// in\n    tag_145:\n        /* \"#utility.yul\":3433:3475   */\n      tag_59\n      jump\t// in\n    tag_144:\n        /* \"#utility.yul\":3417:3476   */\n      tag_68\n      jump\t// in\n    tag_143:\n        /* \"#utility.yul\":3404:3476   */\n      swap1\n      pop\n        /* \"#utility.yul\":3328:3482   */\n      swap2\n      swap1\n      pop\n      jump\t// out\n        /* \"#utility.yul\":3488:3631   */\n    tag_70:\n        /* \"#utility.yul\":3581:3624   */\n      tag_147\n        /* \"#utility.yul\":3618:3623   */\n      dup2\n        /* \"#utility.yul\":3581:3624   */\n      tag_69\n      jump\t// in\n    tag_147:\n        /* \"#utility.yul\":3576:3579   */\n      dup3\n        /* \"#utility.yul\":3569:3625   */\n      mstore\n        /* \"#utility.yul\":3488:3631   */\n      pop\n      pop\n      jump\t// out\n        /* \"#utility.yul\":3637:3722   */\n    tag_71:\n        /* \"#utility.yul\":3682:3689   */\n      0x00\n        /* \"#utility.yul\":3711:3716   */\n      dup2\n        /* \"#utility.yul\":3700:3716   */\n      swap1\n      pop\n        /* \"#utility.yul\":3637:3722   */\n      swap2\n      swap1\n      pop\n      jump\t// out\n        /* \"#utility.yul\":3728:3882   */\n    tag_72:\n        /* \"#utility.yul\":3784:3793   */\n      0x00\n        /* \"#utility.yul\":3817:3876   */\n      tag_150\n        /* \"#utility.yul\":3833:3875   */\n      tag_151\n        /* \"#utility.yul\":3842:3874   */\n      tag_152\n        /* \"#utility.yul\":3868:3873   */\n      dup5\n        /* \"#utility.yul\":3842:3874   */\n      tag_71\n      jump\t// in\n    tag_152:\n        /* \"#utility.yul\":3833:3875   */\n      tag_59\n      jump\t// in\n    tag_151:\n        /* \"#utility.yul\":3817:3876   */\n      tag_68\n      jump\t// in\n    tag_150:\n        /* \"#utility.yul\":3804:3876   */\n      swap1\n      pop\n        /* \"#utility.yul\":3728:3882   */\n      swap2\n      swap1\n      pop\n      jump\t// out\n        /* \"#utility.yul\":3888:4031   */\n    tag_73:\n        /* \"#utility.yul\":3981:4024   */\n      tag_154\n        /* \"#utility.yul\":4018:4023   */\n      dup2\n        /* \"#utility.yul\":3981:4024   */\n      tag_72\n      jump\t// in\n    tag_154:\n        /* \"#utility.yul\":3976:3979   */\n      dup3\n        /* \"#utility.yul\":3969:4025   */\n      mstore\n        /* \"#utility.yul\":3888:4031   */\n      pop\n      pop\n      jump\t// out\n        /* \"#utility.yul\":4037:4393   */\n    tag_25:\n        /* \"#utility.yul\":4170:4174   */\n      0x00\n        /* \"#utility.yul\":4208:4210   */\n      0x40\n        /* \"#utility.yul\":4197:4206   */\n      dup3\n        /* \"#utility.yul\":4193:4211   */\n      add\n        /* \"#utility.yul\":4185:4211   */\n      swap1\n      pop\n        /* \"#utility.yul\":4221:4298   */\n      tag_156\n        /* \"#utility.yul\":4295:4296   */\n      0x00\n        /* \"#utility.yul\":4284:4293   */\n      dup4\n        /* \"#utility.yul\":4280:4297   */\n      add\n        /* \"#utility.yul\":4271:4277   */\n      dup6\n        /* \"#utility.yul\":4221:4298   */\n      tag_70\n      jump\t// in\n    tag_156:\n        /* \"#utility.yul\":4308:4386   */\n      tag_157\n        /* \"#utility.yul\":4382:4384   */\n      0x20\n        /* \"#utility.yul\":4371:4380   */\n      dup4\n        /* \"#utility.yul\":4367:4385   */\n      add\n        /* \"#utility.yul\":4358:4364   */\n      dup5\n        /* \"#utility.yul\":4308:4386   */\n      tag_73\n      jump\t// in\n    tag_157:\n        /* \"#utility.yul\":4037:4393   */\n      swap4\n      swap3\n      pop\n      pop\n      pop\n      jump\t// out\n        /* \"#utility.yul\":4399:4497   */\n    tag_74:\n        /* \"#utility.yul\":4450:4456   */\n      0x00\n        /* \"#utility.yul\":4484:4489   */\n      dup2\n        /* \"#utility.yul\":4478:4490   */\n      mload\n        /* \"#utility.yul\":4468:4490   */\n      swap1\n      pop\n        /* \"#utility.yul\":4399:4497   */\n      swap2\n      swap1\n      pop\n      jump\t// out\n        /* \"#utility.yul\":4503:4650   */\n    tag_75:\n        /* \"#utility.yul\":4604:4615   */\n      0x00\n        /* \"#utility.yul\":4641:4644   */\n      dup2\n        /* \"#utility.yul\":4626:4644   */\n      swap1\n      pop\n        /* \"#utility.yul\":4503:4650   */\n      swap3\n      swap2\n      pop\n      pop\n      jump\t// out\n        /* \"#utility.yul\":4656:4963   */\n    tag_76:\n        /* \"#utility.yul\":4724:4725   */\n      0x00\n        /* \"#utility.yul\":4734:4847   */\n    tag_161:\n        /* \"#utility.yul\":4748:4754   */\n      dup4\n        /* \"#utility.yul\":4745:4746   */\n      dup2\n        /* \"#utility.yul\":4742:4755   */\n      lt\n        /* \"#utility.yul\":4734:4847   */\n      iszero\n      tag_163\n      jumpi\n        /* \"#utility.yul\":4833:4834   */\n      dup1\n        /* \"#utility.yul\":4828:4831   */\n      dup3\n        /* \"#utility.yul\":4824:4835   */\n      add\n        /* \"#utility.yul\":4818:4836   */\n      mload\n        /* \"#utility.yul\":4814:4815   */\n      dup2\n        /* \"#utility.yul\":4809:4812   */\n      dup5\n        /* \"#utility.yul\":4805:4816   */\n      add\n        /* \"#utility.yul\":4798:4837   */\n      mstore\n        /* \"#utility.yul\":4770:4772   */\n      0x20\n        /* \"#utility.yul\":4767:4768   */\n      dup2\n        /* \"#utility.yul\":4763:4773   */\n      add\n        /* \"#utility.yul\":4758:4773   */\n      swap1\n      pop\n        /* \"#utility.yul\":4734:4847   */\n      jump(tag_161)\n    tag_163:\n        /* \"#utility.yul\":4865:4871   */\n      dup4\n        /* \"#utility.yul\":4862:4863   */\n      dup2\n        /* \"#utility.yul\":4859:4872   */\n      gt\n        /* \"#utility.yul\":4856:4957   */\n      iszero\n      tag_164\n      jumpi\n        /* \"#utility.yul\":4945:4946   */\n      0x00\n        /* \"#utility.yul\":4936:4942   */\n      dup5\n        /* \"#utility.yul\":4931:4934   */\n      dup5\n        /* \"#utility.yul\":4927:4943   */\n      add\n        /* \"#utility.yul\":4920:4947   */\n      mstore\n        /* \"#utility.yul\":4856:4957   */\n    tag_164:\n        /* \"#utility.yul\":4705:4963   */\n      pop\n        /* \"#utility.yul\":4656:4963   */\n      pop\n      pop\n      pop\n      jump\t// out\n        /* \"#utility.yul\":4969:5342   */\n    tag_77:\n        /* \"#utility.yul\":5073:5076   */\n      0x00\n        /* \"#utility.yul\":5101:5139   */\n      tag_166\n        /* \"#utility.yul\":5133:5138   */\n      dup3\n        /* \"#utility.yul\":5101:5139   */\n      tag_74\n      jump\t// in\n    tag_166:\n        /* \"#utility.yul\":5155:5243   */\n      tag_167\n        /* \"#utility.yul\":5236:5242   */\n      dup2\n        /* \"#utility.yul\":5231:5234   */\n      dup6\n        /* \"#utility.yul\":5155:5243   */\n      tag_75\n      jump\t// in\n    tag_167:\n        /* \"#utility.yul\":5148:5243   */\n      swap4\n      pop\n        /* \"#utility.yul\":5252:5304   */\n      tag_168\n        /* \"#utility.yul\":5297:5303   */\n      dup2\n        /* \"#utility.yul\":5292:5295   */\n      dup6\n        /* \"#utility.yul\":5285:5289   */\n      0x20\n        /* \"#utility.yul\":5278:5283   */\n      dup7\n        /* \"#utility.yul\":5274:5290   */\n      add\n        /* \"#utility.yul\":5252:5304   */\n      tag_76\n      jump\t// in\n    tag_168:\n        /* \"#utility.yul\":5329:5335   */\n      dup1\n        /* \"#utility.yul\":5324:5327   */\n      dup5\n        /* \"#utility.yul\":5320:5336   */\n      add\n        /* \"#utility.yul\":5313:5336   */\n      swap2\n      pop\n        /* \"#utility.yul\":5077:5342   */\n      pop\n        /* \"#utility.yul\":4969:5342   */\n      swap3\n      swap2\n      pop\n      pop\n      jump\t// out\n        /* \"#utility.yul\":5348:5619   */\n    tag_27:\n        /* \"#utility.yul\":5478:5481   */\n      0x00\n        /* \"#utility.yul\":5500:5593   */\n      tag_170\n        /* \"#utility.yul\":5589:5592   */\n      dup3\n        /* \"#utility.yul\":5580:5586   */\n      dup5\n        /* \"#utility.yul\":5500:5593   */\n      tag_77\n      jump\t// in\n    tag_170:\n        /* \"#utility.yul\":5493:5593   */\n      swap2\n      pop\n        /* \"#utility.yul\":5610:5613   */\n      dup2\n        /* \"#utility.yul\":5603:5613   */\n      swap1\n      pop\n        /* \"#utility.yul\":5348:5619   */\n      swap3\n      swap2\n      pop\n      pop\n      jump\t// out\n        /* \"#utility.yul\":5625:5724   */\n    tag_78:\n        /* \"#utility.yul\":5677:5683   */\n      0x00\n        /* \"#utility.yul\":5711:5716   */\n      dup2\n        /* \"#utility.yul\":5705:5717   */\n      mload\n        /* \"#utility.yul\":5695:5717   */\n      swap1\n      pop\n        /* \"#utility.yul\":5625:5724   */\n      swap2\n      swap1\n      pop\n      jump\t// out\n        /* \"#utility.yul\":5730:5899   */\n    tag_79:\n        /* \"#utility.yul\":5814:5825   */\n      0x00\n        /* \"#utility.yul\":5848:5854   */\n      dup3\n        /* \"#utility.yul\":5843:5846   */\n      dup3\n        /* \"#utility.yul\":5836:5855   */\n      mstore\n        /* \"#utility.yul\":5888:5892   */\n      0x20\n        /* \"#utility.yul\":5883:5886   */\n      dup3\n        /* \"#utility.yul\":5879:5893   */\n      add\n        /* \"#utility.yul\":5864:5893   */\n      swap1\n      pop\n        /* \"#utility.yul\":5730:5899   */\n      swap3\n      swap2\n      pop\n      pop\n      jump\t// out\n        /* \"#utility.yul\":5905:6007   */\n    tag_80:\n        /* \"#utility.yul\":5946:5952   */\n      0x00\n        /* \"#utility.yul\":5997:5999   */\n      0x1f\n        /* \"#utility.yul\":5993:6000   */\n      not\n        /* \"#utility.yul\":5988:5990   */\n      0x1f\n        /* \"#utility.yul\":5981:5986   */\n      dup4\n        /* \"#utility.yul\":5977:5991   */\n      add\n        /* \"#utility.yul\":5973:6001   */\n      and\n        /* \"#utility.yul\":5963:6001   */\n      swap1\n      pop\n        /* \"#utility.yul\":5905:6007   */\n      swap2\n      swap1\n      pop\n      jump\t// out\n        /* \"#utility.yul\":6013:6377   */\n    tag_81:\n        /* \"#utility.yul\":6101:6104   */\n      0x00\n        /* \"#utility.yul\":6129:6168   */\n      tag_175\n        /* \"#utility.yul\":6162:6167   */\n      dup3\n        /* \"#utility.yul\":6129:6168   */\n      tag_78\n      jump\t// in\n    tag_175:\n        /* \"#utility.yul\":6184:6255   */\n      tag_176\n        /* \"#utility.yul\":6248:6254   */\n      dup2\n        /* \"#utility.yul\":6243:6246   */\n      dup6\n        /* \"#utility.yul\":6184:6255   */\n      tag_79\n      jump\t// in\n    tag_176:\n        /* \"#utility.yul\":6177:6255   */\n      swap4\n      pop\n        /* \"#utility.yul\":6264:6316   */\n      tag_177\n        /* \"#utility.yul\":6309:6315   */\n      dup2\n        /* \"#utility.yul\":6304:6307   */\n      dup6\n        /* \"#utility.yul\":6297:6301   */\n      0x20\n        /* \"#utility.yul\":6290:6295   */\n      dup7\n        /* \"#utility.yul\":6286:6302   */\n      add\n        /* \"#utility.yul\":6264:6316   */\n      tag_76\n      jump\t// in\n    tag_177:\n        /* \"#utility.yul\":6341:6370   */\n      tag_178\n        /* \"#utility.yul\":6363:6369   */\n      dup2\n        /* \"#utility.yul\":6341:6370   */\n      tag_80\n      jump\t// in\n    tag_178:\n        /* \"#utility.yul\":6336:6339   */\n      dup5\n        /* \"#utility.yul\":6332:6371   */\n      add\n        /* \"#utility.yul\":6325:6371   */\n      swap2\n      pop\n        /* \"#utility.yul\":6105:6377   */\n      pop\n        /* \"#utility.yul\":6013:6377   */\n      swap3\n      swap2\n      pop\n      pop\n      jump\t// out\n        /* \"#utility.yul\":6383:6696   */\n    tag_35:\n        /* \"#utility.yul\":6496:6500   */\n      0x00\n        /* \"#utility.yul\":6534:6536   */\n      0x20\n        /* \"#utility.yul\":6523:6532   */\n      dup3\n        /* \"#utility.yul\":6519:6537   */\n      add\n        /* \"#utility.yul\":6511:6537   */\n      swap1\n      pop\n        /* \"#utility.yul\":6583:6592   */\n      dup2\n        /* \"#utility.yul\":6577:6581   */\n      dup2\n        /* \"#utility.yul\":6573:6593   */\n      sub\n        /* \"#utility.yul\":6569:6570   */\n      0x00\n        /* \"#utility.yul\":6558:6567   */\n      dup4\n        /* \"#utility.yul\":6554:6571   */\n      add\n        /* \"#utility.yul\":6547:6594   */\n      mstore\n        /* \"#utility.yul\":6611:6689   */\n      tag_180\n        /* \"#utility.yul\":6684:6688   */\n      dup2\n        /* \"#utility.yul\":6675:6681   */\n      dup5\n        /* \"#utility.yul\":6611:6689   */\n      tag_81\n      jump\t// in\n    tag_180:\n        /* \"#utility.yul\":6603:6689   */\n      swap1\n      pop\n        /* \"#utility.yul\":6383:6696   */\n      swap3\n      swap2\n      pop\n      pop\n      jump\t// out\n        /* \"#utility.yul\":6702:6787   */\n    tag_82:\n        /* \"#utility.yul\":6747:6754   */\n      0x00\n        /* \"#utility.yul\":6776:6781   */\n      dup2\n        /* \"#utility.yul\":6765:6781   */\n      swap1\n      pop\n        /* \"#utility.yul\":6702:6787   */\n      swap2\n      swap1\n      pop\n      jump\t// out\n        /* \"#utility.yul\":6793:6947   */\n    tag_83:\n        /* \"#utility.yul\":6849:6858   */\n      0x00\n        /* \"#utility.yul\":6882:6941   */\n      tag_183\n        /* \"#utility.yul\":6898:6940   */\n      tag_184\n        /* \"#utility.yul\":6907:6939   */\n      tag_185\n        /* \"#utility.yul\":6933:6938   */\n      dup5\n        /* \"#utility.yul\":6907:6939   */\n      tag_82\n      jump\t// in\n    tag_185:\n        /* \"#utility.yul\":6898:6940   */\n      tag_59\n      jump\t// in\n    tag_184:\n        /* \"#utility.yul\":6882:6941   */\n      tag_68\n      jump\t// in\n    tag_183:\n        /* \"#utility.yul\":6869:6941   */\n      swap1\n      pop\n        /* \"#utility.yul\":6793:6947   */\n      swap2\n      swap1\n      pop\n      jump\t// out\n        /* \"#utility.yul\":6953:7096   */\n    tag_84:\n        /* \"#utility.yul\":7046:7089   */\n      tag_187\n        /* \"#utility.yul\":7083:7088   */\n      dup2\n        /* \"#utility.yul\":7046:7089   */\n      tag_83\n      jump\t// in\n    tag_187:\n        /* \"#utility.yul\":7041:7044   */\n      dup3\n        /* \"#utility.yul\":7034:7090   */\n      mstore\n        /* \"#utility.yul\":6953:7096   */\n      pop\n      pop\n      jump\t// out\n        /* \"#utility.yul\":7102:7187   */\n    tag_85:\n        /* \"#utility.yul\":7147:7154   */\n      0x00\n        /* \"#utility.yul\":7176:7181   */\n      dup2\n        /* \"#utility.yul\":7165:7181   */\n      swap1\n      pop\n        /* \"#utility.yul\":7102:7187   */\n      swap2\n      swap1\n      pop\n      jump\t// out\n        /* \"#utility.yul\":7193:7347   */\n    tag_86:\n        /* \"#utility.yul\":7249:7258   */\n      0x00\n        /* \"#utility.yul\":7282:7341   */\n      tag_190\n        /* \"#utility.yul\":7298:7340   */\n      tag_191\n        /* \"#utility.yul\":7307:7339   */\n      tag_192\n        /* \"#utility.yul\":7333:7338   */\n      dup5\n        /* \"#utility.yul\":7307:7339   */\n      tag_85\n      jump\t// in\n    tag_192:\n        /* \"#utility.yul\":7298:7340   */\n      tag_59\n      jump\t// in\n    tag_191:\n        /* \"#utility.yul\":7282:7341   */\n      tag_68\n      jump\t// in\n    tag_190:\n        /* \"#utility.yul\":7269:7341   */\n      swap1\n      pop\n        /* \"#utility.yul\":7193:7347   */\n      swap2\n      swap1\n      pop\n      jump\t// out\n        /* \"#utility.yul\":7353:7496   */\n    tag_87:\n        /* \"#utility.yul\":7446:7489   */\n      tag_194\n        /* \"#utility.yul\":7483:7488   */\n      dup2\n        /* \"#utility.yul\":7446:7489   */\n      tag_86\n      jump\t// in\n    tag_194:\n        /* \"#utility.yul\":7441:7444   */\n      dup3\n        /* \"#utility.yul\":7434:7490   */\n      mstore\n        /* \"#utility.yul\":7353:7496   */\n      pop\n      pop\n      jump\t// out\n        /* \"#utility.yul\":7502:7858   */\n    tag_38:\n        /* \"#utility.yul\":7635:7639   */\n      0x00\n        /* \"#utility.yul\":7673:7675   */\n      0x40\n        /* \"#utility.yul\":7662:7671   */\n      dup3\n        /* \"#utility.yul\":7658:7676   */\n      add\n        /* \"#utility.yul\":7650:7676   */\n      swap1\n      pop\n        /* \"#utility.yul\":7686:7763   */\n      tag_196\n        /* \"#utility.yul\":7760:7761   */\n      0x00\n        /* \"#utility.yul\":7749:7758   */\n      dup4\n        /* \"#utility.yul\":7745:7762   */\n      add\n        /* \"#utility.yul\":7736:7742   */\n      dup6\n        /* \"#utility.yul\":7686:7763   */\n      tag_84\n      jump\t// in\n    tag_196:\n        /* \"#utility.yul\":7773:7851   */\n      tag_197\n        /* \"#utility.yul\":7847:7849   */\n      0x20\n        /* \"#utility.yul\":7836:7845   */\n      dup4\n        /* \"#utility.yul\":7832:7850   */\n      add\n        /* \"#utility.yul\":7823:7829   */\n      dup5\n        /* \"#utility.yul\":7773:7851   */\n      tag_87\n      jump\t// in\n    tag_197:\n        /* \"#utility.yul\":7502:7858   */\n      swap4\n      swap3\n      pop\n      pop\n      pop\n      jump\t// out\n        /* \"#utility.yul\":7864:7981   */\n    tag_88:\n        /* \"#utility.yul\":7973:7974   */\n      0x00\n        /* \"#utility.yul\":7970:7971   */\n      dup1\n        /* \"#utility.yul\":7963:7975   */\n      revert\n        /* \"#utility.yul\":7987:8104   */\n    tag_89:\n        /* \"#utility.yul\":8096:8097   */\n      0x00\n        /* \"#utility.yul\":8093:8094   */\n      dup1\n        /* \"#utility.yul\":8086:8098   */\n      revert\n        /* \"#utility.yul\":8110:8290   */\n    tag_90:\n        /* \"#utility.yul\":8158:8235   */\n      0x4e487b7100000000000000000000000000000000000000000000000000000000\n        /* \"#utility.yul\":8155:8156   */\n      0x00\n        /* \"#utility.yul\":8148:8236   */\n      mstore\n        /* \"#utility.yul\":8255:8259   */\n      0x41\n        /* \"#utility.yul\":8252:8253   */\n      0x04\n        /* \"#utility.yul\":8245:8260   */\n      mstore\n        /* \"#utility.yul\":8279:8283   */\n      0x24\n        /* \"#utility.yul\":8276:8277   */\n      0x00\n        /* \"#utility.yul\":8269:8284   */\n      revert\n        /* \"#utility.yul\":8296:8577   */\n    tag_91:\n        /* \"#utility.yul\":8379:8406   */\n      tag_202\n        /* \"#utility.yul\":8401:8405   */\n      dup3\n        /* \"#utility.yul\":8379:8406   */\n      tag_80\n      jump\t// in\n    tag_202:\n        /* \"#utility.yul\":8371:8377   */\n      dup2\n        /* \"#utility.yul\":8367:8407   */\n      add\n        /* \"#utility.yul\":8509:8515   */\n      dup2\n        /* \"#utility.yul\":8497:8507   */\n      dup2\n        /* \"#utility.yul\":8494:8516   */\n      lt\n        /* \"#utility.yul\":8473:8491   */\n      0xffffffffffffffff\n        /* \"#utility.yul\":8461:8471   */\n      dup3\n        /* \"#utility.yul\":8458:8492   */\n      gt\n        /* \"#utility.yul\":8455:8517   */\n      or\n        /* \"#utility.yul\":8452:8540   */\n      iszero\n      tag_203\n      jumpi\n        /* \"#utility.yul\":8520:8538   */\n      tag_204\n      tag_90\n      jump\t// in\n    tag_204:\n        /* \"#utility.yul\":8452:8540   */\n    tag_203:\n        /* \"#utility.yul\":8560:8570   */\n      dup1\n        /* \"#utility.yul\":8556:8558   */\n      0x40\n        /* \"#utility.yul\":8549:8571   */\n      mstore\n        /* \"#utility.yul\":8339:8577   */\n      pop\n        /* \"#utility.yul\":8296:8577   */\n      pop\n      pop\n      jump\t// out\n        /* \"#utility.yul\":8583:8712   */\n    tag_92:\n        /* \"#utility.yul\":8617:8623   */\n      0x00\n        /* \"#utility.yul\":8644:8664   */\n      tag_206\n      tag_50\n      jump\t// in\n    tag_206:\n        /* \"#utility.yul\":8634:8664   */\n      swap1\n      pop\n        /* \"#utility.yul\":8673:8706   */\n      tag_207\n        /* \"#utility.yul\":8701:8705   */\n      dup3\n        /* \"#utility.yul\":8693:8699   */\n      dup3\n        /* \"#utility.yul\":8673:8706   */\n      tag_91\n      jump\t// in\n    tag_207:\n        /* \"#utility.yul\":8583:8712   */\n      swap2\n      swap1\n      pop\n      jump\t// out\n        /* \"#utility.yul\":8718:9026   */\n    tag_93:\n        /* \"#utility.yul\":8780:8784   */\n      0x00\n        /* \"#utility.yul\":8870:8888   */\n      0xffffffffffffffff\n        /* \"#utility.yul\":8862:8868   */\n      dup3\n        /* \"#utility.yul\":8859:8889   */\n      gt\n        /* \"#utility.yul\":8856:8912   */\n      iszero\n      tag_209\n      jumpi\n        /* \"#utility.yul\":8892:8910   */\n      tag_210\n      tag_90\n      jump\t// in\n    tag_210:\n        /* \"#utility.yul\":8856:8912   */\n    tag_209:\n        /* \"#utility.yul\":8930:8959   */\n      tag_211\n        /* \"#utility.yul\":8952:8958   */\n      dup3\n        /* \"#utility.yul\":8930:8959   */\n      tag_80\n      jump\t// in\n    tag_211:\n        /* \"#utility.yul\":8922:8959   */\n      swap1\n      pop\n        /* \"#utility.yul\":9014:9018   */\n      0x20\n        /* \"#utility.yul\":9008:9012   */\n      dup2\n        /* \"#utility.yul\":9004:9019   */\n      add\n        /* \"#utility.yul\":8996:9019   */\n      swap1\n      pop\n        /* \"#utility.yul\":8718:9026   */\n      swap2\n      swap1\n      pop\n      jump\t// out\n        /* \"#utility.yul\":9032:9453   */\n    tag_94:\n        /* \"#utility.yul\":9121:9126   */\n      0x00\n        /* \"#utility.yul\":9146:9212   */\n      tag_213\n        /* \"#utility.yul\":9162:9211   */\n      tag_214\n        /* \"#utility.yul\":9204:9210   */\n      dup5\n        /* \"#utility.yul\":9162:9211   */\n      tag_93\n      jump\t// in\n    tag_214:\n        /* \"#utility.yul\":9146:9212   */\n      tag_92\n      jump\t// in\n    tag_213:\n        /* \"#utility.yul\":9137:9212   */\n      swap1\n      pop\n        /* \"#utility.yul\":9235:9241   */\n      dup3\n        /* \"#utility.yul\":9228:9233   */\n      dup2\n        /* \"#utility.yul\":9221:9242   */\n      mstore\n        /* \"#utility.yul\":9273:9277   */\n      0x20\n        /* \"#utility.yul\":9266:9271   */\n      dup2\n        /* \"#utility.yul\":9262:9278   */\n      add\n        /* \"#utility.yul\":9311:9314   */\n      dup5\n        /* \"#utility.yul\":9302:9308   */\n      dup5\n        /* \"#utility.yul\":9297:9300   */\n      dup5\n        /* \"#utility.yul\":9293:9309   */\n      add\n        /* \"#utility.yul\":9290:9315   */\n      gt\n        /* \"#utility.yul\":9287:9399   */\n      iszero\n      tag_215\n      jumpi\n        /* \"#utility.yul\":9318:9397   */\n      tag_216\n      tag_89\n      jump\t// in\n    tag_216:\n        /* \"#utility.yul\":9287:9399   */\n    tag_215:\n        /* \"#utility.yul\":9408:9447   */\n      tag_217\n        /* \"#utility.yul\":9440:9446   */\n      dup5\n        /* \"#utility.yul\":9435:9438   */\n      dup3\n        /* \"#utility.yul\":9430:9433   */\n      dup6\n        /* \"#utility.yul\":9408:9447   */\n      tag_76\n      jump\t// in\n    tag_217:\n        /* \"#utility.yul\":9127:9453   */\n      pop\n        /* \"#utility.yul\":9032:9453   */\n      swap4\n      swap3\n      pop\n      pop\n      pop\n      jump\t// out\n        /* \"#utility.yul\":9473:9828   */\n    tag_95:\n        /* \"#utility.yul\":9540:9545   */\n      0x00\n        /* \"#utility.yul\":9589:9592   */\n      dup3\n        /* \"#utility.yul\":9582:9586   */\n      0x1f\n        /* \"#utility.yul\":9574:9580   */\n      dup4\n        /* \"#utility.yul\":9570:9587   */\n      add\n        /* \"#utility.yul\":9566:9593   */\n      slt\n        /* \"#utility.yul\":9556:9678   */\n      tag_219\n      jumpi\n        /* \"#utility.yul\":9597:9676   */\n      tag_220\n      tag_88\n      jump\t// in\n    tag_220:\n        /* \"#utility.yul\":9556:9678   */\n    tag_219:\n        /* \"#utility.yul\":9707:9713   */\n      dup2\n        /* \"#utility.yul\":9701:9714   */\n      mload\n        /* \"#utility.yul\":9732:9822   */\n      tag_221\n        /* \"#utility.yul\":9818:9821   */\n      dup5\n        /* \"#utility.yul\":9810:9816   */\n      dup3\n        /* \"#utility.yul\":9803:9807   */\n      0x20\n        /* \"#utility.yul\":9795:9801   */\n      dup7\n        /* \"#utility.yul\":9791:9808   */\n      add\n        /* \"#utility.yul\":9732:9822   */\n      tag_94\n      jump\t// in\n    tag_221:\n        /* \"#utility.yul\":9723:9822   */\n      swap2\n      pop\n        /* \"#utility.yul\":9546:9828   */\n      pop\n        /* \"#utility.yul\":9473:9828   */\n      swap3\n      swap2\n      pop\n      pop\n      jump\t// out\n        /* \"#utility.yul\":9834:10358   */\n    tag_49:\n        /* \"#utility.yul\":9914:9920   */\n      0x00\n        /* \"#utility.yul\":9963:9965   */\n      0x20\n        /* \"#utility.yul\":9951:9960   */\n      dup3\n        /* \"#utility.yul\":9942:9949   */\n      dup5\n        /* \"#utility.yul\":9938:9961   */\n      sub\n        /* \"#utility.yul\":9934:9966   */\n      slt\n        /* \"#utility.yul\":9931:10050   */\n      iszero\n      tag_223\n      jumpi\n        /* \"#utility.yul\":9969:10048   */\n      tag_224\n      tag_51\n      jump\t// in\n    tag_224:\n        /* \"#utility.yul\":9931:10050   */\n    tag_223:\n        /* \"#utility.yul\":10110:10111   */\n      0x00\n        /* \"#utility.yul\":10099:10108   */\n      dup3\n        /* \"#utility.yul\":10095:10112   */\n      add\n        /* \"#utility.yul\":10089:10113   */\n      mload\n        /* \"#utility.yul\":10140:10158   */\n      0xffffffffffffffff\n        /* \"#utility.yul\":10132:10138   */\n      dup2\n        /* \"#utility.yul\":10129:10159   */\n      gt\n        /* \"#utility.yul\":10126:10243   */\n      iszero\n      tag_225\n      jumpi\n        /* \"#utility.yul\":10162:10241   */\n      tag_226\n      tag_52\n      jump\t// in\n    tag_226:\n        /* \"#utility.yul\":10126:10243   */\n    tag_225:\n        /* \"#utility.yul\":10267:10341   */\n      tag_227\n        /* \"#utility.yul\":10333:10340   */\n      dup5\n        /* \"#utility.yul\":10324:10330   */\n      dup3\n        /* \"#utility.yul\":10313:10322   */\n      dup6\n        /* \"#utility.yul\":10309:10331   */\n      add\n        /* \"#utility.yul\":10267:10341   */\n      tag_95\n      jump\t// in\n    tag_227:\n        /* \"#utility.yul\":10257:10341   */\n      swap2\n      pop\n        /* \"#utility.yul\":10060:10351   */\n      pop\n        /* \"#utility.yul\":9834:10358   */\n      swap3\n      swap2\n      pop\n      pop\n      jump\t// out\n\n    auxdata: 0xa264697066735822122077b98c0979c3987a737ae7e6772574990bcec21c86da037072bb406535c4c16f64736f6c634300080d0033\n}\n",
				"bytecode": {
					"linkReferences": {},
					"object": "608060405234801561001057600080fd5b506109d5806100206000396000f3fe608060405234801561001057600080fd5b50600436106100415760003560e01c80633f93ff0b14610046578063edd7d16614610062578063f965df6d1461007e575b600080fd5b610060600480360381019061005b9190610493565b61009a565b005b61007c60048036038101906100779190610493565b610124565b005b61009860048036038101906100939190610493565b61026c565b005b60008190508073ffffffffffffffffffffffffffffffffffffffff1663771602f7600160026040518363ffffffff1660e01b81526004016100dc92919061054a565b6020604051808303816000875af11580156100fb573d6000803e3d6000fd5b505050506040513d601f19601f8201168201806040525081019061011f919061059f565b505050565b6000808273ffffffffffffffffffffffffffffffffffffffff166005600660405160240161015392919061064f565b6040516020818303038152906040527f771602f7000000000000000000000000000000000000000000000000000000007bffffffffffffffffffffffffffffffffffffffffffffffffffffffff19166020820180517bffffffffffffffffffffffffffffffffffffffffffffffffffffffff83818316178352505050506040516101dd91906106f2565b600060405180830381855af49150503d8060008114610218576040519150601f19603f3d011682016040523d82523d6000602084013e61021d565b606091505b509150915081610267577f6c73d23083c4f9b446c408bc6e8784ab2c54cf950789d7e220da38ed7b035cc0610251826103b6565b60405161025e919061076f565b60405180910390a15b505050565b6000808273ffffffffffffffffffffffffffffffffffffffff166003600460405160240161029b929190610807565b6040516020818303038152906040527f771602f7000000000000000000000000000000000000000000000000000000007bffffffffffffffffffffffffffffffffffffffffffffffffffffffff19166020820180517bffffffffffffffffffffffffffffffffffffffffffffffffffffffff838183161783525050505060405161032591906106f2565b6000604051808303816000865af19150503d8060008114610362576040519150601f19603f3d011682016040523d82523d6000602084013e610367565b606091505b5091509150816103b1577f6c73d23083c4f9b446c408bc6e8784ab2c54cf950789d7e220da38ed7b035cc061039b826103b6565b6040516103a8919061076f565b60405180910390a15b505050565b60606044825110156103ff576040518060400160405280601d81526020017f5472616e73616374696f6e2072657665727465642073696c656e746c79000000815250905061041c565b600482019150818060200190518101906104199190610956565b90505b919050565b6000604051905090565b600080fd5b600080fd5b600073ffffffffffffffffffffffffffffffffffffffff82169050919050565b600061046082610435565b9050919050565b61047081610455565b811461047b57600080fd5b50565b60008135905061048d81610467565b92915050565b6000602082840312156104a9576104a861042b565b5b60006104b78482850161047e565b91505092915050565b6000819050919050565b6000819050919050565b6000819050919050565b60006104f96104f46104ef846104c0565b6104d4565b6104ca565b9050919050565b610509816104de565b82525050565b6000819050919050565b600061053461052f61052a8461050f565b6104d4565b6104ca565b9050919050565b61054481610519565b82525050565b600060408201905061055f6000830185610500565b61056c602083018461053b565b9392505050565b61057c816104ca565b811461058757600080fd5b50565b60008151905061059981610573565b92915050565b6000602082840312156105b5576105b461042b565b5b60006105c38482850161058a565b91505092915050565b6000819050919050565b600060ff82169050919050565b60006105fe6105f96105f4846105cc565b6104d4565b6105d6565b9050919050565b61060e816105e3565b82525050565b6000819050919050565b600061063961063461062f84610614565b6104d4565b6105d6565b9050919050565b6106498161061e565b82525050565b60006040820190506106646000830185610605565b6106716020830184610640565b9392505050565b600081519050919050565b600081905092915050565b60005b838110156106ac578082015181840152602081019050610691565b838111156106bb576000848401525b50505050565b60006106cc82610678565b6106d68185610683565b93506106e681856020860161068e565b80840191505092915050565b60006106fe82846106c1565b915081905092915050565b600081519050919050565b600082825260208201905092915050565b6000601f19601f8301169050919050565b600061074182610709565b61074b8185610714565b935061075b81856020860161068e565b61076481610725565b840191505092915050565b600060208201905081810360008301526107898184610736565b905092915050565b6000819050919050565b60006107b66107b16107ac84610791565b6104d4565b6105d6565b9050919050565b6107c68161079b565b82525050565b6000819050919050565b60006107f16107ec6107e7846107cc565b6104d4565b6105d6565b9050919050565b610801816107d6565b82525050565b600060408201905061081c60008301856107bd565b61082960208301846107f8565b9392505050565b600080fd5b600080fd5b7f4e487b7100000000000000000000000000000000000000000000000000000000600052604160045260246000fd5b61087282610725565b810181811067ffffffffffffffff821117156108915761089061083a565b5b80604052505050565b60006108a4610421565b90506108b08282610869565b919050565b600067ffffffffffffffff8211156108d0576108cf61083a565b5b6108d982610725565b9050602081019050919050565b60006108f96108f4846108b5565b61089a565b90508281526020810184848401111561091557610914610835565b5b61092084828561068e565b509392505050565b600082601f83011261093d5761093c610830565b5b815161094d8482602086016108e6565b91505092915050565b60006020828403121561096c5761096b61042b565b5b600082015167ffffffffffffffff81111561098a57610989610430565b5b61099684828501610928565b9150509291505056fea264697066735822122077b98c0979c3987a737ae7e6772574990bcec21c86da037072bb406535c4c16f64736f6c634300080d0033",
					"opcodes": "PUSH1 0x80 PUSH1 0x40 MSTORE CALLVALUE DUP1 ISZERO PUSH2 0x10 JUMPI PUSH1 0x0 DUP1 REVERT JUMPDEST POP PUSH2 0x9D5 DUP1 PUSH2 0x20 PUSH1 0x0 CODECOPY PUSH1 0x0 RETURN INVALID PUSH1 0x80 PUSH1 0x40 MSTORE CALLVALUE DUP1 ISZERO PUSH2 0x10 JUMPI PUSH1 0x0 DUP1 REVERT JUMPDEST POP PUSH1 0x4 CALLDATASIZE LT PUSH2 0x41 JUMPI PUSH1 0x0 CALLDATALOAD PUSH1 0xE0 SHR DUP1 PUSH4 0x3F93FF0B EQ PUSH2 0x46 JUMPI DUP1 PUSH4 0xEDD7D166 EQ PUSH2 0x62 JUMPI DUP1 PUSH4 0xF965DF6D EQ PUSH2 0x7E JUMPI JUMPDEST PUSH1 0x0 DUP1 REVERT JUMPDEST PUSH2 0x60 PUSH1 0x4 DUP1 CALLDATASIZE SUB DUP2 ADD SWAP1 PUSH2 0x5B SWAP2 SWAP1 PUSH2 0x493 JUMP JUMPDEST PUSH2 0x9A JUMP JUMPDEST STOP JUMPDEST PUSH2 0x7C PUSH1 0x4 DUP1 CALLDATASIZE SUB DUP2 ADD SWAP1 PUSH2 0x77 SWAP2 SWAP1 PUSH2 0x493 JUMP JUMPDEST PUSH2 0x124 JUMP JUMPDEST STOP JUMPDEST PUSH2 0x98 PUSH1 0x4 DUP1 CALLDATASIZE SUB DUP2 ADD SWAP1 PUSH2 0x93 SWAP2 SWAP1 PUSH2 0x493 JUMP JUMPDEST PUSH2 0x26C JUMP JUMPDEST STOP JUMPDEST PUSH1 0x0 DUP2 SWAP1 POP DUP1 PUSH20 0xFFFFFFFFFFFFFFFFFFFFFFFFFFFFFFFFFFFFFFFF AND PUSH4 0x771602F7 PUSH1 0x1 PUSH1 0x2 PUSH1 0x40 MLOAD DUP4 PUSH4 0xFFFFFFFF AND PUSH1 0xE0 SHL DUP2 MSTORE PUSH1 0x4 ADD PUSH2 0xDC SWAP3 SWAP2 SWAP1 PUSH2 0x54A JUMP JUMPDEST PUSH1 0x20 PUSH1 0x40 MLOAD DUP1 DUP4 SUB DUP2 PUSH1 0x0 DUP8 GAS CALL ISZERO DUP1 ISZERO PUSH2 0xFB JUMPI RETURNDATASIZE PUSH1 0x0 DUP1 RETURNDATACOPY RETURNDATASIZE PUSH1 0x0 REVERT JUMPDEST POP POP POP POP PUSH1 0x40 MLOAD RETURNDATASIZE PUSH1 0x1F NOT PUSH1 0x1F DUP3 ADD AND DUP3 ADD DUP1 PUSH1 0x40 MSTORE POP DUP2 ADD SWAP1 PUSH2 0x11F SWAP2 SWAP1 PUSH2 0x59F JUMP JUMPDEST POP POP POP JUMP JUMPDEST PUSH1 0x0 DUP1 DUP3 PUSH20 0xFFFFFFFFFFFFFFFFFFFFFFFFFFFFFFFFFFFFFFFF AND PUSH1 0x5 PUSH1 0x6 PUSH1 0x40 MLOAD PUSH1 0x24 ADD PUSH2 0x153 SWAP3 SWAP2 SWAP1 PUSH2 0x64F JUMP JUMPDEST PUSH1 0x40 MLOAD PUSH1 0x20 DUP2 DUP4 SUB SUB DUP2 MSTORE SWAP1 PUSH1 0x40 MSTORE PUSH32 0x771602F700000000000000000000000000000000000000000000000000000000 PUSH28 0xFFFFFFFFFFFFFFFFFFFFFFFFFFFFFFFFFFFFFFFFFFFFFFFFFFFFFFFF NOT AND PUSH1 0x20 DUP3 ADD DUP1 MLOAD PUSH28 0xFFFFFFFFFFFFFFFFFFFFFFFFFFFFFFFFFFFFFFFFFFFFFFFFFFFFFFFF DUP4 DUP2 DUP4 AND OR DUP4 MSTORE POP POP POP POP PUSH1 0x40 MLOAD PUSH2 0x1DD SWAP2 SWAP1 PUSH2 0x6F2 JUMP JUMPDEST PUSH1 0x0 PUSH1 0x40 MLOAD DUP1 DUP4 SUB DUP2 DUP6 GAS DELEGATECALL SWAP2 POP POP RETURNDATASIZE DUP1 PUSH1 0x0 DUP2 EQ PUSH2 0x218 JUMPI PUSH1 0x40 MLOAD SWAP2 POP PUSH1 0x1F NOT PUSH1 0x3F RETURNDATASIZE ADD AND DUP3 ADD PUSH1 0x40 MSTORE RETURNDATASIZE DUP3 MSTORE RETURNDATASIZE PUSH1 0x0 PUSH1 0x20 DUP5 ADD RETURNDATACOPY PUSH2 0x21D JUMP JUMPDEST PUSH1 0x60 SWAP2 POP JUMPDEST POP SWAP2 POP SWAP2 POP DUP2 PUSH2 0x267 JUMPI PUSH32 0x6C73D23083C4F9B446C408BC6E8784AB2C54CF950789D7E220DA38ED7B035CC0 PUSH2 0x251 DUP3 PUSH2 0x3B6 JUMP JUMPDEST PUSH1 0x40 MLOAD PUSH2 0x25E SWAP2 SWAP1 PUSH2 0x76F JUMP JUMPDEST PUSH1 0x40 MLOAD DUP1 SWAP2 SUB SWAP1 LOG1 JUMPDEST POP POP POP JUMP JUMPDEST PUSH1 0x0 DUP1 DUP3 PUSH20 0xFFFFFFFFFFFFFFFFFFFFFFFFFFFFFFFFFFFFFFFF AND PUSH1 0x3 PUSH1 0x4 PUSH1 0x40 MLOAD PUSH1 0x24 ADD PUSH2 0x29B SWAP3 SWAP2 SWAP1 PUSH2 0x807 JUMP JUMPDEST PUSH1 0x40 MLOAD PUSH1 0x20 DUP2 DUP4 SUB SUB DUP2 MSTORE SWAP1 PUSH1 0x40 MSTORE PUSH32 0x771602F700000000000000000000000000000000000000000000000000000000 PUSH28 0xFFFFFFFFFFFFFFFFFFFFFFFFFFFFFFFFFFFFFFFFFFFFFFFFFFFFFFFF NOT AND PUSH1 0x20 DUP3 ADD DUP1 MLOAD PUSH28 0xFFFFFFFFFFFFFFFFFFFFFFFFFFFFFFFFFFFFFFFFFFFFFFFFFFFFFFFF DUP4 DUP2 DUP4 AND OR DUP4 MSTORE POP POP POP POP PUSH1 0x40 MLOAD PUSH2 0x325 SWAP2 SWAP1 PUSH2 0x6F2 JUMP JUMPDEST PUSH1 0x0 PUSH1 0x40 MLOAD DUP1 DUP4 SUB DUP2 PUSH1 0x0 DUP7 GAS CALL SWAP2 POP POP RETURNDATASIZE DUP1 PUSH1 0x0 DUP2 EQ PUSH2 0x362 JUMPI PUSH1 0x40 MLOAD SWAP2 POP PUSH1 0x1F NOT PUSH1 0x3F RETURNDATASIZE ADD AND DUP3 ADD PUSH1 0x40 MSTORE RETURNDATASIZE DUP3 MSTORE RETURNDATASIZE PUSH1 0x0 PUSH1 0x20 DUP5 ADD RETURNDATACOPY PUSH2 0x367 JUMP JUMPDEST PUSH1 0x60 SWAP2 POP JUMPDEST POP SWAP2 POP SWAP2 POP DUP2 PUSH2 0x3B1 JUMPI PUSH32 0x6C73D23083C4F9B446C408BC6E8784AB2C54CF950789D7E220DA38ED7B035CC0 PUSH2 0x39B DUP3 PUSH2 0x3B6 JUMP JUMPDEST PUSH1 0x40 MLOAD PUSH2 0x3A8 SWAP2 SWAP1 PUSH2 0x76F JUMP JUMPDEST PUSH1 0x40 MLOAD DUP1 SWAP2 SUB SWAP1 LOG1 JUMPDEST POP POP POP JUMP JUMPDEST PUSH1 0x60 PUSH1 0x44 DUP3 MLOAD LT ISZERO PUSH2 0x3FF JUMPI PUSH1 0x40 MLOAD DUP1 PUSH1 0x40 ADD PUSH1 0x40 MSTORE DUP1 PUSH1 0x1D DUP2 MSTORE PUSH1 0x20 ADD PUSH32 0x5472616E73616374696F6E2072657665727465642073696C656E746C79000000 DUP2 MSTORE POP SWAP1 POP PUSH2 0x41C JUMP JUMPDEST PUSH1 0x4 DUP3 ADD SWAP2 POP DUP2 DUP1 PUSH1 0x20 ADD SWAP1 MLOAD DUP2 ADD SWAP1 PUSH2 0x419 SWAP2 SWAP1 PUSH2 0x956 JUMP JUMPDEST SWAP1 POP JUMPDEST SWAP2 SWAP1 POP JUMP JUMPDEST PUSH1 0x0 PUSH1 0x40 MLOAD SWAP1 POP SWAP1 JUMP JUMPDEST PUSH1 0x0 DUP1 REVERT JUMPDEST PUSH1 0x0 DUP1 REVERT JUMPDEST PUSH1 0x0 PUSH20 0xFFFFFFFFFFFFFFFFFFFFFFFFFFFFFFFFFFFFFFFF DUP3 AND SWAP1 POP SWAP2 SWAP1 POP JUMP JUMPDEST PUSH1 0x0 PUSH2 0x460 DUP3 PUSH2 0x435 JUMP JUMPDEST SWAP1 POP SWAP2 SWAP1 POP JUMP JUMPDEST PUSH2 0x470 DUP2 PUSH2 0x455 JUMP JUMPDEST DUP2 EQ PUSH2 0x47B JUMPI PUSH1 0x0 DUP1 REVERT JUMPDEST POP JUMP JUMPDEST PUSH1 0x0 DUP2 CALLDATALOAD SWAP1 POP PUSH2 0x48D DUP2 PUSH2 0x467 JUMP JUMPDEST SWAP3 SWAP2 POP POP JUMP JUMPDEST PUSH1 0x0 PUSH1 0x20 DUP3 DUP5 SUB SLT ISZERO PUSH2 0x4A9 JUMPI PUSH2 0x4A8 PUSH2 0x42B JUMP JUMPDEST JUMPDEST PUSH1 0x0 PUSH2 0x4B7 DUP5 DUP3 DUP6 ADD PUSH2 0x47E JUMP JUMPDEST SWAP2 POP POP SWAP3 SWAP2 POP POP JUMP JUMPDEST PUSH1 0x0 DUP2 SWAP1 POP SWAP2 SWAP1 POP JUMP JUMPDEST PUSH1 0x0 DUP2 SWAP1 POP SWAP2 SWAP1 POP JUMP JUMPDEST PUSH1 0x0 DUP2 SWAP1 POP SWAP2 SWAP1 POP JUMP JUMPDEST PUSH1 0x0 PUSH2 0x4F9 PUSH2 0x4F4 PUSH2 0x4EF DUP5 PUSH2 0x4C0 JUMP JUMPDEST PUSH2 0x4D4 JUMP JUMPDEST PUSH2 0x4CA JUMP JUMPDEST SWAP1 POP SWAP2 SWAP1 POP JUMP JUMPDEST PUSH2 0x509 DUP2 PUSH2 0x4DE JUMP JUMPDEST DUP3 MSTORE POP POP JUMP JUMPDEST PUSH1 0x0 DUP2 SWAP1 POP SWAP2 SWAP1 POP JUMP JUMPDEST PUSH1 0x0 PUSH2 0x534 PUSH2 0x52F PUSH2 0x52A DUP5 PUSH2 0x50F JUMP JUMPDEST PUSH2 0x4D4 JUMP JUMPDEST PUSH2 0x4CA JUMP JUMPDEST SWAP1 POP SWAP2 SWAP1 POP JUMP JUMPDEST PUSH2 0x544 DUP2 PUSH2 0x519 JUMP JUMPDEST DUP3 MSTORE POP POP JUMP JUMPDEST PUSH1 0x0 PUSH1 0x40 DUP3 ADD SWAP1 POP PUSH2 0x55F PUSH1 0x0 DUP4 ADD DUP6 PUSH2 0x500 JUMP JUMPDEST PUSH2 0x56C PUSH1 0x20 DUP4 ADD DUP5 PUSH2 0x53B JUMP JUMPDEST SWAP4 SWAP3 POP POP POP JUMP JUMPDEST PUSH2 0x57C DUP2 PUSH2 0x4CA JUMP JUMPDEST DUP2 EQ PUSH2 0x587 JUMPI PUSH1 0x0 DUP1 REVERT JUMPDEST POP JUMP JUMPDEST PUSH1 0x0 DUP2 MLOAD SWAP1 POP PUSH2 0x599 DUP2 PUSH2 0x573 JUMP JUMPDEST SWAP3 SWAP2 POP POP JUMP JUMPDEST PUSH1 0x0 PUSH1 0x20 DUP3 DUP5 SUB SLT ISZERO PUSH2 0x5B5 JUMPI PUSH2 0x5B4 PUSH2 0x42B JUMP JUMPDEST JUMPDEST PUSH1 0x0 PUSH2 0x5C3 DUP5 DUP3 DUP6 ADD PUSH2 0x58A JUMP JUMPDEST SWAP2 POP POP SWAP3 SWAP2 POP POP JUMP JUMPDEST PUSH1 0x0 DUP2 SWAP1 POP SWAP2 SWAP1 POP JUMP JUMPDEST PUSH1 0x0 PUSH1 0xFF DUP3 AND SWAP1 POP SWAP2 SWAP1 POP JUMP JUMPDEST PUSH1 0x0 PUSH2 0x5FE PUSH2 0x5F9 PUSH2 0x5F4 DUP5 PUSH2 0x5CC JUMP JUMPDEST PUSH2 0x4D4 JUMP JUMPDEST PUSH2 0x5D6 JUMP JUMPDEST SWAP1 POP SWAP2 SWAP1 POP JUMP JUMPDEST PUSH2 0x60E DUP2 PUSH2 0x5E3 JUMP JUMPDEST DUP3 MSTORE POP POP JUMP JUMPDEST PUSH1 0x0 DUP2 SWAP1 POP SWAP2 SWAP1 POP JUMP JUMPDEST PUSH1 0x0 PUSH2 0x639 PUSH2 0x634 PUSH2 0x62F DUP5 PUSH2 0x614 JUMP JUMPDEST PUSH2 0x4D4 JUMP JUMPDEST PUSH2 0x5D6 JUMP JUMPDEST SWAP1 POP SWAP2 SWAP1 POP JUMP JUMPDEST PUSH2 0x649 DUP2 PUSH2 0x61E JUMP JUMPDEST DUP3 MSTORE POP POP JUMP JUMPDEST PUSH1 0x0 PUSH1 0x40 DUP3 ADD SWAP1 POP PUSH2 0x664 PUSH1 0x0 DUP4 ADD DUP6 PUSH2 0x605 JUMP JUMPDEST PUSH2 0x671 PUSH1 0x20 DUP4 ADD DUP5 PUSH2 0x640 JUMP JUMPDEST SWAP4 SWAP3 POP POP POP JUMP JUMPDEST PUSH1 0x0 DUP2 MLOAD SWAP1 POP SWAP2 SWAP1 POP JUMP JUMPDEST PUSH1 0x0 DUP2 SWAP1 POP SWAP3 SWAP2 POP POP JUMP JUMPDEST PUSH1 0x0 JUMPDEST DUP4 DUP2 LT ISZERO PUSH2 0x6AC JUMPI DUP1 DUP3 ADD MLOAD DUP2 DUP5 ADD MSTORE PUSH1 0x20 DUP2 ADD SWAP1 POP PUSH2 0x691 JUMP JUMPDEST DUP4 DUP2 GT ISZERO PUSH2 0x6BB JUMPI PUSH1 0x0 DUP5 DUP5 ADD MSTORE JUMPDEST POP POP POP POP JUMP JUMPDEST PUSH1 0x0 PUSH2 0x6CC DUP3 PUSH2 0x678 JUMP JUMPDEST PUSH2 0x6D6 DUP2 DUP6 PUSH2 0x683 JUMP JUMPDEST SWAP4 POP PUSH2 0x6E6 DUP2 DUP6 PUSH1 0x20 DUP7 ADD PUSH2 0x68E JUMP JUMPDEST DUP1 DUP5 ADD SWAP2 POP POP SWAP3 SWAP2 POP POP JUMP JUMPDEST PUSH1 0x0 PUSH2 0x6FE DUP3 DUP5 PUSH2 0x6C1 JUMP JUMPDEST SWAP2 POP DUP2 SWAP1 POP SWAP3 SWAP2 POP POP JUMP JUMPDEST PUSH1 0x0 DUP2 MLOAD SWAP1 POP SWAP2 SWAP1 POP JUMP JUMPDEST PUSH1 0x0 DUP3 DUP3 MSTORE PUSH1 0x20 DUP3 ADD SWAP1 POP SWAP3 SWAP2 POP POP JUMP JUMPDEST PUSH1 0x0 PUSH1 0x1F NOT PUSH1 0x1F DUP4 ADD AND SWAP1 POP SWAP2 SWAP1 POP JUMP JUMPDEST PUSH1 0x0 PUSH2 0x741 DUP3 PUSH2 0x709 JUMP JUMPDEST PUSH2 0x74B DUP2 DUP6 PUSH2 0x714 JUMP JUMPDEST SWAP4 POP PUSH2 0x75B DUP2 DUP6 PUSH1 0x20 DUP7 ADD PUSH2 0x68E JUMP JUMPDEST PUSH2 0x764 DUP2 PUSH2 0x725 JUMP JUMPDEST DUP5 ADD SWAP2 POP POP SWAP3 SWAP2 POP POP JUMP JUMPDEST PUSH1 0x0 PUSH1 0x20 DUP3 ADD SWAP1 POP DUP2 DUP2 SUB PUSH1 0x0 DUP4 ADD MSTORE PUSH2 0x789 DUP2 DUP5 PUSH2 0x736 JUMP JUMPDEST SWAP1 POP SWAP3 SWAP2 POP POP JUMP JUMPDEST PUSH1 0x0 DUP2 SWAP1 POP SWAP2 SWAP1 POP JUMP JUMPDEST PUSH1 0x0 PUSH2 0x7B6 PUSH2 0x7B1 PUSH2 0x7AC DUP5 PUSH2 0x791 JUMP JUMPDEST PUSH2 0x4D4 JUMP JUMPDEST PUSH2 0x5D6 JUMP JUMPDEST SWAP1 POP SWAP2 SWAP1 POP JUMP JUMPDEST PUSH2 0x7C6 DUP2 PUSH2 0x79B JUMP JUMPDEST DUP3 MSTORE POP POP JUMP JUMPDEST PUSH1 0x0 DUP2 SWAP1 POP SWAP2 SWAP1 POP JUMP JUMPDEST PUSH1 0x0 PUSH2 0x7F1 PUSH2 0x7EC PUSH2 0x7E7 DUP5 PUSH2 0x7CC JUMP JUMPDEST PUSH2 0x4D4 JUMP JUMPDEST PUSH2 0x5D6 JUMP JUMPDEST SWAP1 POP SWAP2 SWAP1 POP JUMP JUMPDEST PUSH2 0x801 DUP2 PUSH2 0x7D6 JUMP JUMPDEST DUP3 MSTORE POP POP JUMP JUMPDEST PUSH1 0x0 PUSH1 0x40 DUP3 ADD SWAP1 POP PUSH2 0x81C PUSH1 0x0 DUP4 ADD DUP6 PUSH2 0x7BD JUMP JUMPDEST PUSH2 0x829 PUSH1 0x20 DUP4 ADD DUP5 PUSH2 0x7F8 JUMP JUMPDEST SWAP4 SWAP3 POP POP POP JUMP JUMPDEST PUSH1 0x0 DUP1 REVERT JUMPDEST PUSH1 0x0 DUP1 REVERT JUMPDEST PUSH32 0x4E487B7100000000000000000000000000000000000000000000000000000000 PUSH1 0x0 MSTORE PUSH1 0x41 PUSH1 0x4 MSTORE PUSH1 0x24 PUSH1 0x0 REVERT JUMPDEST PUSH2 0x872 DUP3 PUSH2 0x725 JUMP JUMPDEST DUP2 ADD DUP2 DUP2 LT PUSH8 0xFFFFFFFFFFFFFFFF DUP3 GT OR ISZERO PUSH2 0x891 JUMPI PUSH2 0x890 PUSH2 0x83A JUMP JUMPDEST JUMPDEST DUP1 PUSH1 0x40 MSTORE POP POP POP JUMP JUMPDEST PUSH1 0x0 PUSH2 0x8A4 PUSH2 0x421 JUMP JUMPDEST SWAP1 POP PUSH2 0x8B0 DUP3 DUP3 PUSH2 0x869 JUMP JUMPDEST SWAP2 SWAP1 POP JUMP JUMPDEST PUSH1 0x0 PUSH8 0xFFFFFFFFFFFFFFFF DUP3 GT ISZERO PUSH2 0x8D0 JUMPI PUSH2 0x8CF PUSH2 0x83A JUMP JUMPDEST JUMPDEST PUSH2 0x8D9 DUP3 PUSH2 0x725 JUMP JUMPDEST SWAP1 POP PUSH1 0x20 DUP2 ADD SWAP1 POP SWAP2 SWAP1 POP JUMP JUMPDEST PUSH1 0x0 PUSH2 0x8F9 PUSH2 0x8F4 DUP5 PUSH2 0x8B5 JUMP JUMPDEST PUSH2 0x89A JUMP JUMPDEST SWAP1 POP DUP3 DUP2 MSTORE PUSH1 0x20 DUP2 ADD DUP5 DUP5 DUP5 ADD GT ISZERO PUSH2 0x915 JUMPI PUSH2 0x914 PUSH2 0x835 JUMP JUMPDEST JUMPDEST PUSH2 0x920 DUP5 DUP3 DUP6 PUSH2 0x68E JUMP JUMPDEST POP SWAP4 SWAP3 POP POP POP JUMP JUMPDEST PUSH1 0x0 DUP3 PUSH1 0x1F DUP4 ADD SLT PUSH2 0x93D JUMPI PUSH2 0x93C PUSH2 0x830 JUMP JUMPDEST JUMPDEST DUP2 MLOAD PUSH2 0x94D DUP5 DUP3 PUSH1 0x20 DUP7 ADD PUSH2 0x8E6 JUMP JUMPDEST SWAP2 POP POP SWAP3 SWAP2 POP POP JUMP JUMPDEST PUSH1 0x0 PUSH1 0x20 DUP3 DUP5 SUB SLT ISZERO PUSH2 0x96C JUMPI PUSH2 0x96B PUSH2 0x42B JUMP JUMPDEST JUMPDEST PUSH1 0x0 DUP3 ADD MLOAD PUSH8 0xFFFFFFFFFFFFFFFF DUP2 GT ISZERO PUSH2 0x98A JUMPI PUSH2 0x989 PUSH2 0x430 JUMP JUMPDEST JUMPDEST PUSH2 0x996 DUP5 DUP3 DUP6 ADD PUSH2 0x928 JUMP JUMPDEST SWAP2 POP POP SWAP3 SWAP2 POP POP JUMP INVALID LOG2 PUSH5 0x6970667358 0x22 SLT KECCAK256 PUSH24 0xB98C0979C3987A737AE7E6772574990BCEC21C86DA037072 0xBB BLOCKHASH PUSH6 0x35C4C16F6473 PUSH16 0x6C634300080D00330000000000000000 "
				},
				"gasEstimates": {
					"creation": {
						"codeDepositCost": "503400",
						"executionCost": "537",
						"totalCost": "503937"
					},
					"external": {
						"directCall(address)": "infinite",
						"lowLevelCallAbi(address)": "infinite",
						"lowLevelDelegateCallAbi(address)": "infinite"
					},
					"internal": {
						"_getRevertMsg(bytes memory)": "infinite"
					}
				},
				"methodIdentifiers": {
					"directCall(address)": "3f93ff0b",
					"lowLevelCallAbi(address)": "f965df6d",
					"lowLevelDelegateCallAbi(address)": "edd7d166"
				}
			},
			"storageLayout": {
				"storage": [],
				"types": null
			},
			"userdoc": {
				"kind": "user",
				"methods": {},
				"version": 1
			}
		}
	}
}