{
	"contracts/assembly/Return.sol": {
		"Return": {
			"abi": [
				{
					"inputs": [],
					"name": "_delegate",
					"outputs": [
						{
							"internalType": "uint256",
							"name": "",
							"type": "uint256"
						}
					],
					"stateMutability": "nonpayable",
					"type": "function"
				}
			],
			"devdoc": {
				"kind": "dev",
				"methods": {},
				"version": 1
			},
			"evm": {
				"assembly": "    /* \"contracts/assembly/Return.sol\":62:249  contract Return {\r... */\n  mstore(0x40, 0x80)\n  callvalue\n  dup1\n  iszero\n  tag_1\n  jumpi\n  0x00\n  dup1\n  revert\ntag_1:\n  pop\n  dataSize(sub_0)\n  dup1\n  dataOffset(sub_0)\n  0x00\n  codecopy\n  0x00\n  return\nstop\n\nsub_0: assembly {\n        /* \"contracts/assembly/Return.sol\":62:249  contract Return {\r... */\n      mstore(0x40, 0x80)\n      callvalue\n      dup1\n      iszero\n      tag_1\n      jumpi\n      0x00\n      dup1\n      revert\n    tag_1:\n      pop\n      jumpi(tag_2, lt(calldatasize, 0x04))\n      shr(0xe0, calldataload(0x00))\n      dup1\n      0xacd963ba\n      eq\n      tag_3\n      jumpi\n    tag_2:\n      0x00\n      dup1\n      revert\n        /* \"contracts/assembly/Return.sol\":85:246  function _delegate() public returns(uint256) {\r... */\n    tag_3:\n      tag_4\n      tag_5\n      jump\t// in\n    tag_4:\n      mload(0x40)\n      dup1\n      dup3\n      dup2\n      mstore\n      0x20\n      add\n      swap2\n      pop\n      pop\n      mload(0x40)\n      dup1\n      swap2\n      sub\n      swap1\n      return\n    tag_5:\n        /* \"contracts/assembly/Return.sol\":121:128  uint256 */\n      0x00\n        /* \"contracts/assembly/Return.sol\":174:175  1 */\n      0x01\n        /* \"contracts/assembly/Return.sol\":199:200  x */\n      dup1\n        /* \"contracts/assembly/Return.sol\":196:197  0 */\n      0x00\n        /* \"contracts/assembly/Return.sol\":189:201  mstore(0, x) */\n      mstore\n        /* \"contracts/assembly/Return.sol\":225:227  32 */\n      0x20\n        /* \"contracts/assembly/Return.sol\":223:224  0 */\n      0x00\n        /* \"contracts/assembly/Return.sol\":215:228  return (0,32) */\n      return\n\n    auxdata: 0xa264697066735822122070f85d1e05737ebe38db86056528938a609980f363b59dd4e2e132f279b08bd464736f6c634300060c0033\n}\n",
				"bytecode": {
					"linkReferences": {},
					"object": "6080604052348015600f57600080fd5b50608d8061001e6000396000f3fe6080604052348015600f57600080fd5b506004361060285760003560e01c8063acd963ba14602d575b600080fd5b60336049565b6040518082815260200191505060405180910390f35b600060018060005260206000f3fea264697066735822122070f85d1e05737ebe38db86056528938a609980f363b59dd4e2e132f279b08bd464736f6c634300060c0033",
					"opcodes": "PUSH1 0x80 PUSH1 0x40 MSTORE CALLVALUE DUP1 ISZERO PUSH1 0xF JUMPI PUSH1 0x0 DUP1 REVERT JUMPDEST POP PUSH1 0x8D DUP1 PUSH2 0x1E PUSH1 0x0 CODECOPY PUSH1 0x0 RETURN INVALID PUSH1 0x80 PUSH1 0x40 MSTORE CALLVALUE DUP1 ISZERO PUSH1 0xF JUMPI PUSH1 0x0 DUP1 REVERT JUMPDEST POP PUSH1 0x4 CALLDATASIZE LT PUSH1 0x28 JUMPI PUSH1 0x0 CALLDATALOAD PUSH1 0xE0 SHR DUP1 PUSH4 0xACD963BA EQ PUSH1 0x2D JUMPI JUMPDEST PUSH1 0x0 DUP1 REVERT JUMPDEST PUSH1 0x33 PUSH1 0x49 JUMP JUMPDEST PUSH1 0x40 MLOAD DUP1 DUP3 DUP2 MSTORE PUSH1 0x20 ADD SWAP2 POP POP PUSH1 0x40 MLOAD DUP1 SWAP2 SUB SWAP1 RETURN JUMPDEST PUSH1 0x0 PUSH1 0x1 DUP1 PUSH1 0x0 MSTORE PUSH1 0x20 PUSH1 0x0 RETURN INVALID LOG2 PUSH5 0x6970667358 0x22 SLT KECCAK256 PUSH17 0xF85D1E05737EBE38DB86056528938A6099 DUP1 RETURN PUSH4 0xB59DD4E2 0xE1 ORIGIN CALLCODE PUSH26 0xB08BD464736F6C634300060C0033000000000000000000000000 "
				},
				"gasEstimates": {
					"creation": {
						"codeDepositCost": "28200",
						"executionCost": "81",
						"totalCost": "28281"
					},
					"external": {
						"_delegate()": "134"
					}
				},
				"methodIdentifiers": {
					"_delegate()": "acd963ba"
				}
			},
			"storageLayout": {
				"storage": [],
				"types": null
			},
			"userdoc": {
				"kind": "user",
				"methods": {},
				"version": 1
			}
		}
	}
}