{
	"data": {
		"bytecode": {
			"linkReferences": {},
			"object": "610a8f610053600b82828239805160001a607314610046577f4e487b7100000000000000000000000000000000000000000000000000000000600052600060045260246000fd5b30600052607381538281f3fe730000000000000000000000000000000000000000301460806040526004361061004b5760003560e01c8063886d3db914610050578063c68b378714610080578063db91bb50146100b0575b600080fd5b61006a60048036038101906100659190610578565b6100e0565b604051610077919061068c565b60405180910390f35b61009a6004803603810190610095919061054f565b610110565b6040516100a791906106a7565b60405180910390f35b6100ca60048036038101906100c5919061054f565b61014f565b6040516100d791906106a7565b60405180910390f35b6000816040516020016100f39190610671565b604051602081830303815290604052805190602001209050919050565b606061011b826102c5565b610128608084901b6102c5565b60405160200161013992919061063a565b6040516020818303038152906040529050919050565b60606000602067ffffffffffffffff811115610194577f4e487b7100000000000000000000000000000000000000000000000000000000600052604160045260246000fd5b6040519080825280601f01601f1916602001820160405280156101c65781602001600182028036833780820191505090505b5090506000805b60208110156102bd5760008160086101e591906108b7565b60026101f19190610799565b8660001c6101ff91906108b7565b60001b9050600060f81b817effffffffffffffffffffffffffffffffffffffffffffffffffffffffffffff1916146102a9578084848151811061026b577f4e487b7100000000000000000000000000000000000000000000000000000000600052603260045260246000fd5b60200101907effffffffffffffffffffffffffffffffffffffffffffffffffffffffffffff1916908160001a90535082806102a590610958565b9350505b5080806102b590610958565b9150506101cd565b505050919050565b6000604077ffffffffffffffff0000000000000000000000000000000060001b836fffffffffffffffffffffffffffffffff191616901c7fffffffffffffffff00000000000000000000000000000000000000000000000060001b836fffffffffffffffffffffffffffffffff19161617905060207bffffffff000000000000000000000000ffffffff000000000000000060001b8216901c7fffffffff000000000000000000000000ffffffff00000000000000000000000060001b821617905060107dffff000000000000ffff000000000000ffff000000000000ffff0000000060001b8216901c7fffff000000000000ffff000000000000ffff000000000000ffff00000000000060001b821617905060087eff000000ff000000ff000000ff000000ff000000ff000000ff000000ff000060001b8216901c7fff000000ff000000ff000000ff000000ff000000ff000000ff000000ff00000060001b821617905060087f0f000f000f000f000f000f000f000f000f000f000f000f000f000f000f000f0060001b8216901c60047ff000f000f000f000f000f000f000f000f000f000f000f000f000f000f000f00060001b8316901c17905060077f0f0f0f0f0f0f0f0f0f0f0f0f0f0f0f0f0f0f0f0f0f0f0f0f0f0f0f0f0f0f0f0f60047f06060606060606060606060606060606060606060606060606060606060606068460001c6104d591906106f0565b901c166104e291906108b7565b8160001c7f303030303030303030303030303030303030303030303030303030303030303061051191906106f0565b61051b91906106f0565b60001b9050919050565b60008135905061053481610a2b565b92915050565b60008135905061054981610a42565b92915050565b60006020828403121561056157600080fd5b600061056f84828501610525565b91505092915050565b60006020828403121561058a57600080fd5b60006105988482850161053a565b91505092915050565b6105aa81610911565b82525050565b6105c16105bc82610911565b6109a1565b82525050565b60006105d2826106c9565b6105dc81856106d4565b93506105ec818560208601610925565b6105f5816109e4565b840191505092915050565b600061060d6002836106e5565b915061061882610a02565b600282019050919050565b61063461062f8261091b565b6109ab565b82525050565b600061064582610600565b915061065182856105b0565b60208201915061066182846105b0565b6020820191508190509392505050565b600061067d8284610623565b60208201915081905092915050565b60006020820190506106a160008301846105a1565b92915050565b600060208201905081810360008301526106c181846105c7565b905092915050565b600081519050919050565b600082825260208201905092915050565b600081905092915050565b60006106fb8261091b565b91506107068361091b565b9250827fffffffffffffffffffffffffffffffffffffffffffffffffffffffffffffffff0382111561073b5761073a6109b5565b5b828201905092915050565b6000808291508390505b60018511156107905780860481111561076c5761076b6109b5565b5b600185161561077b5780820291505b8081029050610789856109f5565b9450610750565b94509492505050565b60006107a48261091b565b91506107af8361091b565b92506107dc7fffffffffffffffffffffffffffffffffffffffffffffffffffffffffffffffff84846107e4565b905092915050565b6000826107f457600190506108b0565b8161080257600090506108b0565b8160018114610818576002811461082257610851565b60019150506108b0565b60ff841115610834576108336109b5565b5b8360020a91508482111561084b5761084a6109b5565b5b506108b0565b5060208310610133831016604e8410600b84101617156108865782820a905083811115610881576108806109b5565b5b6108b0565b6108938484846001610746565b925090508184048111156108aa576108a96109b5565b5b81810290505b9392505050565b60006108c28261091b565b91506108cd8361091b565b9250817fffffffffffffffffffffffffffffffffffffffffffffffffffffffffffffffff0483118215151615610906576109056109b5565b5b828202905092915050565b6000819050919050565b6000819050919050565b60005b83811015610943578082015181840152602081019050610928565b83811115610952576000848401525b50505050565b60006109638261091b565b91507fffffffffffffffffffffffffffffffffffffffffffffffffffffffffffffffff821415610996576109956109b5565b5b600182019050919050565b6000819050919050565b6000819050919050565b7f4e487b7100000000000000000000000000000000000000000000000000000000600052601160045260246000fd5b6000601f19601f8301169050919050565b60008160011c9050919050565b7f3078000000000000000000000000000000000000000000000000000000000000600082015250565b610a3481610911565b8114610a3f57600080fd5b50565b610a4b8161091b565b8114610a5657600080fd5b5056fea2646970667358221220d6114d42fc984aa3b7dadbba0f6295299758f2636bdad12929a72768c3d1789364736f6c63430008010033",
			"opcodes": "PUSH2 0xA8F PUSH2 0x53 PUSH1 0xB DUP3 DUP3 DUP3 CODECOPY DUP1 MLOAD PUSH1 0x0 BYTE PUSH1 0x73 EQ PUSH2 0x46 JUMPI PUSH32 0x4E487B7100000000000000000000000000000000000000000000000000000000 PUSH1 0x0 MSTORE PUSH1 0x0 PUSH1 0x4 MSTORE PUSH1 0x24 PUSH1 0x0 REVERT JUMPDEST ADDRESS PUSH1 0x0 MSTORE PUSH1 0x73 DUP2 MSTORE8 DUP3 DUP2 RETURN INVALID PUSH20 0x0 ADDRESS EQ PUSH1 0x80 PUSH1 0x40 MSTORE PUSH1 0x4 CALLDATASIZE LT PUSH2 0x4B JUMPI PUSH1 0x0 CALLDATALOAD PUSH1 0xE0 SHR DUP1 PUSH4 0x886D3DB9 EQ PUSH2 0x50 JUMPI DUP1 PUSH4 0xC68B3787 EQ PUSH2 0x80 JUMPI DUP1 PUSH4 0xDB91BB50 EQ PUSH2 0xB0 JUMPI JUMPDEST PUSH1 0x0 DUP1 REVERT JUMPDEST PUSH2 0x6A PUSH1 0x4 DUP1 CALLDATASIZE SUB DUP2 ADD SWAP1 PUSH2 0x65 SWAP2 SWAP1 PUSH2 0x578 JUMP JUMPDEST PUSH2 0xE0 JUMP JUMPDEST PUSH1 0x40 MLOAD PUSH2 0x77 SWAP2 SWAP1 PUSH2 0x68C JUMP JUMPDEST PUSH1 0x40 MLOAD DUP1 SWAP2 SUB SWAP1 RETURN JUMPDEST PUSH2 0x9A PUSH1 0x4 DUP1 CALLDATASIZE SUB DUP2 ADD SWAP1 PUSH2 0x95 SWAP2 SWAP1 PUSH2 0x54F JUMP JUMPDEST PUSH2 0x110 JUMP JUMPDEST PUSH1 0x40 MLOAD PUSH2 0xA7 SWAP2 SWAP1 PUSH2 0x6A7 JUMP JUMPDEST PUSH1 0x40 MLOAD DUP1 SWAP2 SUB SWAP1 RETURN JUMPDEST PUSH2 0xCA PUSH1 0x4 DUP1 CALLDATASIZE SUB DUP2 ADD SWAP1 PUSH2 0xC5 SWAP2 SWAP1 PUSH2 0x54F JUMP JUMPDEST PUSH2 0x14F JUMP JUMPDEST PUSH1 0x40 MLOAD PUSH2 0xD7 SWAP2 SWAP1 PUSH2 0x6A7 JUMP JUMPDEST PUSH1 0x40 MLOAD DUP1 SWAP2 SUB SWAP1 RETURN JUMPDEST PUSH1 0x0 DUP2 PUSH1 0x40 MLOAD PUSH1 0x20 ADD PUSH2 0xF3 SWAP2 SWAP1 PUSH2 0x671 JUMP JUMPDEST PUSH1 0x40 MLOAD PUSH1 0x20 DUP2 DUP4 SUB SUB DUP2 MSTORE SWAP1 PUSH1 0x40 MSTORE DUP1 MLOAD SWAP1 PUSH1 0x20 ADD KECCAK256 SWAP1 POP SWAP2 SWAP1 POP JUMP JUMPDEST PUSH1 0x60 PUSH2 0x11B DUP3 PUSH2 0x2C5 JUMP JUMPDEST PUSH2 0x128 PUSH1 0x80 DUP5 SWAP1 SHL PUSH2 0x2C5 JUMP JUMPDEST PUSH1 0x40 MLOAD PUSH1 0x20 ADD PUSH2 0x139 SWAP3 SWAP2 SWAP1 PUSH2 0x63A JUMP JUMPDEST PUSH1 0x40 MLOAD PUSH1 0x20 DUP2 DUP4 SUB SUB DUP2 MSTORE SWAP1 PUSH1 0x40 MSTORE SWAP1 POP SWAP2 SWAP1 POP JUMP JUMPDEST PUSH1 0x60 PUSH1 0x0 PUSH1 0x20 PUSH8 0xFFFFFFFFFFFFFFFF DUP2 GT ISZERO PUSH2 0x194 JUMPI PUSH32 0x4E487B7100000000000000000000000000000000000000000000000000000000 PUSH1 0x0 MSTORE PUSH1 0x41 PUSH1 0x4 MSTORE PUSH1 0x24 PUSH1 0x0 REVERT JUMPDEST PUSH1 0x40 MLOAD SWAP1 DUP1 DUP3 MSTORE DUP1 PUSH1 0x1F ADD PUSH1 0x1F NOT AND PUSH1 0x20 ADD DUP3 ADD PUSH1 0x40 MSTORE DUP1 ISZERO PUSH2 0x1C6 JUMPI DUP2 PUSH1 0x20 ADD PUSH1 0x1 DUP3 MUL DUP1 CALLDATASIZE DUP4 CALLDATACOPY DUP1 DUP3 ADD SWAP2 POP POP SWAP1 POP JUMPDEST POP SWAP1 POP PUSH1 0x0 DUP1 JUMPDEST PUSH1 0x20 DUP2 LT ISZERO PUSH2 0x2BD JUMPI PUSH1 0x0 DUP2 PUSH1 0x8 PUSH2 0x1E5 SWAP2 SWAP1 PUSH2 0x8B7 JUMP JUMPDEST PUSH1 0x2 PUSH2 0x1F1 SWAP2 SWAP1 PUSH2 0x799 JUMP JUMPDEST DUP7 PUSH1 0x0 SHR PUSH2 0x1FF SWAP2 SWAP1 PUSH2 0x8B7 JUMP JUMPDEST PUSH1 0x0 SHL SWAP1 POP PUSH1 0x0 PUSH1 0xF8 SHL DUP2 PUSH31 0xFFFFFFFFFFFFFFFFFFFFFFFFFFFFFFFFFFFFFFFFFFFFFFFFFFFFFFFFFFFFFF NOT AND EQ PUSH2 0x2A9 JUMPI DUP1 DUP5 DUP5 DUP2 MLOAD DUP2 LT PUSH2 0x26B JUMPI PUSH32 0x4E487B7100000000000000000000000000000000000000000000000000000000 PUSH1 0x0 MSTORE PUSH1 0x32 PUSH1 0x4 MSTORE PUSH1 0x24 PUSH1 0x0 REVERT JUMPDEST PUSH1 0x20 ADD ADD SWAP1 PUSH31 0xFFFFFFFFFFFFFFFFFFFFFFFFFFFFFFFFFFFFFFFFFFFFFFFFFFFFFFFFFFFFFF NOT AND SWAP1 DUP2 PUSH1 0x0 BYTE SWAP1 MSTORE8 POP DUP3 DUP1 PUSH2 0x2A5 SWAP1 PUSH2 0x958 JUMP JUMPDEST SWAP4 POP POP JUMPDEST POP DUP1 DUP1 PUSH2 0x2B5 SWAP1 PUSH2 0x958 JUMP JUMPDEST SWAP2 POP POP PUSH2 0x1CD JUMP JUMPDEST POP POP POP SWAP2 SWAP1 POP JUMP JUMPDEST PUSH1 0x0 PUSH1 0x40 PUSH24 0xFFFFFFFFFFFFFFFF00000000000000000000000000000000 PUSH1 0x0 SHL DUP4 PUSH16 0xFFFFFFFFFFFFFFFFFFFFFFFFFFFFFFFF NOT AND AND SWAP1 SHR PUSH32 0xFFFFFFFFFFFFFFFF000000000000000000000000000000000000000000000000 PUSH1 0x0 SHL DUP4 PUSH16 0xFFFFFFFFFFFFFFFFFFFFFFFFFFFFFFFF NOT AND AND OR SWAP1 POP PUSH1 0x20 PUSH28 0xFFFFFFFF000000000000000000000000FFFFFFFF0000000000000000 PUSH1 0x0 SHL DUP3 AND SWAP1 SHR PUSH32 0xFFFFFFFF000000000000000000000000FFFFFFFF000000000000000000000000 PUSH1 0x0 SHL DUP3 AND OR SWAP1 POP PUSH1 0x10 PUSH30 0xFFFF000000000000FFFF000000000000FFFF000000000000FFFF00000000 PUSH1 0x0 SHL DUP3 AND SWAP1 SHR PUSH32 0xFFFF000000000000FFFF000000000000FFFF000000000000FFFF000000000000 PUSH1 0x0 SHL DUP3 AND OR SWAP1 POP PUSH1 0x8 PUSH31 0xFF000000FF000000FF000000FF000000FF000000FF000000FF000000FF0000 PUSH1 0x0 SHL DUP3 AND SWAP1 SHR PUSH32 0xFF000000FF000000FF000000FF000000FF000000FF000000FF000000FF000000 PUSH1 0x0 SHL DUP3 AND OR SWAP1 POP PUSH1 0x8 PUSH32 0xF000F000F000F000F000F000F000F000F000F000F000F000F000F000F000F00 PUSH1 0x0 SHL DUP3 AND SWAP1 SHR PUSH1 0x4 PUSH32 0xF000F000F000F000F000F000F000F000F000F000F000F000F000F000F000F000 PUSH1 0x0 SHL DUP4 AND SWAP1 SHR OR SWAP1 POP PUSH1 0x7 PUSH32 0xF0F0F0F0F0F0F0F0F0F0F0F0F0F0F0F0F0F0F0F0F0F0F0F0F0F0F0F0F0F0F0F PUSH1 0x4 PUSH32 0x606060606060606060606060606060606060606060606060606060606060606 DUP5 PUSH1 0x0 SHR PUSH2 0x4D5 SWAP2 SWAP1 PUSH2 0x6F0 JUMP JUMPDEST SWAP1 SHR AND PUSH2 0x4E2 SWAP2 SWAP1 PUSH2 0x8B7 JUMP JUMPDEST DUP2 PUSH1 0x0 SHR PUSH32 0x3030303030303030303030303030303030303030303030303030303030303030 PUSH2 0x511 SWAP2 SWAP1 PUSH2 0x6F0 JUMP JUMPDEST PUSH2 0x51B SWAP2 SWAP1 PUSH2 0x6F0 JUMP JUMPDEST PUSH1 0x0 SHL SWAP1 POP SWAP2 SWAP1 POP JUMP JUMPDEST PUSH1 0x0 DUP2 CALLDATALOAD SWAP1 POP PUSH2 0x534 DUP2 PUSH2 0xA2B JUMP JUMPDEST SWAP3 SWAP2 POP POP JUMP JUMPDEST PUSH1 0x0 DUP2 CALLDATALOAD SWAP1 POP PUSH2 0x549 DUP2 PUSH2 0xA42 JUMP JUMPDEST SWAP3 SWAP2 POP POP JUMP JUMPDEST PUSH1 0x0 PUSH1 0x20 DUP3 DUP5 SUB SLT ISZERO PUSH2 0x561 JUMPI PUSH1 0x0 DUP1 REVERT JUMPDEST PUSH1 0x0 PUSH2 0x56F DUP5 DUP3 DUP6 ADD PUSH2 0x525 JUMP JUMPDEST SWAP2 POP POP SWAP3 SWAP2 POP POP JUMP JUMPDEST PUSH1 0x0 PUSH1 0x20 DUP3 DUP5 SUB SLT ISZERO PUSH2 0x58A JUMPI PUSH1 0x0 DUP1 REVERT JUMPDEST PUSH1 0x0 PUSH2 0x598 DUP5 DUP3 DUP6 ADD PUSH2 0x53A JUMP JUMPDEST SWAP2 POP POP SWAP3 SWAP2 POP POP JUMP JUMPDEST PUSH2 0x5AA DUP2 PUSH2 0x911 JUMP JUMPDEST DUP3 MSTORE POP POP JUMP JUMPDEST PUSH2 0x5C1 PUSH2 0x5BC DUP3 PUSH2 0x911 JUMP JUMPDEST PUSH2 0x9A1 JUMP JUMPDEST DUP3 MSTORE POP POP JUMP JUMPDEST PUSH1 0x0 PUSH2 0x5D2 DUP3 PUSH2 0x6C9 JUMP JUMPDEST PUSH2 0x5DC DUP2 DUP6 PUSH2 0x6D4 JUMP JUMPDEST SWAP4 POP PUSH2 0x5EC DUP2 DUP6 PUSH1 0x20 DUP7 ADD PUSH2 0x925 JUMP JUMPDEST PUSH2 0x5F5 DUP2 PUSH2 0x9E4 JUMP JUMPDEST DUP5 ADD SWAP2 POP POP SWAP3 SWAP2 POP POP JUMP JUMPDEST PUSH1 0x0 PUSH2 0x60D PUSH1 0x2 DUP4 PUSH2 0x6E5 JUMP JUMPDEST SWAP2 POP PUSH2 0x618 DUP3 PUSH2 0xA02 JUMP JUMPDEST PUSH1 0x2 DUP3 ADD SWAP1 POP SWAP2 SWAP1 POP JUMP JUMPDEST PUSH2 0x634 PUSH2 0x62F DUP3 PUSH2 0x91B JUMP JUMPDEST PUSH2 0x9AB JUMP JUMPDEST DUP3 MSTORE POP POP JUMP JUMPDEST PUSH1 0x0 PUSH2 0x645 DUP3 PUSH2 0x600 JUMP JUMPDEST SWAP2 POP PUSH2 0x651 DUP3 DUP6 PUSH2 0x5B0 JUMP JUMPDEST PUSH1 0x20 DUP3 ADD SWAP2 POP PUSH2 0x661 DUP3 DUP5 PUSH2 0x5B0 JUMP JUMPDEST PUSH1 0x20 DUP3 ADD SWAP2 POP DUP2 SWAP1 POP SWAP4 SWAP3 POP POP POP JUMP JUMPDEST PUSH1 0x0 PUSH2 0x67D DUP3 DUP5 PUSH2 0x623 JUMP JUMPDEST PUSH1 0x20 DUP3 ADD SWAP2 POP DUP2 SWAP1 POP SWAP3 SWAP2 POP POP JUMP JUMPDEST PUSH1 0x0 PUSH1 0x20 DUP3 ADD SWAP1 POP PUSH2 0x6A1 PUSH1 0x0 DUP4 ADD DUP5 PUSH2 0x5A1 JUMP JUMPDEST SWAP3 SWAP2 POP POP JUMP JUMPDEST PUSH1 0x0 PUSH1 0x20 DUP3 ADD SWAP1 POP DUP2 DUP2 SUB PUSH1 0x0 DUP4 ADD MSTORE PUSH2 0x6C1 DUP2 DUP5 PUSH2 0x5C7 JUMP JUMPDEST SWAP1 POP SWAP3 SWAP2 POP POP JUMP JUMPDEST PUSH1 0x0 DUP2 MLOAD SWAP1 POP SWAP2 SWAP1 POP JUMP JUMPDEST PUSH1 0x0 DUP3 DUP3 MSTORE PUSH1 0x20 DUP3 ADD SWAP1 POP SWAP3 SWAP2 POP POP JUMP JUMPDEST PUSH1 0x0 DUP2 SWAP1 POP SWAP3 SWAP2 POP POP JUMP JUMPDEST PUSH1 0x0 PUSH2 0x6FB DUP3 PUSH2 0x91B JUMP JUMPDEST SWAP2 POP PUSH2 0x706 DUP4 PUSH2 0x91B JUMP JUMPDEST SWAP3 POP DUP3 PUSH32 0xFFFFFFFFFFFFFFFFFFFFFFFFFFFFFFFFFFFFFFFFFFFFFFFFFFFFFFFFFFFFFFFF SUB DUP3 GT ISZERO PUSH2 0x73B JUMPI PUSH2 0x73A PUSH2 0x9B5 JUMP JUMPDEST JUMPDEST DUP3 DUP3 ADD SWAP1 POP SWAP3 SWAP2 POP POP JUMP JUMPDEST PUSH1 0x0 DUP1 DUP3 SWAP2 POP DUP4 SWAP1 POP JUMPDEST PUSH1 0x1 DUP6 GT ISZERO PUSH2 0x790 JUMPI DUP1 DUP7 DIV DUP2 GT ISZERO PUSH2 0x76C JUMPI PUSH2 0x76B PUSH2 0x9B5 JUMP JUMPDEST JUMPDEST PUSH1 0x1 DUP6 AND ISZERO PUSH2 0x77B JUMPI DUP1 DUP3 MUL SWAP2 POP JUMPDEST DUP1 DUP2 MUL SWAP1 POP PUSH2 0x789 DUP6 PUSH2 0x9F5 JUMP JUMPDEST SWAP5 POP PUSH2 0x750 JUMP JUMPDEST SWAP5 POP SWAP5 SWAP3 POP POP POP JUMP JUMPDEST PUSH1 0x0 PUSH2 0x7A4 DUP3 PUSH2 0x91B JUMP JUMPDEST SWAP2 POP PUSH2 0x7AF DUP4 PUSH2 0x91B JUMP JUMPDEST SWAP3 POP PUSH2 0x7DC PUSH32 0xFFFFFFFFFFFFFFFFFFFFFFFFFFFFFFFFFFFFFFFFFFFFFFFFFFFFFFFFFFFFFFFF DUP5 DUP5 PUSH2 0x7E4 JUMP JUMPDEST SWAP1 POP SWAP3 SWAP2 POP POP JUMP JUMPDEST PUSH1 0x0 DUP3 PUSH2 0x7F4 JUMPI PUSH1 0x1 SWAP1 POP PUSH2 0x8B0 JUMP JUMPDEST DUP2 PUSH2 0x802 JUMPI PUSH1 0x0 SWAP1 POP PUSH2 0x8B0 JUMP JUMPDEST DUP2 PUSH1 0x1 DUP2 EQ PUSH2 0x818 JUMPI PUSH1 0x2 DUP2 EQ PUSH2 0x822 JUMPI PUSH2 0x851 JUMP JUMPDEST PUSH1 0x1 SWAP2 POP POP PUSH2 0x8B0 JUMP JUMPDEST PUSH1 0xFF DUP5 GT ISZERO PUSH2 0x834 JUMPI PUSH2 0x833 PUSH2 0x9B5 JUMP JUMPDEST JUMPDEST DUP4 PUSH1 0x2 EXP SWAP2 POP DUP5 DUP3 GT ISZERO PUSH2 0x84B JUMPI PUSH2 0x84A PUSH2 0x9B5 JUMP JUMPDEST JUMPDEST POP PUSH2 0x8B0 JUMP JUMPDEST POP PUSH1 0x20 DUP4 LT PUSH2 0x133 DUP4 LT AND PUSH1 0x4E DUP5 LT PUSH1 0xB DUP5 LT AND OR ISZERO PUSH2 0x886 JUMPI DUP3 DUP3 EXP SWAP1 POP DUP4 DUP2 GT ISZERO PUSH2 0x881 JUMPI PUSH2 0x880 PUSH2 0x9B5 JUMP JUMPDEST JUMPDEST PUSH2 0x8B0 JUMP JUMPDEST PUSH2 0x893 DUP5 DUP5 DUP5 PUSH1 0x1 PUSH2 0x746 JUMP JUMPDEST SWAP3 POP SWAP1 POP DUP2 DUP5 DIV DUP2 GT ISZERO PUSH2 0x8AA JUMPI PUSH2 0x8A9 PUSH2 0x9B5 JUMP JUMPDEST JUMPDEST DUP2 DUP2 MUL SWAP1 POP JUMPDEST SWAP4 SWAP3 POP POP POP JUMP JUMPDEST PUSH1 0x0 PUSH2 0x8C2 DUP3 PUSH2 0x91B JUMP JUMPDEST SWAP2 POP PUSH2 0x8CD DUP4 PUSH2 0x91B JUMP JUMPDEST SWAP3 POP DUP2 PUSH32 0xFFFFFFFFFFFFFFFFFFFFFFFFFFFFFFFFFFFFFFFFFFFFFFFFFFFFFFFFFFFFFFFF DIV DUP4 GT DUP3 ISZERO ISZERO AND ISZERO PUSH2 0x906 JUMPI PUSH2 0x905 PUSH2 0x9B5 JUMP JUMPDEST JUMPDEST DUP3 DUP3 MUL SWAP1 POP SWAP3 SWAP2 POP POP JUMP JUMPDEST PUSH1 0x0 DUP2 SWAP1 POP SWAP2 SWAP1 POP JUMP JUMPDEST PUSH1 0x0 DUP2 SWAP1 POP SWAP2 SWAP1 POP JUMP JUMPDEST PUSH1 0x0 JUMPDEST DUP4 DUP2 LT ISZERO PUSH2 0x943 JUMPI DUP1 DUP3 ADD MLOAD DUP2 DUP5 ADD MSTORE PUSH1 0x20 DUP2 ADD SWAP1 POP PUSH2 0x928 JUMP JUMPDEST DUP4 DUP2 GT ISZERO PUSH2 0x952 JUMPI PUSH1 0x0 DUP5 DUP5 ADD MSTORE JUMPDEST POP POP POP POP JUMP JUMPDEST PUSH1 0x0 PUSH2 0x963 DUP3 PUSH2 0x91B JUMP JUMPDEST SWAP2 POP PUSH32 0xFFFFFFFFFFFFFFFFFFFFFFFFFFFFFFFFFFFFFFFFFFFFFFFFFFFFFFFFFFFFFFFF DUP3 EQ ISZERO PUSH2 0x996 JUMPI PUSH2 0x995 PUSH2 0x9B5 JUMP JUMPDEST JUMPDEST PUSH1 0x1 DUP3 ADD SWAP1 POP SWAP2 SWAP1 POP JUMP JUMPDEST PUSH1 0x0 DUP2 SWAP1 POP SWAP2 SWAP1 POP JUMP JUMPDEST PUSH1 0x0 DUP2 SWAP1 POP SWAP2 SWAP1 POP JUMP JUMPDEST PUSH32 0x4E487B7100000000000000000000000000000000000000000000000000000000 PUSH1 0x0 MSTORE PUSH1 0x11 PUSH1 0x4 MSTORE PUSH1 0x24 PUSH1 0x0 REVERT JUMPDEST PUSH1 0x0 PUSH1 0x1F NOT PUSH1 0x1F DUP4 ADD AND SWAP1 POP SWAP2 SWAP1 POP JUMP JUMPDEST PUSH1 0x0 DUP2 PUSH1 0x1 SHR SWAP1 POP SWAP2 SWAP1 POP JUMP JUMPDEST PUSH32 0x3078000000000000000000000000000000000000000000000000000000000000 PUSH1 0x0 DUP3 ADD MSTORE POP JUMP JUMPDEST PUSH2 0xA34 DUP2 PUSH2 0x911 JUMP JUMPDEST DUP2 EQ PUSH2 0xA3F JUMPI PUSH1 0x0 DUP1 REVERT JUMPDEST POP JUMP JUMPDEST PUSH2 0xA4B DUP2 PUSH2 0x91B JUMP JUMPDEST DUP2 EQ PUSH2 0xA56 JUMPI PUSH1 0x0 DUP1 REVERT JUMPDEST POP JUMP INVALID LOG2 PUSH5 0x6970667358 0x22 SLT KECCAK256 0xD6 GT 0x4D TIMESTAMP 0xFC SWAP9 0x4A LOG3 0xB7 0xDA 0xDB 0xBA 0xF PUSH3 0x952997 PC CALLCODE PUSH4 0x6BDAD129 0x29 0xA7 0x27 PUSH9 0xC3D1789364736F6C63 NUMBER STOP ADDMOD ADD STOP CALLER "
		},
		"gasEstimates": {
			"creation": {
				"codeDepositCost": "540600",
				"executionCost": "600",
				"totalCost": "541200"
			},
			"external": {
				"bytes32ToHexString(bytes32)": "infinite",
				"toShortString(bytes32)": "infinite",
				"uintToBytes32(uint256)": "infinite"
			},
			"internal": {
				"_getRevertMsg(bytes memory)": "infinite",
				"toHex16(bytes16)": "infinite"
			}
		},
		"methodIdentifiers": {
			"bytes32ToHexString(bytes32)": "c68b3787",
			"toShortString(bytes32)": "db91bb50",
			"uintToBytes32(uint256)": "886d3db9"
		}
	},
	"abi": [
		{
			"inputs": [
				{
					"internalType": "bytes32",
					"name": "data",
					"type": "bytes32"
				}
			],
			"name": "bytes32ToHexString",
			"outputs": [
				{
					"internalType": "string",
					"name": "",
					"type": "string"
				}
			],
			"stateMutability": "pure",
			"type": "function"
		},
		{
			"inputs": [
				{
					"internalType": "bytes32",
					"name": "_data",
					"type": "bytes32"
				}
			],
			"name": "toShortString",
			"outputs": [
				{
					"internalType": "string",
					"name": "",
					"type": "string"
				}
			],
			"stateMutability": "pure",
			"type": "function"
		},
		{
			"inputs": [
				{
					"internalType": "uint256",
					"name": "input",
					"type": "uint256"
				}
			],
			"name": "uintToBytes32",
			"outputs": [
				{
					"internalType": "bytes32",
					"name": "",
					"type": "bytes32"
				}
			],
			"stateMutability": "pure",
			"type": "function"
		}
	]
}